S011000051756164726F5F33322E73726563E3
S21440000040DD0020DD334000D9334000313740002A
S214400010D9334000D9334000D933400000000000B7
S21440002000000000000000000000000049184000EA
S214400030D933400000000000C518400001194000B8
S214400040D9334000D9334000D9334000D93340003B
S214400050D9334000D9334000D9334000D93340002B
S214400060D9334000D93340000000000055324000EC
S214400070693240007D324000D9334000D9334000D9
S2144000800000000000000000D93340005503400047
S21440009065034000D9334000D9334000D93340008F
S2144000A0D9334000D9334000D9334000D9334000DB
S2144000B0D9334000D9334000D9334000D9334000CB
S2144000C0D9334000D9334000D933400010B5054CF1
S2144000D0237833B9044B13B10448AFF300800123AF
S2144000E0237010BDB808002000000000CC854000FA
S2144000F0084B10B51BB108480849AFF300800848C4
S214400100036803B910BD074B002BFBD0BDE8104079
S214400110184700BF00000000CC854000BC08002007
S214400120CC854000000000002DE9F04182B0074633
S2144001300023019303017D4AD55828467C4B9847B7
S214400140064628467B4B9847064016F4005F4AD042
S214400150764B03EB071358684FF40071764B98477D
S21440016028464FF40051754B984700242B6A13F0ED
S214400170040F06D10134B4F1FF3FF7D14FF0010828
S21440018001E04FF0000802232B606D4B53F83720F8
S21440019003EBC7035B68134413F8013C6B632B6A9D
S2144001A013F0010F04D10134B4F1FF3FF7D19FE0C3
S2144001B0644B03EBC703586810B907E04FF00108DB
S2144001C0002101AA0B46DFF880C1E047B4F1FF3FAB
S2144001D00BD05C4B53F8370038B1002101AA0B46D0
S2144001E0594CA04701E04FF0000816F4805F54D009
S2144001F04E4B03EB0713586802214F4B984728464F
S2144002004FF480514D4B984700242B6A13F0020F51
S21440021003D10134B4F1FF3FF7D102232B60484BA2
S21440022053F8371003EBC7035A68286B8B1803F84C
S214400230020C2B6A13F0020F04D10134B4F1FF3FD5
S214400240F7D168E0B4F1FF3F5ED02B6B0A4402F86A
S214400250013C00242B6A13F0010F04D10134B4F1A1
S214400260FF3FF7D14EE0374B03EBC703586810B952
S21440027007E04FF0FF34002101AA0B46DFF8C8C064
S214400280E047B4F1FF3F08D0304B53F8370020B179
S214400290002101AA0B462C4CA04716F4507F02D1F1
S2144002A0B8F1000F1FD0214B03EB0713586840F2FC
S2144002B00221214B984716F4807F04BF02232B600F
S2144002C028464FF400511D4CA04728464FF4805115
S2144002D0A0471C4B03EBC707786820B1002101AA52
S2144002E00B46194CA047019BE3B1194B984719E0C0
S2144002F0144B03EBC703586800287FF45FAF4FF0FA
S214400300010872E74FF001080E4B03EBC70358682D
S2144003100028AED1C1E70B4B03EBC7035868002853
S214400320A9D1BAE702B0BDE8F08100BF44834000DF
S2144003304D084000510840004D2E40004508400002
S214400340E4080020F4080020E11D4000D408002006
S2144003506918400008B50020014B984708BD00BF0B
S2144003602901400008B50120014B984708BD00BF51
S2144003702901400010B50446104B9847802323605F
S214400380636843F001036360636843F0100363608F
S214400390636823F08003636020460021084B98473B
S2144003A0636823F002036360636823F004036360BA
S2144003B020460021034B984710BD00BF1D05400056
S2144003C02D05400045054000F8B505460C46164646
S2144003D018461449144B9847074628462168002279
S2144003E01346DFF85CC0E0472846216808220F4BDA
S2144003F0984728462168FAB20D4B98472846216808
S21440040008220C4B98472846216872080A4B9847A2
S21440041086F001022846216802F00102074B984701
S214400420F8BD00BF000E2707F1054000DD0540007F
S21440043009064000990540005905400079054000EE
S2144004402106400008B5436813F0040F05D009683C
S2144004500F290AD8054B984708BD0B68032B04D8CC
S21440046001219940C943014B984708BD2D054000DE
S21440047010B50446236913F4007FFBD020460F21B5
S214400480024B98474FF08073236010BD2D05400007
S2144004902AB9002040B27047013B06D110E030B484
S2144004A01446013943F699252B46026912F0020F8D
S2144004B0F2D011F8013FC360013CF5D1002000E0C6
S2144004C0FD2040B230BC70472AB9002040B2704789
S2144004D0013B09D11CE0F0B41546013943F6992694
S2144004E0FF2740F201243346026912F0020FEFD094
S2144004F0C760324601E0013A0CD003692340A3426C
S214400500F9D1836801F8013F013DECD1002002E0BB
S214400510FD2000E0FD2040B2F0BC704708B5152035
S214400520014B984708BD00BF7D334000436823F425
S214400530702343604368090401F470210B43436011
S214400540704700BF436823F07F434360436843EAF5
S21440055001614160704700BF32B100EB8100036B20
S21440056043F001030363704700EB8100036B23F005
S21440057001030363704700BF32B100EB8100036B99
S21440058043F002030363704700EB8100036B23F0E4
S21440059002030363704700BF042A0AD100EB8100C0
S2144005A0036B23F008030363036B43F00403036306
S2144005B0704752B900EB8100036B23F008030363D6
S2144005C0036B23F0040303637047082A05D100EB4E
S2144005D08100036B43F008030363704700EB81011F
S2144005E00B6B23F0F0030B630B6B1A430A637047E5
S2144005F0431E1944B1FBF0F0431EFE2B94BF80B25D
S2144006004FF6FF7000B2704700EB81010B6B23F48E
S2144006107F430B630B6B43EA02220A63704700BFBB
S21440062010B400EB8101086B80B208630C6B44EA9F
S214400630036343EA02420A635DF8044B704700BF17
S2144006400F4B994219D84900B2FBF1F2043AFF2AFF
S21440065007D9002301335208FF2A03D9072BF9D1C3
S21440066000E00023110289B21B0403F4E0230B438D
S214400670D2B21A430261002070470120704700BF83
S214400680801A060038B504460D464FF0FF338362A5
S214400690036A80230360036B082303602023036000
S2144006A00423036049682A68054B9847012814BF0D
S2144006B0002001206B7A012B04BF4023236038BD05
S2144006C0410640002DE9F041CA688D68002A48D0AE
S2144006D0002646604B681B0203F4407343F4805484
S2144006E00B7C1B0403F4FE0323434360C6604C6844
S2144006F05CB10B78012CC4BF4E7846EA0323022C2B
S21440070004DD897841EA032300E00023C360012A20
S21440071003D10323036001272FE001230360002752
S2144007202BE02146036A13F4807F1DD14C1EF1B1A5
S214400730012A04D177BBC0F8008067462AE013F050
S214400740020F05D0036B2B70013A0135314600E0AD
S2144007502146002AE6D1036A13F0010FFBD0036A54
S2144007601CE04FF0010E19E04FF0050E16E04FF07A
S214400770090E13E04FF0050E10E0036A13F4807E76
S214400780F8D143F6972443F698264FF002084FF0E8
S214400790010CCDE713F0020FC3D0D3E77046BDE897
S2144007A0F08100BF0346CA688868002A40D070B40B
S2144007B000265E600C7C240404F4FE054C6824028B
S2144007C004F440742C435C60DE604D685DB10C7888
S2144007D0012DC4BF4E7846EA0424022D04DD8978F4
S2144007E041EA042400E00024DC600BE0196A11F4BE
S2144007F0807F1FD111F0040FF8D010F8011B596309
S214400800013A07D0196A11F4807F15D111F0040F10
S214400810ECD0F2E71A6A12F480700FD112F0040F8F
S214400820F8D002221A601A6A12F0010FFBD006E0D6
S21440083001207047052002E0052000E0052070BC3E
S214400840704700BF8162036A704700BF006A704706
S214400850C06A704710B584B0002303930A4B0293D6
S21440086019238DF80C3004AC084B44F80C3D13208B
S214400870074B984707482146074B98470748084B79
S214400880984704B010BD00BF801A0600000E270728
S2144008907D3340000080014085064000D34E010075
S2144008A00100002030B583B00B20104B9847104C09
S2144008B020464FF4802101220E4B98470E4B009362
S2144008C020460B214FF4802270230C4DA84720462B
S2144008D04FF480210A4B98470A4B4FF400621A6047
S2144008E0002283F80B2303B030BD00BF7D334000A9
S2144008F0000E0E40B52F40006936400015324000CD
S2144009004130400000E100E030B583B001900D4634
S2144009100120584B9847584C12202146574B984731
S214400920237813F0200F09D012202021544B9847EB
S2144009305720544B984764232B8071E013F0400FA8
S2144009406AD063232B80122040214D4B9847572076
S2144009504D4B98474D4B98474D4BC3E900014D4B87
S2144009609B7AEBB14C4BD97B59730D20444B98473F
S214400970484B5B7A43B1484B93F82210474B19805B
S2144009804748484B984738E0474C132021463B4B56
S21440099098472178414B19804148424B98472CE074
S2144009A010204249354B98473A4B5B7A8BB13A4CCC
S2144009B094F82210394B1980237C591AC9B26173B6
S2144009C00D202F4B9847364894F82210354B9847C1
S2144009D013E0354C13202146284B984714F813193A
S2144009E02E4B1980237C591AC9B261730D20244BB3
S2144009F098472B48E17C2B4B9847284BB3F900305F
S214400A00274A134400225A70019C214BD3E9000127
S214400A10274B9847208003E01220FF21184B984729
S214400A200C20019901F58171144B9847019A92F870
S214400A3002315B0982F80231194C04F1FF05234666
S214400A401A1B13F8011B019802449170AB42F7D170
S214400A5002A951F8043D0122A3F80621CB22A3F8AF
S214400A600421144B186841F288320023124CA047E8
S214400A7003B030BDB1124000C6AC0020C1114000EA
S214400A805D1140005130400069304000FD13400089
S214400A90080A002010000020B4AC00200409002002
S214400AA008090020E5114000C7AC0020C4AC002077
S214400AB0694040002CAD0020C11C400070B512209B
S214400AC0FF21164EB047164C9F2161741120B04747
S214400AD0002584F8245024202946B04784F83F5007
S214400AE084F84050402004F13F0102220D4B9847C5
S214400AF00D4D287E21460D4B9847AB7A1BB10620FC
S214400B000B4B984770BD064BD97B59730D20034B52
S214400B1098470520064B984770BD00BF5D114000C2
S214400B20B4AC002015114000100000207D1040009D
S214400B30B11240002DE9F84381460F460120DFF808
S214400B406C80C047154CF7236374002584F8245006
S214400B5024202946124EB0471120617CB04784F8C5
S214400B60227022203946B047A5730E202946B0474A
S214400B70A17B61730D20B04748463946094B9847DC
S214400B80402084F83F0084F8405004F13F010222A0
S214400B90054B98470320C047BDE8F883B4AC002017
S214400BA05D114000D111400015114000B1124000C7
S214400BB080B108B5012805D112208021074B9847FF
S214400BC0072008BD022807D112202021034B984752
S214400BD00A2008BD06207047662008BD5D1140000B
S214400BE010B5C4B00023ADF80630B0F90631013B6D
S214400BF00A2B5ED8DFE803F0155D184A5D5D2C5D74
S214400C005D3B06000123ADF80E31CB23ADF80C3129
S214400C10294B186802A940F6B8320023274CA04753
S214400C2047E0274B984744E002A80DF10601254BC4
S214400C3098470123ADF80E31CB23ADF80C311E4B4F
S214400C40186802A942F2107200231C4CA04730E0FC
S214400C50CB23ADF80C310123ADF80E31164B186896
S214400C6002A942F210720023144CA04721E0CB2385
S214400C70ADF80C310123ADF80E310F4B186802A9C0
S214400C8042F2107200230D4CA04712E002300E4B89
S214400C90197E0E4B98470E4B18680E4B98471220FD
S214400CA008210D4CA04701200C4B984712200821E4
S214400CB0A04744B010BD00BF2CAD0020C11C400072
S214400CC0BD0A40000909400010000020350B4000D6
S214400CD028AD0020392740005D114000B112400089
S214400CE070B5C2B02C4B98472C4B98472C4B984726
S214400CF042F27C102B4B98472B4B98472B4B9847F0
S214400D0001222B4B1A70BFF35F8F62B6CB23ADF830
S214400D1004310423ADF80631AA238DF80230AB2304
S214400D208DF80330AD238DF80430AE238DF80530B2
S214400D30AF238DF807301F4D1F4C204E286869465C
S214400D404FF0FF320023A0470128F7D1BDF8043109
S214400D501AB2CA2A1AD1BDF806311AB2C92A07D120
S214400D601220FF21164B98470020164B9847E5E780
S214400D701BB2C82BE2D1094B9847094B984742F221
S214400D807C10084B9847084B9847D7E71BB2CB2BAD
S214400D90D4D16846B047D1E7C52340008918400003
S214400DA0C114400001000020A9184000A5084000DA
S214400DB0380000202CAD0020711E4000E10B4000A2
S214400DC05D114000B112400070B504460D46092042
S214400DD00144224EB0474D2005F14C01B0476A7A97
S214400DE012F0800F25D095F84C3003F08703872B00
S214400DF00FD1052CB8BF0524142CA8BF1424053CDD
S214400E0004F00F0442F0700222F00F0214436C729A
S214400E101EE0022CB8BF0224112CA8BF1124023CAD
S214400E2004F00F0442F0700222F00F0214436C727A
S214400E300EE044EAE4735BB20E2BA8BF0E230133E8
S214400E4003F00F0342F0700222F00F0213436B725E
S214400E500920697A024B984770BD00BFC111400017
S214400E605D11400038B505460C4609200144054B47
S214400E709847617A01F07F01294361720920024B4D
S214400E80984738BDC11140005D11400070B5064618
S214400E900C464D204C310B4DA84709202118A84739
S214400EA094F90930002B04DA36B1872384F84C30A5
S214400EB002E0842384F84C304D2094F84C10024BCA
S214400EC0984770BDC11140005D1140000000000011
S214400ED038B50C460C4B984709A3D3E900230B4D75
S214400EE0A8470B4B9847030CA371030AE371207283
S214400EF0062021180322074B984738BDAFF30080E1
S214400F000000000080844E40493A4000893D400041
S214400F10B94040001511400038B505460C46312012
S214400F203031064B984794F8301021F0070129439A
S214400F3084F830103120024B984738BDC11140002C
S214400F405D11400038B505460C460C2809D80528E2
S214400F5001D9062806D1052021460C4B9847062580
S214400F6004E00C2503202146084B98471E202118F4
S214400F70074B9847A17F01F00F0141EA0511C9B21E
S214400F80A1771E20034B984738BD00BF190F40007D
S214400F90C11140005D11400038B505460C461D2085
S214400FA00144064B9847617F21F00E0141EA450116
S214400FB0C9B261771D20024B984738BDC111400029
S214400FC05D11400038B505460C461E200144064BD0
S214400FD09847A17F21F0040141EA8501C9B2A17773
S214400FE01E20024B984738BDC11140005D1140009D
S214400FF038B505460C461D200144064B9847617F90
S21440100001F00F0141EA0511C9B261771D20024B7C
S214401010984738BDC11140005D11400038B50546BF
S2144010200C461D200144054B9847617F21F0010185
S214401030294361771D20024B984738BDC1114000B7
S2144010405D11400070B506460C4601F11E051E2097
S21440105029460222074B9847C6F30122A37F23F076
S21440106003031343A377E6771E2029460222024B4A
S214401070984770BD791140001511400008B50346E9
S21440108081F8220022201946014B984708BD00BF30
S2144010905D11400038B505460C4626200144074BF6
S2144010A0984794F8261021F0080141EAC501C9B2D4
S2144010B084F826102620024B984738BDC1114000C0
S2144010C05D11400070B5104C4FF400232361C4F806
S2144010D0A03023634FF400032361C4F8A030236399
S2144010E00A4E0C2031460A4DA8470D203146A847E7
S2144010F00E203146A8470B204FF00061A8474FF41A
S2144011000063236370BD00BF000E0E400100000860
S214401110893040002DE9F0410546884617460A4C7E
S2144011200A4E204631460A4B984745F08005E56012
S214401130204641463A46074B984720463146064B9E
S2144011409847BDE8F08100BF00800040100A0020AC
S21440115045044000910440007104400000B583B04F
S21440116002AB03F8011D19460122024B984703B013
S2144011705DF804FB151140002DE9F0410546884610
S21440118017460A4C0A4E204631460A4B984705F009
S2144011907F05E560204641463A46074B984720463D
S2144011A03146064B9847BDE8F08100BF00800040BE
S2144011B0100A002045044000C90440007104400065
S2144011C008B50122014B984708BD00BF7911400081
S2144011D008B503460A4600201946014B984708BD05
S2144011E01511400008B503460A4600201946014B33
S2144011F0984708BD7911400010B5294B5B79082BFC
S2144012000FD8284C31202146274B9847234613F8C1
S214401210301901F07F0183F830103120234B984776
S21440122014E0204C312021461F4B9847234613F8A4
S214401230301941F0800183F8301031201B4CA04714
S21440124036200221A0473A206421A047144B5B7900
S2144012501BB92F204821154B9847114B5B79052B1E
S21440126003D82F204421114B98470D4B5B79063B02
S214401270DBB2022B03D82F2040210C4B9847094C59
S21440128030202146084B9847234613F8301901F082
S214401290FE0183F830103020044B984710BD00BF45
S2144012A010000020E4AC0020C11140005D11400059
S2144012B038B50C4C637803F007010B4A11700546AD
S2144012C023F007030343214601F8013F0120074B63
S2144012D09847617821F00701294361700120044B4B
S2144012E0984738BDB4AC00200C000020C111400027
S2144012F05D11400038B501202E4B98472E4B98473D
S2144013002E4C012021466F222D4B98472D4D2868A4
S21440131021462D4B9847A87921462C4B9847E8798B
S21440132021462B4B9847287A21462A4B984768797E
S2144013302146294B9847687A2146284B984740F2E1
S214401340FF302146264B9847287E2146254B984716
S214401350AB790A2B87BF0120214600201749224B34
S2144013609847184B1A68214B9A420FD9134C802045
S21440137021461F4B9847012021461E4B9847142074
S214401380104B187121461C4B98470EE00B4C002022
S2144013902146174B984700202146164B98470E206B
S2144013A0084B18712146144B98470120014B98472B
S2144013B038BD00BFB1124000F9114000B4AC002067
S2144013C07911400010000020D10E4000450F40002B
S2144013D0990F4000C50F4000F10F40001D1040001F
S2144013E0451040007D10400095104000008F42336D
S2144013F0650E40008D0E4000C90D400038B5094DC1
S2144014001B202946084B9847084B5C79084B03EB52
S214401410C4042878074B9847D4E90023064CA047D5
S21440142038BD00BFCFAC0020C111400010000020E6
S21440143068834000493A4000D137400070B50B4CB5
S2144014404FF400056561C4F8A0500948094EB047FE
S2144014502561C4F8A050656344F2F720B047656143
S214401460C4F8A0504CF6E500B04770BD000E0E40E4
S214401470D34E01000100002038B500200C4DA8478F
S2144014800C4C617821F0080141F080016170012028
S214401490094B98470120A847002384F83F3084F83A
S2144014A04030402004F13F010222044B984738BDAB
S2144014B0B1124000B4AC00205D1140001511400050
S2144014C030B583B00B4C20460B4B98470022009219
S2144014D020460A490A4B0B4DA847012323600A4B76
S2144014E098470A4B98470A4B98470A4B984703B089
S2144014F030BD00BF0080004075034000100A002049
S21440150090D00300C9034000C51040003D14400081
S21440151079144000F512400070B5ADF5116D1E4BC4
S214401520984700221D4B1A601D4B98471D4B984705
S2144015301D4B98471D4B98471D4D1E4C286843A988
S2144015404FF0FF320023A0470128F7D1BDF80C1119
S214401550BDF80E21BDF810318DF8061041F3072175
S2144015608DF807108DF8082042F307228DF80920E1
S2144015708DF80A3043F307238DF80B300423ADF87B
S2144015800A31CB23ADF808310B4B186801A901226C
S21440159000230A4EB047D1E7C5234000140A002076
S2144015A08918400055084000A918400041164000E0
S2144015B030AD0020711E40002CAD0020C11C400004
S2144015C030B587B00023019305938DF804000123BE
S2144015D00293039104926B238DF81430044D054C0E
S2144015E0284601A9A0470028FAD107B030BD00BF61
S2144015F000800140A507400070B586B006460D46FF
S21440160014460B4B98470023019305938DF80460CE
S21440161001230293039504946B238DF814300548F8
S21440162001A9054B9847054B984706B070BD00BFCB
S2144016308918400000800140C5064000A9184000B7
S21440164010B584B008238DF80430D0238DF80530CB
S21440165007238DF8063020238DF8073080238DF839
S214401660083040238DF8093001A8124B98470124D2
S2144016708DF8004005238DF8013000238DF80230A8
S2144016808DF8033068460C4B9847222003A9224623
S2144016900A4B98479DF80C3043F008038DF80C3001
S2144016A0222003A92246064B98470648064B9847F1
S2144016B004B010BDCD1640000D174000F91540008F
S2144016C0C1154000D34E01000100002010B582B085
S2144016D0427803781A43837813438DF807300279AB
S2144016E0C3781A43437913438DF8063020200DF112
S2144016F007010122044CA04723200DF106010122D8
S214401700A04702B010BD00BFC115400030B583B041
S214401710044600238DF8073002A901F8023D242034
S2144017200122134B98472378012B9DF806300CBFB7
S21440173043F0100323F030038DF806306278A37828
S2144017401A439DF8073013438DF8073024200DF1D7
S21440175006010122074DA84721200DF1070101226D
S214401760A8472520E11C0122A84703B030BD00BF92
S214401770F9154000C115400000F1080343604FF0E2
S214401780FF328260C360036100230360704700BF7E
S21440179000230361704700BF43685A684A60426846
S2144017A08A605A68916059604160086103680133F5
S2144017B00360704710B40C68B4F1FF3F01D1036971
S2144017C00AE000F10803C2681268944204D35B68DA
S2144017D05A6812689442FAD25A684A6091608B609E
S2144017E0596008610368013303605DF8044B704735
S2144017F0436882689A60836842685A6003695A6898
S214401800824204BF82685A60002202611A68013A26
S2144018101A601868704700BF03480068006880F385
S214401820088862B600DF00BF08ED00E04FF0807326
S21440183040F8043C40F8081C002340F80C3C40F8B4
S214401840202C4038704700BF064B19680868B0E83F
S214401850F00F80F309884FF0000080F311884EF0B7
S2144018600D0E7047E4AA00204FF08052014B1A60DC
S214401870704700BF04ED00E0EFF311804FF0A00189
S21440188081F311887047002008B5034B9847034AF8
S21440189013680133136008BD791840002C000020FF
S2144018A080F31188704700BF08B5044A1368013BAF
S2144018B0136013B90020024B984708BD2C00002047
S2144018C0A1184000EFF309800C4B1A6820E9F00F8E
S2144018D010602DE908404FF0A00080F3118800F01A
S2144018E0D9FE4FF0000080F31188BDE80840196823
S2144018F00868B0E8F00F80F309887047E4AA002033
S21440190008B54FF08052054B1A60054B9847054B7B
S21440191098470020044B984708BD00BF04ED00E000
S21440192079184000E5234000A118400042F6DF62E7
S214401930024B1A600722043B1A60704714E000E02E
S21440194010B5094B1A6842F470021A601A6842F0E1
S21440195070421A60054B98470024054B1C60054BA7
S2144019609847204610BD00BF20ED00E02D194000EE
S2144019702C00002019184000134A00E01A4613684D
S2144019808342FBD330B4114654681519854203D1BF
S2144019906868044454601046426884189C420CD1DF
S2144019A00A4B1B689C4206D063681A4442600B6828
S2144019B01B68036002E0046000E00360814218BFD9
S2144019C0086030BC704700BF24AA002020AA002030
S2144019D038B50446294B9847294B1B689BB9294A7A
S2144019E0294B13600021516049F6F0729818244D37
S2144019F0286049F6F475595199505A601860234A40
S214401A001368103B1360002C2ED004F1100212F025
S214401A10070F1CBF22F007020832511E49F6FE731C
S214401A20994223D817490C6801E021461C46636852
S214401A309A4202D92368002BF7D1114B1B689C426F
S214401A4016D00D68103523680B6063689B1A202BF0
S214401A5004D9A018436062600D4B98470B4A136840
S214401A6061685B1A136004E0002502E0002500E090
S214401A700025084B9847284638BD00BFB523400090
S214401A8020AA002024AA0020200A0020300000209F
S214401A90791940000525400080B110B50446084B32
S214401AA09847084A116854F80C3C0B441360A4F15C
S214401AB01000054B9847054B984710BD704700BF30
S214401AC0B52340003000002079194000052540002D
S214401AD010B50446036C3BB903681BBB4068134B08
S214401AE09847002363601DE06AB980681A46104B29
S214401AF09847A268236C1344A3606268934211D34C
S214401B002368A3600EE0C0681A46094B9847236CCA
S214401B105B42E2681A44E26021688A4202D2626806
S214401B201344E360A36B0133A36310BD912A4000C6
S214401B30B546400038B50346006858B11A6CDC68B4
S214401B401444DC605D68AC4228BFD8600846D9685B
S214401B50014B984738BD00BFB5464000F8B504462F
S214401B601E4B9847A36C002B13DD636A1BB910E02D
S214401B70636A23B90DE004F12406194D194F304627
S214401B80A84700B1B847A36C013BA364A36C002BE5
S214401B90EEDC4FF0FF33A364134B98470F4B984748
S214401BA0636C002B13DD23691BB910E0236923B94E
S214401BB00DE004F110060A4D0A4F3046A84700B122
S214401BC0B847636C013B6364636C002BEEDC4FF0FC
S214401BD0FF336364044B9847F8BD00BF8918400044
S214401BE0A9284000D9294000A918400038B518B99E
S214401BF0174B984700BFFDE70D460446154B9847E0
S214401C002268216CE36B03FB01F3D0186060002070
S214401C10A063A2605B1A1344E3604FF0FF33636433
S214401C20A36455B923697BB104F110000A4B984769
S214401C30012809D1094B984706E004F11000084DE9
S214401C40A84704F12400A847064B9847012038BD12
S214401C507918400089184000A928400069184000BB
S214401C6079174000A9184000F8B5A0B10D461746B0
S214401C70064650200E4B9847044660B105FB06F0DA
S214401C8001300B4B9847206040B92046094B984797
S214401C9001E000BFFDE7084B9847FAE7E663256496
S214401CA020460121054B984784F84D702046F8BDE4
S214401CB0D1194000991A400079184000ED1B4000A9
S214401CC02DE9F04F85B00192009318B9384B9847EC
S214401CD000BFFDE78A46044629B9036C2BB1344B56
S214401CE0984700BFFDE7002700E00027314EDFF8A9
S214401CF0ECB0314DB047A26BE36B9A4212D220460D
S214401D005146009A2D4B9847636A3BB104F1240034
S214401D102B4B9847012801D12A4B9847264B98478A
S214401D20012042E0019B1BB9234B984700203CE032
S214401D3017B902A8D8470127A847234B9847B0476A
S214401D40636CB3F1FF3F04BF00236364A36CB3F13D
S214401D50FF3F04BF0023A364A84702A801A91B4B6A
S214401D609847E0B9B047D4F83890D4F83C80A847B4
S214401D70C1450ED104F110000199154B98472046F5
S214401D80144B9847144B98470028B3D10D4B9847AF
S214401D90B0E720460F4B98470F4B9847AAE7204698
S214401DA00C4B98470C4B9847002005B0BDE8F08F89
S214401DB07918400089184000A9184000D11A400000
S214401DC0A928400069184000B52340005529400026
S214401DD0052840005D1B4000052540002D29400099
S214401DE02DE9F04118B91E4B984700BFFDE70E4657
S214401DF015469846044629B9036C1BB1184B9847BC
S214401E0000BFFDE7164B98470746A26BE36B9A4226
S214401E1018D2204631464246124B9847A36CB3F13F
S214401E20FF3F0AD1636A7BB104F124000E4B98470A
S214401E3060B16DB101242C600BE0A36C0133A36448
S214401E40012406E0002404E0012402E0012400E02E
S214401E5001243846054B98472046BDE8F08100BF30
S214401E6079184000D11A4000A9284000A118400027
S214401E702DE9F04F85B0019218B9464B984700BF00
S214401E80FDE789469A46044629B9036C2BB1414B77
S214401E90984700BFFDE7002700E000273E4EDFF8EA
S214401EA028B13E4DB047A36B43B3E568204649464C
S214401EB03B4B9847BAF1000F12D1A36B013BA3638B
S214401EC0236813B9374B98476060236993B104F190
S214401ED01000354B984701280CD1344B984709E001
S214401EE0E560636A33B104F124002F4B984708B18C
S214401EF02E4B9847294B9847012048E0019B1BB939
S214401F00264B9847002042E017B902A8D847012739
S214401F10A847274B9847B047636CB3F1FF3F04BFD1
S214401F2000236364A36CB3F1FF3F04BF0023A364A4
S214401F30A84702A801A91F4B984710BBB047D4F842
S214401F403880A847B8F1000F15D1236823B9B047A9
S214401F506068194B9847A84704F124000199174B2D
S214401F6098472046164B9847164B9847002899D1D5
S214401F700E4B984796E72046114B9847114B98478B
S214401F8090E720460E4B98470E4B9847002005B0EA
S214401F90BDE8F08F7918400089184000A918400025
S214401FA0351B4000E5294000A9284000691840003C
S214401FB0B523400055294000112A4000052840001E
S214401FC05D1B4000052540002D29400038B50446DD
S214401FD00D460D4B9847636CB3F1FF3F04BF00239B
S214401FE06364A36CB3F1FF3F04BF0023A364074BB5
S214401FF09847A36B23B904F124002946044B98471D
S2144020002046044B984738BD89184000A918400020
S214402010652840005D1B400010B504460E4B1B680B
S21440202058600E4B1B68984207D20D4B18680A4BF7
S214402030196804310B4B984710BD0B4B1868064B7C
S21440204019680431074B9847084B1B689C423CBFB5
S214402050064B1C6010BD00BFE4AA002000AB002069
S21440206004AB0020B517400040AA002034000020F2
S2144020702DE9F04F83B00C9FDDF834800E9E019022
S21440208018B9624B984700BFFDE7894615469B4600
S214402090042F03D95D4B984700BFFDE74C205C4BAF
S2144020A098470446002800F0AB80002E40F0A580FC
S2144020B0A800574B9847206318B92046554B984779
S2144020C09EE0A521AA00544B984705F18045013D66
S2144020D0236B03EB850323F0070504F134004946E0
S2144020E00C224E4B9847002384F83F303E46042F40
S2144020F028BF0426E662A66404F104094846DFF8D1
S2144021006CA1D04704F11800D0472461C6F10506FB
S214402110A6616462284601995A46414B984720601A
S21440212010F0070F03D0394B984700BFFDE7B8F1D2
S214402130000F01D0C8F800403A4B98473A4A136817
S21440214001331360394B1B680BBB384B1C6013685C
S214402150012B26D1364D05F16408364E2846B04749
S21440216014354545FAD1DFF808814046314DA84739
S214402170314E3046A8473148A8473148A8473148ED
S214402180A847314BC3F80080304B1E6009E0304B07
S2144021901B6833B9254B1B68DB6A9F4224BF234B21
S2144021A01C60E06A2B4B1B68984284BF294B186022
S2144021B0294A1368236401331360284B1B689842EE
S2144021C084BF264B186000EB8000194B03EB800061
S2144021D04946234B9847234B98471D4B1B6843B1B2
S2144021E0124B1B68DB6A9F4205D91F4B984701205C
S2144021F008E0012006E0012004E00663304660E780
S2144022004FF0FF3003B0BDE8F08F00BF79184000B4
S214402210D1194000991A4000E94740002D49400036
S2144022202D1840008918400024AB0020E4AA002066
S2144022307CAA00207917400064AA0020E8AA002063
S21440224050AA00202CAA002040AA002004AB002060
S21440225048AA002028AB002008AB002078AA00201F
S21440226099174000A918400069184000911740008F
S2144022700CAB002008B518B9094B984700BFFDE7DE
S2144022804169084A914207D1806A074B984205D077
S214402290B0FA80F0400908BD002008BD002008BD07
S2144022A0791840002CAA0020E8AA0020F8B518B9F2
S2144022B01C4B984700BFFDE705461A4B9847074614
S2144022C02846194B9847012825D1184B1B68DBB97F
S2144022D0174B1B68EC6ADB6A9C4234BF002401241F
S2144022E02E1D3046134B9847E86A134B1B6898429E
S2144022F084BF114B186000EB8000104B03EB80004E
S21440230031460F4B984707E00E4805F118010C4B35
S2144023109847002400E0002438460B4B9847204658
S214402320F8BD00BF7918400075224000E0AA0020A2
S214402330E4AA0020F117400078AA00207CAA0020DA
S21440234099174000E8AA0020A118400010B584B0B4
S214402350002300930193029303930E480E49822272
S2144023600E4CA04701280ED10D4B984701280AD1A4
S2144023700C4B984701220C4B1A6000220B4B1A60FC
S2144023800B4B984704E018B9064B984700BFFDE74B
S21440239004B010BD09264000CC83400071204000A8
S2144023A0892B40007918400048AA002000AB002046
S2144023B041194000024A136801331360704700BF5A
S2144023C0E0AA002010B5044B9847044B1C68044B09
S2144023D09847204610BD00BF8918400000AB00203B
S2144023E0A91840002DE9F0413A4B1B68002B6BD1F1
S2144023F0394B1A6801321A601B6803BB374B1B689F
S2144024001B681BB1364B984700BFFDE7334B196836
S214402410344A10681860116033490A6801320A600D
S2144024201B681B6823B94FF0FF32304B1A6006E03A
S2144024302A4B1B68DB68DB685A682C4B1A60264BB5
S2144024401A682A4B1B689A4242D3244B1B681B6867
S2144024506BB1224B1B68DB68DC6863681E4A1268F7
S214402460934213D8224E234FDFF8948012E04FF069
S214402470FF321E4B1A60BDE8F081184B1B68DB68C4
S214402480DC686368144A1268934203D9174A13609B
S214402490BDE8F081251D2846B047A36A13B104F174
S2144024A01800B047E06A3B68984288BF386000EB47
S2144024B0800008EB800029460F4B9847074B1B6867
S2144024C01B68002BD9D1D2E70C4A1368013313603E
S2144024D0BDE8F081E0AA002000AB002040AA002022
S2144024E07918400004AB0020FCAA002034000020ED
S2144024F0F117400078AA00209917400044AA00200F
S2144025007CAA00202DE9F843304B1B681BB9304BA2
S214402510984700BFFDE72F4B98472C4B1A68013A67
S2144025201A601B68002B49D12B4B1B6803BB002449
S21440253047E0D8F80C30DC6804F11800B84704F1DE
S21440254004094846B847E06A3368984288BF306016
S21440255000EB8000214B03EB80004946204B984718
S214402560204B1B68E26ADB6A9A4228BF012504E0DA
S2144025700025DFF890801C4F1C4ED8F80030002B0A
S214402580D7D11B4B1B6863B1194B1B687BB1194DE8
S214402590174CA8472368013B23602368002BF8D1DB
S2144025A005E0012D03D0144B1B68012B08D10022F7
S2144025B0114B1A60114B9847012402E0002400E0BA
S2144025C000240F4B98472046BDE8F883E0AA002039
S2144025D0791840008918400024AB00207CAA0020CF
S2144025E099174000E4AA0020F117400078AA00207E
S2144025F044AA0020E523400020AB00206918400094
S214402600A9184000E8AA002080B5164DDFF87C8067
S214402610154E164F19E0C0473468B847ACB1144B56
S2144026209847F368DC68201D124B9847124A136897
S214402630013B13602B68013B2B60104B9847206B87
S214402640DFF84C90C8472046C8472B68002BE2D19D
S2144026500B4B1B68012B01D90A4B98470A4B9847EE
S214402660F3E700BF4CAA002050AA002005254000F2
S21440267089184000F117400024AB0020A9184000FC
S2144026807CAA0020691840002D374000B523400042
S214402690991A400010B5224B1B686BB9214B1B683A
S2144026A003EB83039B00204AD358CBB91D4B1B68D2
S2144026B043B11C4A1C4909E001221C4B1A6010BD5C
S2144026C013681BB91A4B984700BFFDE71368013BD8
S2144026D01360136803EB830351F82330002BEFD0CD
S2144026E0104B1B68104A9900C81802EB80004468DB
S2144026F06468446002460832944206D1606803EB40
S2144027008301094A02EB8102506003EB8303064AC9
S21440271002EB83035B68DA68064B1A6010BD00BFA5
S214402720E0AA002078AA00207CAA002020AB002047
S21440273079184000E4AA002038B50446274B98474D
S214402740274B1B689C4200D01CBB254B1C68251D94
S2144027502846244B9847A36A002B33D120E0224BCF
S2144027601B6813B1214B984738BD214B1A68214B43
S2144027701B689A4203D10022194B1A6038BD1E4B83
S214402780984738BD1A4829461C4B98471C4B9847D3
S21440279038BD251D2846134B9847A36A3BB9F1E739
S2144027A013482946154B9847154B9847D7E704F1E9
S2144027B018000C4B98470E482946104B9847104B2C
S2144027C0984738BD04F11800064B984708482946F4
S2144027D00A4B98470A4B9847C1E700BF8918400004
S2144027E0E4AA0020F117400048AA002069184000DB
S2144027F02CAA002024AB00209526400099174000C4
S214402800A918400038B518B90E4B984700BFFDE7E9
S2144028100C460D4D296818310C4B984728680430F3
S2144028200B4B9847B4F1FF3F05D12968094804315E
S214402830094B984738BD094B18682044084B9847C1
S21440284038BD00BF79184000E4AA0020B517400004
S214402850F11740002CAA00209917400000AB00203A
S2144028601920400038B518B9094B984700BFFDE716
S2144028700D46084C21681831074B984720680430AD
S214402880064B9847064B18682844064B984738BD71
S21440289079184000E4AA002099174000F11740003C
S2144028A000AB00201920400038B5C368DC681CB96E
S2144028B0164B984700BFFDE704F118052846144B11
S2144028C09847144B1B689BB9251D2846104B9847C4
S2144028D0E06A114B1B68984284BF0F4B186000EBB0
S2144028E080000E4B03EB800029460D4B984703E0D3
S2144028F00C4829460A4B98470B4B1B68E06ADB6A34
S214402900984234BF0020012038BD00BF79184000EF
S214402910F1174000E0AA002078AA00207CAA0020F8
S21440292099174000E8AA0020E4AA002008B518B984
S214402930054B984700BFFDE7044A12680260044A08
S2144029401268426008BD00BF79184000FCAA00200B
S21440295000AB002038B518B9194B984700BFFDE7C3
S2144029600D46044619B9164B984700BFFDE7154B70
S21440297098472B68B3F1FF3F18D0134A1268216876
S214402980914204D0114A12686168914210D90F4AA8
S21440299011686068091A8B420CD91268121A9B1A81
S2144029A02B6020460A4B9847002404E0002402E0AF
S2144029B0012400E00124074B9847204638BD00BF5D
S2144029C07918400089184000FCAA002000AB00207F
S2144029D02D294000A91840000122014B1A6070477B
S2144029E020AB0020014B1868704700BFE4AA0020C7
S2144029F0054B1B6833B1054B1B68002B0CBF0120F1
S214402A00022070470020704748AA0020E0AA002015
S214402A10002831D038B5C36A18490968C96A8B425C
S214402A2029D216490968C96AC1F10501816103EBDB
S214402A308303134901EB83034169994217D1054645
S214402A40041D20460F4B98470C4B1B68D86AE8621B
S214402A500D4B1B68984284BF0B4B186000EB800000
S214402A60074B03EB80002146084B984738BD034B85
S214402A701B68DB6AC36238BD704700BFE4AA00200B
S214402A807CAA0020F117400078AA00209917400041
S214402A90E8B138B5C16A826C914217D00446051D2C
S214402AA028460B4B9847A06CE062C0F10503A36133
S214402AB0084B1B68984284BF064B186000EB8000AA
S214402AC0054B03EB80002946044B984738BD7047BA
S214402AD0F117400078AA00207CAA002099174000F1
S214402AE010B504464160206191420AD8D21A8369E3
S214402AF09A4211D20A4B1868211D0A4B984700206B
S214402B0010BD9A4201D2994208D2074B1868211D3F
S214402B10044B9847002010BD012010BD012010BD79
S214402B2060AB0020B51740002CAB002070B50D4BB5
S214402B3098470D4B1B688BB90C4D28460C4EB0473A
S214402B400C4C2046B0470C4B1D600C4B1C600520BF
S214402B500C2100220A4B9847034B1860094B9847B4
S214402B6070BD00BF891840005CAB002030AB002031
S214402B707917400044AB00202CAB002060AB00200F
S214402B80691C4000A918400010B584B00B4B98470C
S214402B900B4B1B6863B104230093002301930293FD
S214402BA00393084808494FF48272084CA04718B966
S214402BB0074B984700BFFDE704B010BD2D2B4000E3
S214402BC05CAB0020DD2C4000D883400071204000E4
S214402BD07918400030B585B00F4C2568C5B10191D5
S214402BE0029203906BB90D4B984701280A4B186820
S214402BF001A907BF089A002300221346084CA047A5
S214402C0007E0284601A91A460023064CA04700E0E4
S214402C10002005B030BD00BF5CAB0020F12940006D
S214402C20C11C4000E11D40002DE9F04782B08146BE
S214402C30224B98478046224B1B68984234D224E069
S214402C40DA68D2F800A0DB68DC68251D2846B8475D
S214402C50636A20469847E369012B18D1A369534419
S214402C60534506D96360246130682946154B98471A
S214402C700DE000230093204619465246124CA047CA
S214402C8028B9124B984700BFFDE7114E114F3368E5
S214402C901A68002AD4D1104A10680D49086013609B
S214402CA00123C9F8003002E00023C9F80030044B85
S214402CB0C3F80080404602B0BDE8F087C523400018
S214402CC058AB0020B5174000D52B4000791840007F
S214402CD02CAB0020F117400060AB00202DE9F043FC
S214402CE087B04D4DDFF860814C4B1B681A68002A50
S214402CF000F08780DB681E68494B984703A8494B1D
S214402D0098470746039B002B30D1864224D8464B33
S214402D109847424B1B68DB68DC68201DC047E36968
S214402D20012B14D1A169204631443A4633463F4FE1
S214402D30B84701280BD10023009320461946324657
S214402D403B4EB04718B93B4B984700BFFDE7636A18
S214402D50204698470CE000262868F11B364B9847DB
S214402D60314B984720B9354B984701E02E4B984752
S214402D7002A82C4B98470746314EDFF8B09038E013
S214402D80059C1CB163690BB1201DC047039B022BF9
S214402D901FD0032B2AD0002B2BD1049BA1692046A1
S214402DA019443A46C847012823D1636A20469847C3
S214402DB0E369012B1DD1A2690023009320461946E2
S214402DC0049C22441A4CA04798B91A4B984700BF17
S214402DD0FDE70499A16119B9164B984700BFFDE776
S214402DE0204639443A463B46C84702E02046154B03
S214402DF09847286803A900221346B0470028BFD149
S214402E0072E7074B984703A8064B98470746039B2D
S214402E10002BA0D0AAE700BF5CAB00202CAB002064
S214402E20B5234000292C400005254000E12A4000FB
S214402E30D52B400079184000CD1F4000691840004F
S214402E40711E4000991A4000F117400021F4FE71AF
S214402E5021F001018905890D0162704710B50E48C1
S214402E600E4B984700203E210D4B98470D4CA047EF
S214402E700028FCD00C4B98470C4A0D4B9A620D4CE0
S214402E80A0470028FCD010200B4B98470B4B984788
S214402E900148024B984710BD000E2707A135400059
S214402EA0F93240004D3340005D334000013F13206F
S214402EB000040E406D334000913240008D34400097
S214402EC038B51148114B98470B20114CA0470C20A1
S214402ED0A0470D20A0470F4D042029460E4CA04782
S214402EE003202946A0470D4B4FF400321A61C3F821
S214402EF0A0204FF400121A61C3F8A02040221A61A5
S214402F00C3F8A02038BD00BF50140E40D133400057
S214402F107D3340000100000889304000000E0E401E
S214402F204264B1F1C05F2FD007D8B1F1006F14D022
S214402F30B1F1805F1ED039B97047B1F1205F37D00C
S214402F4004D8B1F1005F29D042607047B1F1405FCC
S214402F502ED0B1F1605F2BD0F6E710B4016F046F4E
S214402F60D343214019400167416F446F21400B40D5
S214402F7043671AE0036F13430367436F416F0B4089
S214402F8023EA02034367DFE7036F016F0B4023EA40
S214402F9002030367436F13434367D5E7036F134347
S214402FA00367436F13434367CEE742605DF8044BC5
S214402FB0704700BF416412F0010F14BF41660166BE
S214402FC012F00A0F14BF0162416212F0020F02D0E3
S214402FD0C0F8801004E012F0080F18BFC0F8841044
S214402FE041610160704700BF10B44164019C0CB160
S214402FF0416600E001660BB1016500E041650AB13B
S214403000016300E04163016101605DF8044B704775
S21440301012F0100F10D0C0F8B01012F0200F14BFEE
S214403020C0F8D410C0F8D01012F0400F14BFC0F84B
S214403030C010C0F8C4107047C0F8B410704700BF46
S214403040C36C0164704700BFC06C7047806C7047AB
S214403050430903F5001303F207735B0200F01F00F9
S214403060012282401A637047430903F5001303F2B6
S21440307007735B02996B00F01F00012282400A42F0
S21440308014BF5A631A63704770B582B00D46430941
S21440309003F5001303F207735C0201F0F043B3F14B
S2144030A0005F47D009D8B3F1805F21D0B3F1C05F4D
S2144030B02FD0B3F1006F6FD109E0B3F1405F55D028
S2144030C0B3F1605F52D0B3F1205F44D064E000F0CB
S2144030D01F000126864020464FF000613246304BA6
S2144030E0984715F0010F14BF66662666012054E027
S2144030F000F01F000126864020464FF080513246A1
S214403100274B984715F0010F14BF666626660120C8
S21440311043E000F01F000126864020464FF0C05195
S21440312032461F4B984715F0010F14BF6666266659
S214403130012032E000F01F000126864020464FF076
S21440314000513246164B984715F0010F14BF66667D
S2144031502666012021E000F01F030126204606FADD
S21440316003F12A460F4B9847304616E000F01F03FF
S214403170012605F0605205EA06010091204606FA4F
S21440318003F1B2F1605F14BF00220122C5F3800351
S214403190054CA047304600E0002002B070BD00BF9E
S2144031A0212F4000B52F4000E92F40002DE9F8437D
S2144031B081468846124B984705464846114B9847E5
S2144031C0054013D0104C04F160062368434508D1EF
S2144031D06168294205D0E36840469847636825EA17
S2144031E00305B44202D01034002DEED1074B1B68C5
S2144031F023B1074B1B680BB148469847BDE8F88398
S214403200493040004D3040006CAB002024AD0020DB
S21440321068AB0020F8B50C4C2468062C11D815462F
S2144032200A4F2201BE18B9507560B360069AF26024
S2144032300134054A146029461A46054B9847002033
S214403240F8BD0120F8BD00BF64AB00206CAB002089
S2144032501130400008B502480B21024B984708BD84
S214403260000E0E40AD31400008B502480C21024B1E
S214403270984708BD00100E40AD31400008B50248E2
S2144032800D21024B984708BD00120E40AD3140005C
S214403290184A136B23F0700318431063936E13F0B1
S2144032A0080F03D009E0013B03D11EE04FF4006352
S2144032B010498A6E12F0080FF5D00E4A136B23F0B1
S2144032C0030343F002031363906E10F0080004D02B
S2144032D000207047013B03D109E04FF400630549E5
S2144032E08A6E12F0080FF5D0704701207047012013
S2144032F0704700BF00040E4038B111490B6A114AAE
S2144033001A40114B13430B6270470D4A136A23F45D
S2144033105C1323F0030343F45C1343F001030902F8
S21440332089B20B431362936E13F0010FFBD0044A2D
S214403330136A43F09B7343F480331362704700BFB5
S21440334000040E40FCFFC8FE02003701024B986E98
S21440335000F48030704700BF00040E404FF000522B
S214403360014B9A62704700BF00040E40024B986EB5
S21440337000F00200704700BF00040E4022281ED80E
S2144033801F280CD8114B9A69012383401A40934258
S21440339017D0012383400D4A1361002070470B4B22
S2144033A0D3F808212038012383401A4093420AD09C
S2144033B001238340054AC2F80031002070470120AF
S2144033C07047002070470020704700BF00040E4042
S2144033D04FF4004343607047FEE700BF08B5204BFC
S2144033E0204A9A4213D9204B1D4A9A421FD2114670
S2144033F0043203339B1A23F003030433194A13445D
S21440340052F8040B41F8040B9A42F9D10FE0144BE2
S214403410144A9A420BD2144B114A9A1A13488118EE
S2144034202AB151F8042943F8042D8142F9D100BF4E
S2144034300F4B104A9A420BD2131D0F4AD21A22F053
S21440344003021A44043B002143F8041B9342FBD179
S2144034500A4B0B4A9A600B4B98470B4B9847FEE734
S21440346000000020CC854000B4080020C8854000FD
S21440347040AD0020B808002043AD002000ED00E03D
S2144034800000400065464000953640003D4B1B6BB3
S21440349003F00303032B5DD8DFE803F0020E2B2B6B
S2144034A0394B5B6913F0800F14BF4FF400424FF462
S2144034B0FA42364B1A604DE0324B1B6A13F0807F5F
S2144034C003D0334A314B1A6044E0324A2F4B1A60DD
S2144034D02C4B1B6A03F07003102B02D0202B04D019
S2144034E038E02D4A294B1A6034E0294A274B1A60A7
S2144034F030E0244B1B6A13F0807F03D0244A234BD2
S2144035001A6012E0234A214B1A601E4B1B6A03F0D6
S2144035107003102B02D0202B04D006E01E4A1B4B13
S2144035201A6002E01A4A194B1A60164B1B6B03F0DE
S2144035300303022B134A07BF936A926AD36AD26A7E
S2144035401248C3F30A41036801FB0333D2B2B3FB0C
S214403550F2F303600B4B1B6B03F07003702B07D129
S2144035600A4A13680D49A1FB03135B0813607047B2
S214403570044B1A6B0549C2F302120B68D3400B602A
S214403580704700BF00040E4010140E403C00002060
S214403590001BB70000093D0000127A00ABAAAAAA99
S2144035A01A4B984207D84FF08063194A136002F5C9
S2144035B0007213607047174B984206D8164B144A51
S2144035C0136002F5007213607047144B984206D899
S2144035D0134B0F4A136002F5007213607047114B8D
S2144035E0984206D8104B0A4A136002F500721360E0
S2144035F070470E4B984294BF4FF004230C4B044A3E
S214403600136002F500721360704700BFFF2C310153
S214403610000A0E40FF59620200010004FF86930331
S21440362000020004FFB3C40400030004FFE0F505F5
S21440363000050004094B1B6813B9094A074B1A607A
S214403640064B1B681A180749914204DB1046034A8A
S2144036501060184670474FF0FF307047DCAB0020D4
S21440366040DD0020FC7F022008B54FF40062054B89
S214403670C3F880210020044B9847044B1868044B3D
S214403680984708BD00E100E0B10B400028AD00209F
S214403690AD22400000B585B0174B9847174B98476A
S2144036A003204FF484710022154CA047154B186038
S2144036B0022040F602010022A047134B1860012367
S2144036C00093124B0193002402940394104811492E
S2144036D040F276222346104DA847022300930F4B14
S2144036E00193029403940E480E4940F276222346F4
S2144036F0A8470D4B9847FEE75D2E4000C12E400080
S214403700691C40002CAD002030AD002028AD0020C4
S214403710E10C4000E08340007120400038AD0020BE
S21440372019154000E88340004D234000FEE700BFE7
S21440373008B5084CE26A08480849094B9847E36AC6
S21440374013F0804F04D0A26A06480749044B9847B6
S21440375001BEFEE700ED00E0E0AB0020F083400055
S2144037608548400030AC00200484400010B431F05E
S214403770004408D0114BA1F580129A4208D8042084
S2144037805DF8044B704718B902205DF8044B70474B
S21440379001F1FF41094B01F5E0019942EFD9B4F53B
S2144037A0801F01D20320EBE7054B9C4201D000204E
S2144037B0E6E7B0FA80F04009E2E700BFFFFFDF7FB0
S2144037C00000F07F81F0004102E000BF83F000433C
S2144037D030B54FEA41044FEA430594EA050F08BF67
S2144037E090EA020F1FBF54EA000C55EA020C7FEA2B
S2144037F0645C7FEA655C00F0E2804FEA5454D4EBA8
S2144038005555B8BF6D420CDD2C4480EA020281EA71
S214403810030382EA000083EA010180EA020281EAA9
S2144038200303362D88BF30BD11F0004F4FEA0131FB
S2144038304FF4801C4CEA113102D0404261EB41010A
S21440384013F0004F4FEA03334CEA133302D0524290
S21440385063EB430394EA050F00F0A780A4F101044C
S214403860D5F1200E0DDB02FA0EFC22FA05F2801886
S21440387041F1000103FA0EF2801843FA05F359416C
S2144038800EE0A5F120050EF1200E012A03FA0EFCEB
S21440389028BF4CF0020C43FA05F3C01851EBE37115
S2144038A001F0004507D54FF0000EDCF1000C7EEB32
S2144038B000006EEB0101B1F5801F1BD3B1F5001F70
S2144038C00CD349085FEA30004FEA3C0C04F101048F
S2144038D04FEA445212F5800F80F09A80BCF1004FB8
S2144038E008BF5FEA500C50F1000041EB045141EA3A
S2144038F0050130BD5FEA4C0C404141EB010111F43B
S214403900801FA4F10104E9D191F0000F04BF0146E5
S2144039100020B1FA81F308BF2033A3F10B03B3F1C3
S21440392020020CDA0C3208DD02F1140CC2F10C0253
S21440393001FA0CF021FA02F10CE002F11402D8BFB1
S214403940C2F1200C01FA02F120FA0CFCDCBF41EA7D
S2144039500C019040E41AA2BF01EB0451294330BD4C
S2144039606FEA04041F3C1CDA0C340EDC04F1140429
S214403970C4F1200220FA04F001FA02F340EA030000
S21440398021FA04F345EA030130BDC4F10C04C4F146
S214403990200220FA02F001FA04F340EA0300294626
S2144039A030BD21FA04F0294630BD94F0000F83F470
S2144039B0801306BF81F480110134013D4EE77FEA53
S2144039C0645C18BF7FEA655C29D094EA050F08BF9F
S2144039D090EA020F05D054EA000C04BF1946104680
S2144039E030BD91EA030F1EBF0021002030BD5FEAC4
S2144039F0545C05D14000494128BF41F0004130BDEC
S214403A0014F580043CBF01F5801130BD01F000453F
S214403A1045F0FE4141F470014FF0000030BD7FEAB2
S214403A20645C1ABF194610467FEA655C1CBF0B46AD
S214403A30024650EA013406BF52EA033591EA030FC4
S214403A4041F4002130BD00BF90F0000F04BF0021BC
S214403A50704730B54FF4806404F132044FF00005EF
S214403A604FF0000150E700BF90F0000F04BF002168
S214403A70704730B54FF4806404F1320410F00045CE
S214403A8048BF40424FF000013EE700BF42004FEAC9
S214403A90E2014FEA31014FEA02701FBF12F07F4346
S214403AA093F07F4F81F06051704792F0000F14BF43
S214403AB093F07F4F704730B54FF4607401F0004587
S214403AC021F0004120E700BF50EA010208BF7047DE
S214403AD030B54FF000050AE050EA010208BF7047D3
S214403AE030B511F0004502D5404261EB41014FF43C
S214403AF0806404F132045FEA915C3FF4DCAE4FF040
S214403B0003025FEADC0C18BF03325FEADC0C18BF26
S214403B10033202EBDC02C2F1200300FA03FC20FA77
S214403B2002F001FA03FE40EA0E0021FA02F11444C4
S214403B30C1E600BF70B54FF0FF0C4CF4E06C1CEAD9
S214403B4011541DBF1CEA135594EA0C0F95EA0C0F4E
S214403B5000F0DEF82C4481EA030621EA4C5123EAC1
S214403B604C5350EA013518BF52EA033541F48011F0
S214403B7043F4801338D0A0FB02CE4FF00005E1FBA3
S214403B8002E506F00042E0FB03E54FF00006E1FBED
S214403B9003569CF0000F18BF4EF0010EA4F1FF0430
S214403BA0B6F5007F64F5407404D25FEA4E0E6D4170
S214403BB046EB060642EAC62141EA55514FEAC52081
S214403BC040EA5E504FEACE2EB4F1FD0C88BFBCF5FD
S214403BD0E06F1ED8BEF1004F08BF5FEA500E50F1AE
S214403BE0000041EB045170BD06F0004646EA010174
S214403BF040EA020081EA0301B4EB5C04C2BFD4EBA6
S214403C000C0541EA045170BD41F480114FF0000E9E
S214403C10013C00F3AB8014F1360FDEBF002001F00C
S214403C20004170BDC4F10004203C35DA0C341BDC86
S214403C3004F11404C4F1200500FA05F320FA04F058
S214403C4001FA05F240EA020001F0004221F000418C
S214403C5010EBD37021FA04F642EB06015EEA430EFF
S214403C6008BF20EAD37070BDC4F10C04C4F120052F
S214403C7000FA04F320FA05F001FA04F240EA0200E2
S214403C8001F0004110EBD37041F100015EEA430EB3
S214403C9008BF20EAD37070BDC4F1200500FA05F2D3
S214403CA04EEA020E20FA04F301FA05F243EA020352
S214403CB021FA04F001F0004121FA04F220EA020061
S214403CC000EBD3705EEA430E08BF20EAD37070BDA7
S214403CD094F0000F0FD101F00046400041EB010187
S214403CE011F4801F08BF013CF7D041EA060195F069
S214403CF0000F18BF704703F00046520043EB030323
S214403D0013F4801F08BF013DF7D043EA060370470F
S214403D1094EA0C0F0CEA135518BF95EA0C0F0CD01A
S214403D2050EA410618BF52EA4306D1D181EA030160
S214403D3001F000414FF0000070BD50EA410606BF5A
S214403D401046194652EA430619D094EA0C0F02D19F
S214403D5050EA013613D195EA0C0F05D152EA0336E4
S214403D601CBF104619460AD181EA030101F0004102
S214403D7041F0FE4141F470014FF0000070BD41F04B
S214403D80FE4141F4780170BD70B54FF0FF0C4CF425
S214403D90E06C1CEA11541DBF1CEA135594EA0C0F44
S214403DA095EA0C0F00F0A7F8A4EB050481EA030E91
S214403DB052EA03354FEA013100F088804FEA033378
S214403DC04FF0805545EA131343EA12634FEA022246
S214403DD045EA111545EA10654FEA00260EF0004107
S214403DE09D4208BF964244F1FD0404F5407402D259
S214403DF05B084FEA3202B61A65EB03055B084FEAEA
S214403E0032024FF480104FF4002CB6EB020E75EBE6
S214403E10030E22BFB61A754640EA0C005B084FEA0E
S214403E203202B6EB020E75EB030E22BFB61A75468B
S214403E3040EA5C005B084FEA3202B6EB020E75EBD6
S214403E40030E22BFB61A754640EA9C005B084FEA4E
S214403E503202B6EB020E75EB030E22BFB61A75465B
S214403E6040EADC0055EA060E18D04FEA051545EA4A
S214403E7016754FEA06164FEAC30343EA52734FEAF3
S214403E80C2025FEA1C1CC0D111F4801F0BD141EA6C
S214403E9000014FF000004FF0004CB6E711F4801FD1
S214403EA004BF01430020B4F1FD0C88BFBCF5E06FB1
S214403EB03FF6AFAEB5EB030C04BFB6EB020C5FEAC1
S214403EC0500C50F1000041EB045170BD0EF0004E16
S214403ED04EEA113114EB5C04C2BFD4EB0C0541EA48
S214403EE0045170BD41F480114FF0000E013C90E645
S214403EF045EA060E8DE60CEA135594EA0C0F08BF09
S214403F0095EA0C0F3FF43BAF94EA0C0F0AD150EA07
S214403F1001347FF434AF95EA0C0F7FF425AF10469A
S214403F2019462CE795EA0C0F06D152EA03353FF4C2
S214403F30FDAE1046194622E750EA410618BF52EA3F
S214403F4043067FF4C5AE50EA41047FF40DAF52EA13
S214403F5043057FF4EBAE12E74FF0FF3C06E000BFB0
S214403F604FF0010C02E000BF4FF0010C4DF804CDBD
S214403F704FEA410C7FEA6C5C4FEA430C18BF7FEA7D
S214403F806C5C1BD001B050EA410C0CBF52EA430CAB
S214403F9091EA030F02BF90EA020F0020704710F12B
S214403FA0000F91EA030F58BF994208BF90422CBFBA
S214403FB0D8176FEAE37040F0010070474FEA410CB3
S214403FC07FEA6C5C02D150EA013C07D14FEA430CD1
S214403FD07FEA6C5CD6D152EA033CD3D05DF8040B42
S214403FE0704700BF8446104662468C461946634674
S214403FF000E000BF01B5FFF7B7FF002848BF10F14B
S214404000000F01BD4DF808EDFFF7F4FF0CBF01208F
S21440401000205DF808FB00BF4DF808EDFFF7EAFF0B
S21440402034BF012000205DF808FB00BF4DF808EDC6
S214404030FFF7E0FF94BF012000205DF808FB00BFBB
S2144040404DF808EDFFF7CEFF94BF012000205DF845
S21440405008FB00BF4DF808EDFFF7C4FF34BF012052
S21440406000205DF808FB00BF4FEA410212F500123F
S21440407015D211D56FF47873B3EB625212D94FEA6A
S214404080C12343F0004343EA505311F0004F23FA54
S21440409002F018BF404270474FF00000704750EAA9
S2144040A0013005D111F0004008BF6FF00040704766
S2144040B04FF00000704700BF4A0011D212F50012C0
S2144040C011D20DD56FF47873B3EB62520ED44FEA2B
S2144040D0C12343F0004343EA505323FA02F07047AB
S2144040E04FF00000704750EA013002D14FF0FF30E9
S2144040F070474FF0000070472DE9F041069C15468A
S21440410006460F46984600F029F805FB01F300FBEB
S2144041100838A5FB0023B21A434467EB0303C4E9FF
S2144041200023BDE8F08100BF2DE9F041069C904693
S21440413006460F461D4600F05FF900FB05F5A0FB5E
S214404140082308FB0155B21A2B4467EB0303C4E966
S2144041500023BDE8F08100BF704700BF00292DE96D
S214404160F043C0F2A6800026002BC0F29C80884612
S21440417094469E46154604460F46002B3DD18A423D
S21440418059D9B2FA82F33BB1C3F120029F4020FADC
S21440419002F29D4017439C40290C220CB7FBF1FECF
S2144041A0A8B201FB1E7742EA074700FB0EF3BB426C
S2144041B00AD97F190EF1FF3280F00581BB4240F2EA
S2144041C00281AEF1020E2F44FF1AA4B2B7FBF1F300
S2144041D001FB137744EA074700FB03F0B84208D9CF
S2144041E07F1903F1FF3280F0F080B84240F2ED8054
S2144041F0023B43EA0E43002203E08B420FD90022E3
S2144042001346341C18BF012460424FF0000565EB8E
S21440421045015840514000196941BDE8F083B3FA62
S21440422083F2002A40F086808B4202D3844500F217
S214404230DB800123E5E712B90123B3FBF2F5B5FABB
S21440424085F000283BD1781B4FEA154E1FFA85FCB7
S2144042500122B0FBFEF8210C0EFB180741EA074787
S2144042600CFB08F3BB4207D97F1908F1FF3102D295
S214404270BB4200F2BD808846FF1AA4B2B7FBFEF3ED
S2144042800EFB137744EA07470CFB03FCBC4507D9F3
S2144042907F1903F1FF3102D2BC4500F2A7800B46DE
S2144042A043EA0843ADE752426FEA060663EB430330
S2144042B05DE7404261EB41014FF0FF3654E7C0F105
S2144042C0200224FA02F107FA00F385404FEA154E21
S2144042D0D7401943B7FBFEF20B0C0EFB12771FFAC2
S2144042E085FC43EA07430CFB02F79F4204FA00F4BE
S2144042F007D95B1902F1FF3074D29F4272D9023A55
S2144043002B44DF1B89B2B7FBFEF80EFB187341EA5D
S21440431003430CFB08F79F4208D95B1908F1FF31AD
S2144043205CD29F425AD9A8F102082B44D81B48EACF
S21440433002428EE7C2F120032CFA03F10EFA02FE87
S21440434020FA03F741EA0E0E08FA02F028FA03F1C3
S2144043504FEA1E453843B1FBF5F8030C05FB181130
S2144043601FFA8EF743EA014107FB08F38B420CFA2B
S21440437002FC09D911EB0E0108F1FF3930D28B420D
S2144043802ED9A8F102087144C91A80B2B1FBF5F3E0
S21440439005FB131140EA014107FB03F78F4208D99A
S2144043A011EB0E0103F1FF3016D28F4214D9023BB7
S2144043B0714443EA0843C91BA3FB0C89494509D30A
S2144043C005D000221DE79646FEE6134611E79440C8
S2144043D04445F6D2013BF4E70346EAE78846A5E7BC
S2144043E0C846D1E702468CE713460AE7023B57E742
S2144043F0A8F102082F443FE72DE9F041002B44D1B5
S2144044008A42154604464FD9B2FA82F70E464FB155
S214404410C7F12003B94020FA03F602FA07F50E4327
S21440442000FA07F44FEA154E230CB6FBFEF0AFB287
S2144044300EFB106143EA014307FB00F1994209D99C
S2144044405B1900F1FF3280F0EC80994240F2E9803F
S21440445002382B445A1AA4B2B2FBFEF30EFB1322C8
S21440446044EA024207FB03F7974208D9521903F180
S214404470FF3180F0D880974240F2D580023B43EA35
S214404480004000263146BDE8F0818B4247D8B3FA5B
S21440449083F6002E48D18B4202D3824200F2CD8072
S2144044A001203146BDE8F08112B90125B5FBF2F591
S2144044B0B5FA85F8B8F1000F77D14A1B4FEA154E8A
S2144044C0AFB20126B2FBFEF0230C0EFB102143EAEE
S2144044D0014107FB00F38B4207D9491900F1FF322F
S2144044E002D28B4200F2BA801046C91AA4B2B1FB7F
S2144044F0FEF30EFB131144EA014407FB03F7A74201
S21440450008D9641903F1FF3280F08F80A74240F249
S2144045108C80023B43EA00403146BDE8F0810026ED
S21440452030463146BDE8F081C6F1200422FA04F553
S214404530B3402B4320FA04FC01FA06F721FA04F5AF
S2144045404FEA134E4CEA0707B5FBFEF8390C0EFB54
S21440455018551FFA83FC41EA05450CFB08F1A942B1
S21440456002FA06F204D9ED1808F1FF3467D3A046E4
S2144045706D1ABFB2B5FBFEF40EFB145547EA054173
S2144045800CFB04FC8C4504D9C91804F1FF355CD3F8
S2144045902C4644EA0844CCEB0101A4FB0223994292
S2144045A048D344D0204600266CE7C8F1200401FAE0
S2144045B008F305FA08F520FA04F7E1404FEA154EED
S2144045C01F43B1FBFEF63A0C0EFB16111FFA85FC94
S2144045D042EA01430CFB06F29A4200FA08F407D975
S2144045E05B1906F1FF3137D29A4235D9023E2B4449
S2144045F09B1ABFB2B3FBFEF00EFB103347EA0343F1
S2144046000CFB00F1994207D95B1900F1FF3221D229
S21440461099421FD902382B445A1A40EA0646674642
S21440462050E7104616E70B4629E7134672E7B040B8
S2144046309042B7D2601E002624E7304622E7A942C1
S21440464095D9A8F102081D4492E78C45A0D9023CB2
S21440465019449EE71046DFE70E46C9E7023829446C
S21440466043E700BF70B50F4E0F4D761BB61018BF10
S214404670002405D0013455F8043B9847A642F9D1AA
S2144046800A4E0B4D761B03F08BFFB61018BF002466
S21440469006D0013455F8043B9847A642F9D170BD80
S2144046A070BD00BFAC854000AC854000B48540007E
S2144046B0AC854000844641EA000313F003036DD105
S2144046C0403A41D351F8043B40F8043B51F8043B90
S2144046D040F8043B51F8043B40F8043B51F8043B97
S2144046E040F8043B51F8043B40F8043B51F8043B87
S2144046F040F8043B51F8043B40F8043B51F8043B77
S21440470040F8043B51F8043B40F8043B51F8043B66
S21440471040F8043B51F8043B40F8043B51F8043B56
S21440472040F8043B51F8043B40F8043B51F8043B46
S21440473040F8043B51F8043B40F8043B51F8043B36
S21440474040F8043B403ABDD2303211D351F8043BD6
S21440475040F8043B51F8043B40F8043B51F8043B16
S21440476040F8043B51F8043B40F8043B103AEDD285
S2144047700C3205D351F8043B40F8043B043AF9D2D6
S214404780043208D0D2071CBF11F8013B00F8013BA9
S21440479001D30B8803806046704700BF082A13D3B6
S2144047A08B078DD010F003038AD0C3F10403D21ACE
S2144047B0DB071CBF11F8013B00F8013B80D331F802
S2144047C0023B20F8023B7BE7043AD9D3013A11F882
S2144047D0013B00F8013BF9D20B7803704B784370ED
S2144047E08B7883706046704770B4840746D0541EFA
S2144047F0002A41D0CDB2034602E0621EE4B314461E
S21440480003F8015B9A07F8D1032C2ED9CDB245EABE
S21440481005250F2C45EA054519D903F11002264611
S214404820103E0F2E42F8105C42F80C5C42F8085CD2
S21440483042F8045C02F11002F2D8A4F1100222F011
S2144048400F0204F00F041032032C13440DD91E46F9
S2144048502246043A032A46F8045BFAD8221F22F07E
S21440486003020432134404F003042CB1C9B21C44BE
S21440487003F8011BA342FBD170BC704714460346A5
S214404880C2E700BF0EB4F0B59CB021AB0F4953F859
S214404890042B019305466FF00044086802954FF4D8
S2144048A002774FF6FF7602A90695ADF81470049489
S2144048B00794ADF8166000F06DF8029B00221A705F
S2144048C01CB0BDE8F04003B0704700BF680400204D
S2144048D020F0030110F00300C0F1000051F8043B43
S2144048E000F1040C4FEACC0C6FF000021CBF22FA19
S2144048F00CF213434FF0010C4CEA0C2C4CEA0C4CD7
S214404900A3EB0C0222EA030212EACC1204BF51F8CF
S214404910043B0430F4D0C2F1000102EA0102B2FACC
S21440492082F2C2F11F0200EBD200704740EA010358
S2144049309B0770B42BD1032A29D90C46034621463F
S21440494054F8046BA6F1013525EA060515F0803FBC
S21440495005D1043A032A43F8046B2146EFD8A2B1A6
S2144049600C781C70013A013301313CB16AB111F840
S214404970014B03F8014B013A002CF7D12AB11A44F7
S214404980002103F8011B9342FBD170BC70470346DD
S214404990E5E700BF2DE9F04FC1B089460A920E9375
S2144049A0089002F06FFB036817931846FFF790FFD6
S2144049B0B9F80C3018901A0604D5D9F81030002BE8
S2144049C001F08C80002330AF1393259324931693E5
S2144049D019930B932397149315933C464E460A9D82
S2144049E02B78002B00F0A980252B02D1A5E0252BA3
S2144049F003D015F8013F002BF9D10A9BEB1A73B18F
S214404A00249A25990A98206001321944072A63603F
S214404A102591249272DC08340B9A1A440B922B7818
S214404A20002B00F0B5870023691C6D788DF86F3039
S214404A301A460C9307934FF0FF3A4B1CA5F1200102
S214404A40582900F2D983DFE811F07002D703D70364
S214404A507403D703D703D703D703D703D703F0028C
S214404A600D02D703F4011102D7037B03BA02BA0240
S214404A70BA02BA02BA02BA02BA02BA02BA02D703F3
S214404A80D703D703D703D703D703D703D703D70311
S214404A90D703C9028B03D7038B03D703D703D703A8
S214404AA0D7036D03D703D7030503D703D703D7032D
S214404AB0D703D7032303D703D7033D03D703D7032F
S214404AC0D703D703D703D703D703D703D703D703D1
S214404AD058032C028B038B038B03FE022C02D70356
S214404AE0D703E602D7037E02FB01C0037702D70353
S214404AF09202D7037A00D703D7034A02089807934F
S214404B00314623AA03F002FB50B93C46079B83E795
S214404B100898314623AA03F0F9FA002800F0858168
S214404B20B146B9F80C3013F0400F0B9B18BF4FF04E
S214404B30FF33184641B0BDE8F08F0A9D6FE70A93F1
S214404B40079B980640F1AD820E9B03F1070929F0BA
S214404B50070303F10802D3E900890E9201234FF0C0
S214404B60000C8DF86FC0CDF844A0BAF1000F03DBFF
S214404B70079A22F08002079258EA090240F04C83D6
S214404B80BAF1000F00F05184012B00F04F83022B46
S214404B9000F0908439464FEAD80242EA49724FEA1A
S214404BA0D90008F0070381469046303358EA090298
S214404BB001F8013DEFD1079A1091D20700F14485E4
S214404BC07B1A0D930D9A92455346B8BF13460993E8
S214404BD000231293BCF1000F02D0099B01330993C6
S214404BE0079B13F002030F9302D0099B02330993ED
S214404BF0079B13F0840940F00C830C9B099AC2EB88
S214404C000308B8F1000F40F30483B8F1100F25995C
S214404C10249ADFF844A529DD53464FF0100BC246D0
S214404C20A8461D4606E0AAF1100ABAF1100F04F194
S214404C30080417DD01321031072A2591249284E8B2
S214404C402008F0DD0898314623AA03F05FFA0028D2
S214404C507FF466AFAAF1100ABAF1100F2599249A8C
S214404C603C46E7DC2B464546D0469A46013208EBA2
S214404C70010B072ACDF894B02492C4F800A0C4F8DB
S214404C80048000F37B849DF86FC00834BCF1000FAD
S214404C900FD0249B01330BF1010B0DF16F01012264
S214404CA0072BCDF894B0249384E8060000F3DA830B
S214404CB008340F9B73B1249B01330BF1020B1CA9E4
S214404CC00222072BCDF894B0249384E8060000F324
S214404CD0D5830834B9F1800F00F01183119B0D9AEB
S214404CE0C2EB030ABAF1000F3CDDBAF1100F249A6A
S214404CF0DFF868942BDD49465B46A9464FF010081E
S214404D00DDF820B00D4606E0AAF1100ABAF1100F01
S214404D1004F1080417DD01321033072A2593249244
S214404D2084E82001F0DD5846314623AA03F0EEF928
S214404D3000287FF4F5AEAAF1100ABAF1100F259BB1
S214404D40249A3C46E7DC9B462B464D469946013224
S214404D50D344072ACDF894B0249284E8000600F3A2
S214404D6075830834079BD90500F16C82249B0D9906
S214404D70109A226001338B44072BCDF894B06160C3
S214404D80249300F346830834079B5A0741D50C9B6F
S214404D90099A9D1A002D3CDD102D249BDFF8B8A300
S214404DA023DD4FF010085A46DDF8209004E0103D11
S214404DB0102D04F1080417DD01331032072B25921D
S214404DC02493C4F800A0C4F80480F0DD4846314679
S214404DD023AA03F09BF900287FF4A2AE103D102DC5
S214404DE0259A249B3C46E7DC93460133AB44072B8D
S214404DF0CDF894B02493C4F800A0656009DD089807
S214404E00314623AA03F082F900287FF489AEDDF804
S214404E1094B00B9B099A0C998A42ACBF9B185B18BE
S214404E200B93BBF1000F7FF473AE002324933C46F4
S214404E30D5E5194607981D7840F004000790FCE534
S214404E400A93079B13F0200300F00E810E9B03F19C
S214404E50070929F0070303F10802D3E900890E92F7
S214404E6000237CE61D7819462B22E6E51D782A2D80
S214404E7003F1010100F0AD87A5F1300009280B468B
S214404E804FF0000A3FF6DAAD13F8015B0AEB8A0AE8
S214404E9000EB4A0AA5F130000928F5D94AEAEA7A31
S214404EA0CCE50A93079B8DF86F209B0640F1A180C6
S214404EB00E9B03F1070929F00709D9E9002309F1F8
S214404EC008010E9190469946002A73F10003C0F2FD
S214404ED00B849DF86FC0CDF844A0012345E60A93A5
S214404EE09B4B1693079B8DF86F209B0640F1F380F3
S214404EF00E9B03F1070929F00703D3E9008903F164
S214404F0008020E92079BD90740F1F58058EA09033C
S214404F1000F0F180079A8DF87150302342F002027B
S214404F208DF870300792022319E61D781946002A3C
S214404F307FF483AD202280E5079941F02001079158
S214404F401D78194679E50A93079B8DF86F209A06D7
S214404F5040F1A1840B990E9A4FEAE179136808460E
S214404F608846043249460E92C3E9000137E50E9A58
S214404F700A93136810934FF0000B8DF86FB002F150
S214404F800409002B00F03B86BAF1000F1098C0F2DF
S214404F90E9855946524602F00BFB002800F06C8625
S214404FA0109BCDF844B0C31A0D93CDF8389023EA41
S214404FB0E3730993CDF848B09DF86FC00AE6A5F1B3
S214404FC03000002113F8015B01EB810100EB410149
S214404FD0A5F130000928F5D90C912FE50A93079BD7
S214404FE08DF86F2043F010030793079B9B063FF511
S214404FF05FAF079BD80600F16883079B590640F1D0
S21440500064830E99B1F9008004314FEAE87942464C
S2144050104B460E9158E71D7807996C2D00F0CB84CF
S21440502041F010010791194607E50E9D29680C913D
S21440503008460028294601F10401C0F2B5840E91C5
S2144050401D781946F9E4079941F0400107911D780B
S2144050501946F2E40A93079B43F010030793079B15
S21440506013F020037FF4F2AE079A12F0100240F0DD
S2144050701983079B13F0400300F014830E991346E0
S2144050800A460432B1F800800E924FF0000966E5F9
S2144050900A93079B43F010030793079B98063FF538
S2144050A053AD079BD90600F10683079B5A0640F18D
S2144050B002830E9AB2F8008004324FF000090123B2
S2144050C00E924CE50A93234B1693079B8DF86F2060
S2144050D09B063FF50DAF079BD80640F1CD830E9A51
S2144050E013461B689846079B0432D9070E924FF02A
S2144050F000093FF50BAF022331E50E990A930A6883
S2144051008DF898200023012204319C4609920E9186
S2144051108DF86F3026ABCDF844C0CDF848C00D9220
S21440512010935DE5079941F0080107911D781946EF
S21440513083E4079941F0010107911D7819467CE404
S214405140079941F0800107911D78194675E400BF24
S21440515064844000508440003084400020844000F6
S2144051600A930E9B8DF86F2003F1070929F0070379
S21440517003F108020E921A6814925B68159315990B
S2144051801498FEF7F3FA0128D3461498159940F080
S214405190598300220023FEF73FFF002840F0648535
S2144051A09DF86FC0079BBE4ADFF800E323F08003FC
S2144051B00793134603210020472DD8BF7346099115
S2144051C0119010930D91129004E50E9807990A934A
S2144051D0302203688DF870200246782541F002019F
S2144051E004329846AF4B169307910E924FF0000943
S2144051F08DF871500223B2E40A938DF86F20002D8B
S21440520000F0C683002301229C4609928DF89850F0
S2144052107EE7DDF894B039E5012B7FF4B8ACB9F100
S214405220000F08BFB8F10A0F80F01C820DF5807B96
S21440523008F130080BF8418DCBEB07030D93CDF802
S21440524040B0BFE4652D40F3A08014981599002225
S2144052500023FEF7D7FE002800F04581249B924AA3
S214405260226001330BF1010B0122072BCDF894B0DD
S2144052702493626000F3348308341D9B139A934250
S21440528003DB079BDA077FF57FAD249B1899179AB7
S214405290226001338B44072BCDF894B06160249391
S2144052A000F390830834139B5D1E002D7FF76CAD92
S2144052B0102D249BDFF8F89140F3BA814FF0100888
S2144052C05A46DDF820A004E00834103D102D40F387
S2144052D0AE8101331032072B25922493C4F80090F8
S2144052E0C4F80480F0DD5046314623AA02F00EFF93
S2144052F000287FF415AC259A249B3C46E5E70C9B9A
S214405300099AC2EB030ABAF1000F7FF7E7ACBAF18D
S214405310100F249ADFF898912BDD49465B46A94644
S2144053204FF01008DDF820B00D4606E0AAF1100A4E
S214405330BAF1100F04F1080417DD01321033072AC2
S2144053402593249284E82001F0DD5846314623AA6E
S21440535002F0DCFE00287FF4E3ABAAF1100ABAF1B3
S214405360100F259B249A3C46E7DC9B462B464D4631
S21440537099460132D344072ACDF894B0249284E863
S214405380000600F352820834A8E4139B249D012BA8
S21440539040F32082109B236001350BF1010301226C
S2144053A0072D25932495626000F3268208341899C9
S2144053B06160013503EB010B072D179BCDF894B0C8
S2144053C02495236000F3248208340023149815990A
S2144053D00022FEF717FE139B002840F0DE80109A4E
S2144053E0013B013501329B44072D2495CDF894B0FE
S2144053F02260636000F30E810834199A62600135BA
S21440540093441FAB072DCDF894B0249523607FF7C7
S214405410BAAC0898314623AA02F078FE00287FF4FA
S2144054207FABDDF894B03C46AEE4002B32D1079B10
S214405430D8072FD50DF5807B30230BF8413DCBEBBD
S21440544007030D93CDF840B0FFF7BCBB0898314634
S21440545023AA02F05BFE00287FF462ABDDF894B02E
S2144054603C467FE40898314623AA02F04FFE0028C7
S2144054707FF456ABDDF894B03C461AE408983146C3
S21440548023AA02F043FE00287FF44AABDDF894B02E
S2144054903C461FE4CDF834A01097FFF793BB00BFFF
S2144054A0448440006484400080844000408440003F
S2144054B0208440001698BB464FEA181308F00F01A8
S2144054C043EA09734FEA191298469146435C0BF833
S2144054D0013D58EA0903EFD15B46CDF840B0FB1AD0
S2144054E00D93FFF76FBB1D9D002D40F30582139A69
S2144054F012998A421346A8BF0B461D461099002DA6
S21440550001EB020A0BDD249B21600133AB44072BE1
S214405510CDF894B06560249300F34D830834129B15
S214405520002DA8BF5B1B002B1D4640F3F580102DB9
S214405530249BDFF8F49540F3C6815A464FF0100896
S214405540DDF820B004E00834103D102D40F3BA8159
S21440555001331032072B25922493C4F80090C4F8E8
S2144055600480F0DD5846314623AA02F0CFFD0028DD
S2144055707FF4D6AA259A249B3C46E5E70898314610
S21440558023AA02F0C3FD00287FF4CAAA9DF86FC084
S214405590DDF894B03C46FFF779BB03F1FF38B8F12D
S2144055A0000F7FF72AAFB8F1100FDFF87C9525DDA6
S2144055B05B464FF0100ADDF820B006E0A8F1100870
S2144055C0B8F1100F04F1080417DD01351033072D2C
S2144055D02593249584E80006F0DD5846314623AAF4
S2144055E002F094FD00287FF49BAAA8F11008B8F1B9
S2144055F0100F259B249D3C46E7DC9B460135C34463
S214405600072DCDF894B02495C4F80090C4F80480D3
S2144056107FF7F2AE0898314623AA02F077FD0028BD
S2144056207FF47EAADDF894B0249D3C46E5E693469A
S2144056300133AB44072BCDF894B02493C4F80090C4
S21440564065607FF7A0ABE4E6302B109B3FF447AF96
S214405650013B1A461093BA1A30230D9201F8013CCA
S214405660FFF7B0BABB46CDF824C0404649460A22AA
S214405670002302F04FFE3032404649460BF8012DDB
S21440568000230A2202F046FE8046894658EA09036D
S214405690EBD15B46FB1ADDF824C0CDF840B00D9345
S2144056A0FFF790BA0E990A6804310E9190464FF073
S2144056B00009FFF754BA0E990A68043101230E9187
S2144056C090464FF00009FFF74ABA0E9A136898467C
S2144056D04FEAE3791346043342460E93002A4B467C
S2144056E073F10003BFF6F5AB4FF02D0CD8F1000870
S2144056F069EB49098DF86FC0CDF844A00123FFF748
S21440570034BA0898314623AA02F000FD00287FF4F8
S21440571007AADDF894B03C46109A12991D9B0A449D
S2144057209046139A934246DB079AD00743D4139A7F
S214405730C8EB0A05D31A9D42A8BF1D46002D0CDDB6
S214405740249AC4F800800132AB44072ACDF894B0BE
S2144057506560249200F367820834002DACBF5D1B61
S2144057601D46002D7FF710AB102D249BDFF8B89315
S2144057707FF75EAF4FF010085A46DDF820A004E0F1
S2144057800834103D102D7FF752AF01331032072BEF
S21440579025922493C4F80090C4F80480F0DD504667
S2144057A0314623AA02F0B2FC00287FF4B9A9259A14
S2144057B0249B3C46E5E7249A1898179921600132C5
S2144057C08344072ACDF894B06060249200F30A829E
S2144057D00834ACE7079BD9073FF5DCAD109B236048
S2144057E001350BF1010B0123072DCDF894B024951C
S2144057F063607FF701AE0DE70898314623AA02F0B2
S21440580085FC00287FF48CA9259B249D3C46CEE54C
S2144058100898314623AA02F079FC00287FF480A934
S214405820DDF894B0249D3C46CFE50898314623AA3F
S21440583002F06CFC00287FF473A9DDF894B03C4677
S214405840FFF74CBAFDF792FF002840F0C780864627
S214405850B24AB34B119007989DF86FC0CDF848E018
S214405860032120F08000472DD8BF1A4609910790A3
S21440587010920D91FFF7AEB9079B0E9A13F0400FAA
S21440588013463FF42EAC0433B2F800800E934FF02C
S2144058900009FFF737BB079BDB060BD4079B5D066B
S2144058A008D50E9A136804320E92BDF82C201A8042
S2144058B0FFF795B80E9A136804320E920B9A1A6048
S2144058C0FFF78DB893460133AB44072BCDF894B021
