:020000040040BA
:1000000010DC0020414040003D404000A945400038
:100010003D4040003D4040003D40400000000000A9
:10002000000000000000000000000000112340005C
:100030003D404000000000008D234000C9234000E7
:100040003D4040003D4040003D4040003D404000BC
:100050003D4040003D4040003D4040003D404000AC
:100060003D4040003D40400000000000B93E4000DF
:10007000CD3E4000E13E40003D4040003D4040005C
:1000800000000000000000003D404000550340001B
:10009000650340003D4040003D4040003D40400081
:1000A0003D4040003D4040003D4040003D4040005C
:1000B0003D4040003D4040003D4040003D4040004C
:1000C0003D4040003D4040003D40400010B5054CE3
:1000D000237833B9044B13B10448AFF300800123F4
:1000E000237010BD8808002000000000406E400012
:1000F000084B10B51BB108480849AFF30080084809
:10010000036803B910BD074B002BFBD0BDE81040BE
:10011000184700BF00000000406E40008C0800201F
:10012000406E4000000000002DE9F04182B007461B
:100130000023019303017D4AD55828467C4B9847FC
:10014000064628467B4B9847064016F4005F4AD087
:10015000764B03EB071358684FF40071764B9847C2
:1001600028464FF40051754B984700242B6A13F032
:10017000040F06D10134B4F1FF3FF7D14FF001086D
:1001800001E04FF0000802232B606D4B53F837203D
:1001900003EBC7035B68134413F8013C6B632B6AE2
:1001A00013F0010F04D10134B4F1FF3FF7D19FE008
:1001B000644B03EBC703586810B907E04FF0010820
:1001C000002101AA0B46DFF880C1E047B4F1FF3FF0
:1001D0000BD05C4B53F8370038B1002101AA0B4615
:1001E000594CA04701E04FF0000816F4805F54D04E
:1001F0004E4B03EB0713586802214F4B9847284694
:100200004FF480514D4B984700242B6A13F0020F96
:1002100003D10134B4F1FF3FF7D102232B60484BE7
:1002200053F8371003EBC7035A68286B8B1803F891
:10023000020C2B6A13F0020F04D10134B4F1FF3F1A
:10024000F7D168E0B4F1FF3F5ED02B6B0A4402F8AF
:10025000013C00242B6A13F0010F04D10134B4F1E6
:10026000FF3FF7D14EE0374B03EBC703586810B997
:1002700007E04FF0FF34002101AA0B46DFF8C8C0A9
:10028000E047B4F1FF3F08D0304B53F8370020B1BE
:10029000002101AA0B462C4CA04716F4507F02D136
:1002A000B8F1000F1FD0214B03EB0713586840F241
:1002B0000221214B984716F4807F04BF02232B6054
:1002C00028464FF400511D4CA04728464FF480515A
:1002D000A0471C4B03EBC707786820B1002101AA97
:1002E0000B46194CA047019BE3B1194B984719E005
:1002F000144B03EBC703586800287FF45FAF4FF03F
:10030000010872E74FF001080E4B03EBC703586872
:100310000028AED1C1E70B4B03EBC7035868002898
:10032000A9D1BAE702B0BDE8F08100BF3C6D400042
:10033000E9084000ED084000A9394000E10840000C
:10034000B4080020C4080020A9284000A408002008
:100350003123400008B50020014B984708BD00BF7D
:100360002901400008B50120014B984708BD00BF96
:100370002901400010B50446104B984780232360A4
:10038000636843F001036360636843F010036360D4
:10039000636823F08003636020460021084B984780
:1003A000636823F002036360636823F004036360FF
:1003B00020460021034B984710BD00BFA90540000F
:1003C000B9054000D1054000F8B505460C46164673
:1003D00018461449144B98470746284621680022BE
:1003E0001346DFF85CC0E0472846216808220F4B1F
:1003F000984728462168FAB20D4B9847284621684D
:1004000008220C4B98472846216872080A4B9847E7
:1004100086F001022846216802F00102074B984746
:10042000F8BD00BF000E27077D06400069064000AA
:100430009506400025064000E50540000506400001
:10044000AD06400008B5436813F0040F05D00968F5
:100450000F290AD8054B984708BD0B68032B04D811
:1004600001219940C943014B984708BDB905400097
:1004700010B50446236913F4007FFBD020460F21FA
:10048000024B98474FF08073236010BDB9054000C0
:100490002AB9002040B27047013B06D110E030B4C9
:1004A0001446013943F699252B46026912F0020FD2
:1004B000F2D011F8013FC360013CF5D1002000E00B
:1004C000FD2040B230BC70472AB9002040B27047CE
:1004D000013B09D11CE0F0B41546013943F69926D9
:1004E000FF2740F201243346026912F0020FEFD0D9
:1004F000C760324601E0013A0CD003692340A342B1
:10050000F9D1836801F8013F013DECD1002002E000
:10051000FD2000E0FD2040B2F0BC7047A8B92DE9F5
:10052000F0410C469046002A0ADD8F18084E094D0E
:10053000306821462B6898470134BC42F8D101E06D
:100540004FF000084046BDE8F0814FF0FF307047A3
:1005500068AB002060AB00200138022818D82DE9D4
:10056000F0410E46144682B10D46DFF838800C4F3C
:10057000D8F8000015F8011B3B68984700280ADBF3
:10058000A81B013CF4D1BDE8F0810020BDE8F0815A
:100590004FF0FF3070474FF0FF30BDE8F08100BFF3
:1005A00064AB002068AB002008B51520014B9847CC
:1005B00008BD00BFE13F4000436823F4702343605F
:1005C0004368090401F470210B434360704700BF86
:1005D000436823F07F434360436843EA016141601D
:1005E000704700BF32B100EB8100036B43F00103A1
:1005F0000363704700EB8100036B23F00103036387
:10060000704700BF32B100EB8100036B43F002037F
:100610000363704700EB8100036B23F00203036365
:10062000704700BF042A0AD100EB8100036B23F05E
:1006300008030363036B43F004030363704752B979
:1006400000EB8100036B23F008030363036B23F0CB
:10065000040303637047082A05D100EB8100036B94
:1006600043F008030363704700EB81010B6B23F039
:10067000F0030B630B6B1A430A637047431E194464
:10068000B1FBF0F0431EFE2B94BF80B24FF6FF701B
:1006900000B2704700EB81010B6B23F47F430B63C7
:1006A0000B6B43EA02220A63704700BF10B400EBF1
:1006B0008101086B80B208630C6B44EA036343EA70
:1006C00002420A635DF8044B704700BF08230360D1
:1006D0002023036004230360704700BF0F4B99423F
:1006E00019D84900B2FBF1F2043AFF2A07D90023D6
:1006F00001335208FF2A03D9072BF9D100E0002368
:10070000110289B21B0403F4E0230B43D2B21A4353
:100710000261002070470120704700BF801A060068
:1007200038B504460D464FF0FF338362036A8023D9
:100730000360036B0823036020230360042303602A
:1007400049682A68054B9847012814BF00200120FA
:100750006B7A012B04BF4023236038BDDD064000C7
:100760002DE9F041CA688D68002A48D0002646600D
:100770004B681B0203F4407343F480540B7C1B044E
:1007800003F4FE0323434360C6604C685CB10B78FE
:10079000012CC4BF4E7846EA0323022C04DD89787D
:1007A00041EA032300E00023C360012A03D10323AD
:1007B000036001272FE00123036000272BE021467F
:1007C000036A13F4807F1DD14C1EF1B1012A04D1BC
:1007D00077BBC0F8008067462AE013F0020F05D00F
:1007E000036B2B70013A0135314600E02146002AA7
:1007F000E6D1036A13F0010FFBD0036A1CE04FF04F
:10080000010E19E04FF0050E16E04FF0090E13E04F
:100810004FF0050E10E0036A13F4807EF8D143F622
:10082000972443F698264FF002084FF0010CCDE7CD
:1008300013F0020FC3D0D3E77046BDE8F08100BFCC
:100840000346CA688868002A40D070B400265E60FB
:100850000C7C240404F4FE054C68240204F4407467
:100860002C435C60DE604D685DB10C78012DC4BF27
:100870004E7846EA0424022D04DD897841EA0424F6
:1008800000E00024DC600BE0196A11F4807F1FD1C6
:1008900011F0040FF8D010F8011B5963013A07D08A
:1008A000196A11F4807F15D111F0040FECD0F2E732
:1008B0001A6A12F480700FD112F0040FF8D00222DD
:1008C0001A601A6A12F0010FFBD006E0012070478F
:1008D000052002E0052000E0052070BC704700BF45
:1008E0008162036A704700BF006A7047C06A704740
:1008F00010B4AC2303600B684A68B3FBF2F31B0926
:100900005C1E4FF6FE7294420AD803628B68436005
:1009100040F20223C0F8203150230360002000E0A1
:1009200001205DF8044B7047436913F0020F1ABFB2
:10093000C161002001207047436913F0010F1DBF02
:1009400083690B7000200120704700BF436913F0DA
:10095000020F1DBFC1F30801C161002001207047D3
:10096000436913F0020FFBD0C1F30801C1610020FD
:10097000704700BF70B50C46097839B10546044E82
:100980002846B04714F8011F0029F9D170BD00BFF7
:1009900061094000436913F0010F05D08369C3F377
:1009A00008030B600020704701207047F0B585B048
:1009B0000A200F4FB847002303930E4B02931923CD
:1009C0008DF80C3004AC0C4B44F80C3D13200B4B51
:1009D00098470B4D284621460A4EB0470A20B84793
:1009E00028462146B0472846074B984705B0F0BD3A
:1009F000CD304000801A0600000E2707E13F40007E
:100A00000080014021074000CD06400030B583B092
:100A10000B20104B9847104C20464FF480210122A8
:100A20000E4B98470E4B009320460B214FF480222B
:100A300070230C4DA84720464FF480210A4B98475D
:100A40000A4B4FF400621A60002283F80B2303B0B4
:100A500030BD00BFE13F4000000E0E403D3B400076
:100A60000D444000793E4000C93B400000E100E0F9
:100A700008B5044B984701464FF07E50024B98470B
:100A800008BD00BF514640000D5A40000000000064
:100A90002DE9F04F95B00646009192460793924F8C
:100AA0003868DFF85CB2DBF80050DFF85892D9F80C
:100AB000008000F100408D4C01963146A04706466B
:100AC00028460099A0470146894D3046A84706466A
:100AD0004046CDF808A05146A04701463046A847F9
:100AE0004FF07C51A0470390DFF81082D8F8000047
:100AF000DBF80060D9F800A00199A04704903046C7
:100B00000299A04701467B4E0498B0470490504696
:100B10000099A04701460498A8474FF07C51A04790
:100B20000490D8F80000D7F800A0D9F800900099F8
:100B3000A047059050460299A04701460598A8474E
:100B4000824648460199A04701465046B0474FF0BB
:100B50007C51A0470590D8F800003F68DBF8008082
:100B60000299A047814638460099A0470146484669
:100B7000B047064640460199A04701463046A8477F
:100B80004FF07C51A0470690079800215A4B984798
:100B900058B11E980021584B984730B11F9800213A
:100BA000554B9847002840F07081504C079F3846BD
:100BB0003946A04706461E980146A04701464D4DBE
:100BC0003046A84706461F980146A04701463046D2
:100BD000A847DFF834B1D847064638463146A04723
:100BE00000901E983146A04701901F983146A047BB
:100BF0000B90424E31680846A8470C90DFF8E88019
:100C0000D8F800100846A8470D903D4F39680846AF
:100C1000A8470E90DFF8EC90D9F800100846A847D6
:100C20000F9030684FF08141A0470A90D8F800003B
:100C30004FF08141A047079038684FF08141A047AD
:100C40000890D8F800004FF08241A0471390386810
:100C50004FF08241A0471090D6F800A0336812935D
:100C6000D8F80000D8F80010A0470290386839681A
:100C7000A0470646D9F80000D9F80010A047119007
:100C80000A9809963146A04706460E980099A04753
:100C900001463046A84706460A980299A0470146F1
:100CA0003046A8470A900D980199A0470146104E7A
:100CB0000A98B0470A9050461299A0474FF08141D8
:100CC000A0471290D8F800A007981199A047804635
:100CD0000F980099A04701464046B04780461298B9
:100CE0005146A04712E000BFD4080020A55840009C
:100CF0009156400095564000CD5B40000C0000200E
:100D0000D8080020DC080020710A40000146404657
:100D1000A84780460C980199A04701464046B04735
:100D20000799B0478046DDF84CA050460299A0478D
:100D300001464046A84780465046DDF824A051466B
:100D4000A04701464046A847804607980B99A04710
:100D500001464046A847804639681298A047074692
:100D60000C980099A04701463846A84707460898BE
:100D70001199A04701463846A84707460F980199A0
:100D8000A04701463846B0470899B0470746109833
:100D90000299A04701463846A84707461098CDF863
:100DA00024A05146A04701463846A8470746089860
:100DB0000B99A04701463846A8470790D9F800701C
:100DC000D9F800A002984FF08141A0473946A047CA
:100DD00007460D980099A04701463846B047074698
:100DE00009984FF08141A0475146A0470146384637
:100DF000A84707460E980199A04701463846B047D4
:100E000007460A9B18461946A04782464046414677
:100E1000A04701465046A8478246DDF81C90484648
:100E20004946A04701465046A847824638463946BB
:100E3000A04701465046A847D8478246904B1D68B8
:100E40000A985146A04701462846A0470146039804
:100E5000B047039040465146A0472946A047014667
:100E60000498B047049048465146A0472946A047F9
:100E700001460598B047059038465146A047294697
:100E8000A04701460698B0470690DFF82092D9F8AF
:100E900000607C4C03982099A0477B4D3146A847C1
:100EA000C9F80000794E376804982099A047394660
:100EB000A8473060DFF8F8B1DBF80070059820999A
:100EC000A0473946A847CBF80000714FD7F80080FB
:100ED00006982099A0474146A8473860D9F80000F5
:100EE000D9F8001033680093D6F800A0DBF8008032
:100EF000DBF800200192D7F800E0CDF808E0D7F841
:100F000000C0CDF80CC0A047049000985146A047FF
:100F100001460498A847824640460199A0470146E9
:100F20005046A847804602980399A047014640468C
:100F3000A847584B98478046D9F800004146A0473B
:100F4000C9F8000030684146A0473060DBF8000077
:100F50004146A047CBF8000038684146A0473860BA
:100F6000D9F80000D9F80010DBF800300193D7F869
:100F700000A0D9F800200292D6F80080A0474FF0D8
:100F80007C51454B9847009039680391D7F800E0B1
:100F9000CDF810E001985146A0478246029841469C
:100FA000A047014650463C4B98470146A84780461B
:100FB00003980499A04701460098A8470146A8470E
:100FC00001464046354B9847354B9847DFF8E4A03B
:100FD00029A3D3E90023D047324B9847219B1860BF
:100FE0003068396833680193DBF80080A0470290CD
:100FF00001984146A04701460298A8470146A847E4
:10100000294B984700F10040254B98471AA3D3E994
:101010000023D047234B9847219B58603068DBF86A
:101020000010D9F80080D7F800B037683668A047BC
:10103000814640465946A04701464846164B9847C8
:101040000146A847804638463146A04701460098E9
:10105000A8470146A84701464046104B9847104B09
:10106000984705A3D3E90023D0470E4B9847219B0F
:10107000986015B0BDE8F08FF8C1631ADCA54C404C
:1010800010000020A558400095564000D4080020CC
:10109000DC080020710A4000915640004D46400097
:1010A0008D504000E9554000AD4540000C00002047
:1010B000D80800203551400030B583B001900D466E
:1010C00001204C4B98474C4C122021464B4B9847E3
:1010D000237813F0200F09D012202021484B984785
:1010E0005720484B984764232B8071E013F0400F42
:1010F0006AD063232B8012204021414B9847572010
:10110000414B9847414B9847414BC3E90001414B44
:101110009B7AEBB1404BD97B59730D20384B9847E4
:101120003C4B5B7A43B13C4B93F822103B4B19800C
:101130003B483C4B984738E03B4C132021462F4B13
:1011400098472178354B19803548364B98472CE025
:1011500010203649294B98472E4B5B7A8BB12E4C89
:1011600094F822102D4B1980237C591AC9B261734F
:101170000D20234B98472A4894F82210294B984772
:1011800013E0294C132021461C4B984714F81319DF
:10119000224B1980237C591AC9B261730D20184B58
:1011A00098471F48E17C1F4B98471C4BB3F9003010
:1011B0001B4A134400225A70019C154BD3E90001CD
:1011C0001B4B9847208003E01220FF210C4B9847CF
:1011D00002A951F8043D0122A3F86A20CB22A3F80A
:1011E0006820144B186841F288320023124CA04743
:1011F00003B030BD451A40007EAB002039194000D5
:10120000D5184000D93B4000F13B4000991B4000FD
:10121000E0080020140000206CAB0020E80800204B
:10122000EC0800205D1940007FAB00207CAB002063
:1012300059554000F4AB00208927400070B51220BA
:10124000FF21164EB047164C9F2161741120B04704
:10125000002584F8245024202946B04784F83F50C4
:1012600084F84050402004F13F0102220D4B984782
:101270000D4D287E21460D4B9847AB7A1BB10620B9
:101280000B4B984770BD064BD97B59730D20034B10
:1012900098470520064B984770BD00BFD518400001
:1012A0006CAB00208D18400014000020F5174000A2
:1012B000451A40002DE9F84381460F460120DFF82A
:1012C0006C80C047154CF7236374002584F82450C4
:1012D00024202946124EB0471120617CB04784F883
:1012E000227022203946B047A5730E202946B04708
:1012F000A17B61730D20B04748463946094B98479A
:10130000402084F83F0084F8405004F13F0102225D
:10131000054B98470320C047BDE8F8836CAB00201D
:10132000D5184000491940008D184000451A40006A
:1013300080B108B5012805D112208021074B9847BC
:10134000072008BD022807D112202021034B98470F
:101350000A2008BD06207047662008BDD518400049
:1013600010B59CB00023ADF80230B0F96A30013BF3
:101370000A2B5ED8DFE803F0155D184A5D5D2C5D31
:101380005D3B06000123ADF86E30CB23ADF86C3029
:10139000294B186801A940F6B8320023274CA04712
:1013A00047E0274B984744E001A80DF10201254B87
:1013B00098470123ADF86E30CB23ADF86C301E4B4F
:1013C000186801A942F2107200231C4CA04730E0BB
:1013D000CB23ADF86C300123ADF86E30164B186896
:1013E00001A942F210720023144CA04721E0CB2344
:1013F000ADF86C300123ADF86E300F4B186801A9C1
:1014000042F2107200230D4CA04712E002300E4B46
:10141000197E0E4B98470E4B18680E4B98471220BA
:1014200008210D4CA04701200C4B984712200821A1
:10143000A0471CB010BD00BFF4AB002089274000BE
:101440003D124000B910400014000020B5124000C9
:10145000F0AB002045324000D5184000451A40004E
:1014600070B59CB02B4B98472B4B984742F27C10A1
:101470002A4B98472A4B98472A4B984701222A4BD8
:101480001A70BFF35F8F62B6CB23ADF86C300423C4
:10149000ADF86E30AA238DF80630AB238DF80730F7
:1014A000AD238DF80830AE238DF80930AF238DF8C9
:1014B0000B301E4D1E4C1F4E286801A94FF0FF3205
:1014C0000023A0470128F7D1BDF86C301AB2CA2A10
:1014D0001AD1BDF86E301AB2C92A07D11220FF21E5
:1014E000154B98470020154B9847E5E71BB2C82BD2
:1014F000E2D1084B9847084B984742F27C10074BC3
:101500009847074B9847D7E71BB2CB2BD4D101A8FC
:10151000B047D1E7512340005D1C4000010000208E
:10152000712340000D0A40003C000020F4AB002075
:101530003929400061134000D5184000451A400089
:1015400070B504460D4609200144224EB0474D2097
:1015500005F14C01B0476A7A12F0800F25D095F85A
:101560004C3003F08703872B0FD1052CB8BF05241F
:10157000142CA8BF1424053C04F00F0442F07002A0
:1015800022F00F0214436C721EE0022CB8BF02243A
:10159000112CA8BF1124023C04F00F0442F0700289
:1015A00022F00F0214436C720EE044EAE4735BB263
:1015B0000E2BA8BF0E23013303F00F0342F070027D
:1015C00022F00F0213436B720920697A024B98478D
:1015D00070BD00BF39194000D518400038B5054628
:1015E0000C4609200144054B9847617A01F07F01C0
:1015F000294361720920024B984738BD39194000D0
:10160000D518400070B506460C464D204C310B4DA8
:10161000A84709202118A84794F90930002B04DABB
:1016200036B1872384F84C3002E0842384F84C30B0
:101630004D2094F84C10024B984770BD391940006A
:10164000D51840000000000038B50C460C4B9847F8
:1016500009A3D3E900230B4DA8470B4B9847030C74
:10166000A371030AE3712072062021180322074B9D
:10167000984738BDAFF300800000000080844E40E2
:101680004950400089534000A95540008D18400042
:1016900038B505460C4631203031064B984794F852
:1016A000301021F00701294384F830103120024B1B
:1016B000984738BD39194000D518400038B505465F
:1016C0000C460C2809D8052801D9062806D1052082
:1016D00021460C4B9847062504E00C2503202146A3
:1016E000084B98471E202118074B9847A17F01F00F
:1016F0000F0141EA0511C9B2A1771E20034B98479B
:1017000038BD00BF9116400039194000D51840007F
:1017100038B505460C461D200144064B9847617FAD
:1017200021F00E0141EA4501C9B261771D20024B4B
:10173000984738BD39194000D518400038B50546DE
:101740000C461E200144064B9847A17F21F004015E
:1017500041EA8501C9B2A1771E20024B984738BDE6
:1017600039194000D518400038B505460C461D20F3
:101770000144064B9847617F01F00F0141EA0511D2
:10178000C9B261771D20024B984738BD3919400016
:10179000D518400038B505460C461D200144054BC0
:1017A0009847617F21F00101294361771D20024B99
:1017B000984738BD39194000D518400070B5064625
:1017C0000C4601F11E051E2029460222074B9847B0
:1017D000C6F30122A37F23F003031343A377E67725
:1017E0001E2029460222024B984770BDF118400086
:1017F0008D18400008B5034681F8220022201946C2
:10180000014B984708BD00BFD518400038B50546C4
:101810000C4626200144074B984794F8261021F0E7
:10182000080141EAC501C9B284F826102620024BFE
:10183000984738BD39194000D518400070B5104C94
:101840004FF400232361C4F8A03023634FF4000356
:101850002361C4F8A03023630A4E0C2031460A4DA0
:10186000A8470D203146A8470E203146A8470B2037
:101870004FF00061A8474FF40063236370BD00BFC1
:10188000000E0E4001000008113C40002DE9F0411F
:101890000546884617460A4C0A4E204631460A4BF2
:1018A000984745F08005E560204641463A46074B9B
:1018B000984720463146064B9847BDE8F08100BF67
:1018C0000080004050090020450440009104400081
:1018D0007104400000B583B002AB03F8011D194646
:1018E0000122024B984703B05DF804FB8D184000BD
:1018F0002DE9F0410546884617460A4C0A4E204617
:1019000031460A4B984705F07F05E5602046414681
:101910003A46074B984720463146064B9847BDE864
:10192000F08100BF008000405009002045044000C5
:10193000C90440007104400008B50122014B9847DA
:1019400008BD00BFF118400008B503460A46002054
:101950001946014B984708BD8D18400008B503464D
:101960000A4600201946014B984708BDF11840006F
:1019700020B14FF40022044B1A6370474FF4002249
:10198000014B5A63704700BF000E0E4010B5294B43
:101990005B79082B0FD8284C31202146274B9847DC
:1019A000234613F8301901F07F0183F830103120FD
:1019B000234B984714E0204C312021461F4B984779
:1019C000234613F8301941F0800183F8301031209C
:1019D0001B4CA04736200221A0473A206421A04793
:1019E000144B5B791BB92F204821154B9847114B9D
:1019F0005B79052B03D82F204421114B98470D4BC1
:101A00005B79063BDBB2022B03D82F2040210C4B25
:101A10009847094C30202146084B9847234613F835
:101A2000301901F0FE0183F830103020044B984744
:101A300010BD00BF140000209CAB002039194000ED
:101A4000D518400038B50446032814BF00200120F3
:101A50000B4B9847E4B20B4D6B7823F007032343FD
:101A6000294601F8013F0120074B9847697821F08A
:101A70000701214369700120044B984738BD00BF1E
:101A8000711940006CAB002039194000D518400096
:101A900038B501202E4B98472E4B98472E4C0120ED
:101AA00021466F222D4B98472D4D286821462D4BFE
:101AB0009847A87921462C4B9847E87921462B4B2B
:101AC0009847287A21462A4B984768792146294B1E
:101AD0009847687A2146284B984740F2FF302146C4
:101AE000264B9847287E2146254B9847AB790A2BF1
:101AF00087BF0120214600201749224B9847184BE9
:101B00001A68214B9A420FD9134C802021461F4B53
:101B10009847012021461E4B98471420104B1871FE
:101B200021461C4B98470EE00B4C00202146174BDA
:101B3000984700202146164B98470E20084B1871F5
:101B40002146144B98470120014B984738BD00BFF0
:101B5000451A40008D1940006CAB0020F118400080
:101B60001400002049164000BD1640001117400027
:101B70003D1740006917400095174000BD17400011
:101B8000F51740000D184000008F4233DD1540006E
:101B9000051640004115400038B5094D1B20294667
:101BA000084B9847084B5C79084B03EBC404287832
:101BB000074B9847D4E90023064CA04738BD00BF27
:101BC00087AB00203919400014000020606D4000F0
:101BD00049504000D14D400070B50B4C4FF400050A
:101BE0006561C4F8A0500948094EB0472561C4F8A2
:101BF000A050656344F2F720B0476561C4F8A05077
:101C00004CF6E500B04770BD000E0E40D34E01000B
:101C10000100002038B500200C4DA8470C4C61781D
:101C200021F0080141F0800161700120094B9847C3
:101C30000120A847002384F83F3084F8403040203A
:101C400004F13F010222044B984738BD451A400079
:101C50006CAB0020D51840008D18400030B583B023
:101C60000B4C20460B4B98470022009220460A4915
:101C70000A4B0B4DA847012323600A4B98470A4B98
:101C800098470A4B98470A4B984703B030BD00BFAE
:101C900000800040750340005009002090D00300F0
:101CA000C90340003D184000D91B4000151C4000EE
:101CB000911A400070B582B00D4614461E46084683
:101CC0000DF1070101220E4B9847A11B01310122A2
:101CD00002FA06F3013B8B409DF8180000FA01F16F
:101CE000C9B29DF8070020EA03000B4003438DF8BA
:101CF000073028460DF10701024B984702B070BD2E
:101D0000111F4000C51E400010B582B00090682031
:101D10006B2102220323024CA04702B010BD00BF7A
:101D2000B51C400010B582B0009068201B21042231
:101D30000223024CA04702B010BD00BFB51C4000FA
:101D400010B582B0009068201C2104220223024CAE
:101D5000A04702B010BD00BFB51C400030B583B035
:101D600014461D4608460DF107010122074B98470E
:101D7000621B01320123AB40013B93409DF80710E9
:101D80000B401341069A137003B030BD111F400081
:101D900010B584B00DF10F03009368207521062261
:101DA0001346034CA0479DF80F0004B010BD00BFC0
:101DB0005D1D400008B5034B9847342814BF002030
:101DC000012008BD911D4000F0B583B0314F384669
:101DD000314EB04702AC802304F8083D6B20214609
:101DE00001222E4DA8473846B04700238DF8003019
:101DF0006B2021460122A847294CA0470028FCD08F
:101E0000002602AC04F8086D6B2021460122234D08
:101E1000A8470120234B98478DF800606B2021468E
:101E20000122A8478DF80060382021460122A847EA
:101E3000232021460122A8476B2021460122A847E2
:101E4000242021460122A8476A2021460122A847D2
:101E50000C238DF800306A2021460122A847032771
:101E60008DF800701A2021460122A8478DF80060E5
:101E7000192021460122A84738460B4B98470120DC
:101E80000A4B984701228DF8002038202146A847A8
:101E900003B0F0BD37140D0001000020C51E400046
:101EA000B51D4000091D4000251D4000411D40009A
:101EB00008B501463B200E22014B984708BD00BFE4
:101EC000111F400070B586B006460D4614460C4BF7
:101ED00098470023019305938DF804600123029332
:101EE0000395049468238DF81430064D064C28465B
:101EF00001A9A0470028FAD1044B984706B070BD4D
:101F000051234000008001404108400071234000FF
:101F100070B586B006460D4614460B4B9847002315
:101F2000019305938DF804600123029303950494B3
:101F300068238DF81430054801A9054B9847054BD7
:101F4000984706B070BD00BF51234000008001409B
:101F5000610740007123400010B5094C2046094933
:101F6000094B9847094B1868214601220023084C69
:101F7000A0474FF48052074BC3F8802110BD00BF2B
:101F8000DCAB002060090020B11E4000F8AB00204F
:101F9000A928400000E100E030B583B00C200C4BD4
:101FA00098470C4C0C4B009320460C2101227023C7
:101FB0000A4DA84720460121094B9847094B4FF489
:101FC00080521A60202283F80C2303B030BD00BF7A
:101FD000E13F400000100E40591F4000793E400094
:101FE000C93B400000E100E02DE9F04FA9B000221C
:101FF000774B1A60774B9847774B9847774B9847C2
:10200000774B9847774B9847774B4FF6D1721A80AA
:102010004FF6F9725A8011229A80DFF818B2734B8A
:10202000186824A94FF0FF320023714CA047012803
:1020300040F086806F4B4FF400321A636A4B1A8867
:10204000B3F802A01FFA8AFA988883B204939DF825
:1020500098009DF8993043EA0023981A664C00B224
:10206000A047DFF8D4916549C847DFF8D081C04761
:10207000634F55A3D3E90023B847624E0022624B59
:10208000B047624DA84705909DF89A009DF89B3097
:1020900043EA0020CAEB000000B2A0475749C847F6
:1020A000C04749A3D3E90023B8470022564BB047A5
:1020B000A84782469DF89C009DF89D3043EA002089
:1020C000049BC01A00B2A0474C49C847C0473EA372
:1020D000D3E90023B84700224B4BB047A847064638
:1020E0009DF890009DF8913043EA002000B2A0478F
:1020F00005469DF892009DF8933043EA002000B217
:10210000A04700909DF894009DF8953043EA002088
:1021100000B2A04701903E4B029306AB0393059893
:10212000514632462B463B4CA047294B079A1A6032
:10213000069A5A60089A9A602E4B4FF400325A63FE
:10214000354B1868DFF8F0805946C047334FB84721
:1021500086B2334B18685946C047B84785B2314BF1
:1021600018685946C047B84784B22F4B186859467B
:10217000C047B84780B28DF8266046F307268DF831
:1021800027608DF8285045F307258DF829508DF8E4
:102190002A4044F307248DF82B408DF82C0040F39F
:1021A00007208DF82D000423ADF88E30CB23ADF839
:1021B0008C301E4B186809A9012200231C4CA04733
:1021C0002DE700BFAFF30080182D4454FB210940D8
:1021D0005409002051234000AD094000C91D4000B2
:1021E00071234000991F400060090020F8AB0020D7
:1021F00039294000000E0E40FD574000FEFF793D9A
:10220000355140008953400000806640E955400048
:102210006F12833A910A40000C000020315C4000AC
:10222000D4080020D8080020DC080020F4AB0020EF
:102230008927400000007A44A55840008D50400096
:1022400000F1080343604FF0FF328260C360036116
:1022500000230360704700BF00230361704700BF85
:1022600043685A684A6042688A605A689160596057
:1022700041600861036801330360704710B40C6863
:10228000B4F1FF3F01D103690AE000F10803C2681D
:102290001268944204D35B685A6812689442FAD276
:1022A0005A684A6091608B60596008610368013325
:1022B00003605DF8044B7047436882689A608368E6
:1022C00042685A6003695A68824204BF82685A6051
:1022D000002202611A68013A1A601868704700BF4C
:1022E00003480068006880F3088862B600DF00BF1A
:1022F00008ED00E04FF0807340F8043C40F8081C03
:10230000002340F80C3C40F8202C4038704700BFB8
:10231000064B19680868B0E8F00F80F309884FF0A1
:10232000000080F311884EF00D0E704728AA00209F
:102330004FF08052014B1A60704700BF04ED00E07F
:10234000EFF311804FF0A00181F311887047002056
:1023500008B5034B9847034A13680133136008BD5F
:10236000412340003000002080F31188704700BFF7
:1023700008B5044A1368013B136013B90020024BEF
:10238000984708BD3000002069234000EFF3098022
:102390000C4B1A6820E9F00F10602DE908404FF04F
:1023A000A00080F3118800F0FBFE4FF0000080F3E6
:1023B0001188BDE8084019680868B0E8F00F80F39C
:1023C0000988704728AA002008B54FF08052054BB5
:1023D0001A60054B9847054B98470020044B9847D7
:1023E00008BD00BF04ED00E041234000A92E4000DD
:1023F00069234000034A044B1A600722043B1A6019
:10240000704700BFBFD4010014E000E010B5094BD5
:102410001A6842F470021A601A6842F070421A6038
:10242000054B98470024054B1C60054B98472046F8
:1024300010BD00BF20ED00E0F5234000300000207B
:10244000E1224000134A00E01A4613688342FBD39E
:1024500030B4114654681519854203D168680444A4
:1024600054601046426884189C420CD10A4B1B6889
:102470009C4206D063681A4442600B681B68036084
:1024800002E0046000E00360814218BF086030BCD5
:10249000704700BF6CA9002068A9002038B5044629
:1024A000294B9847294B1B689BB9294A294B136034
:1024B0000021516049F6F0729818244D286049F6C1
:1024C000F475595199505A601860234A1368103BAB
:1024D0001360002C2ED004F1100212F0070F1CBF65
:1024E00022F007020832511E49F6FE73994223D8A2
:1024F00017490C6801E021461C4663689A4202D9DC
:102500002368002BF7D1114B1B689C4216D00D6835
:10251000103523680B6063689B1A202B04D9A01820
:10252000436062600D4B98470B4A136861685B1A01
:10253000136004E0002502E0002500E00025084BC0
:102540009847284638BD00BF792E400068A9002072
:102550006CA90020680900203400002045244000B8
:10256000C92F400080B110B50446084B9847084A6F
:10257000116854F80C3C0B441360A4F11000054B97
:102580009847054B984710BD704700BF792E400013
:102590003400002045244000C92F400010B50446F7
:1025A000036C3BB903681BBB4068134B984700237F
:1025B00063601DE06AB980681A46104B9847A268AC
:1025C000236C1344A3606268934211D32368A36011
:1025D0000EE0C0681A46094B9847236C5B42E268DC
:1025E0001A44E26021688A4202D262681344E360BE
:1025F000A36B0133A36310BD9D354000D95C40003F
:1026000038B50346006858B11A6CDC681444DC60C5
:102610005D68AC4228BFD8600846D968014B98472E
:1026200038BD00BFD95C4000F8B504461E4B984742
:10263000A36C002B13DD636A1BB910E0636A23B936
:102640000DE004F12406194D194F3046A84700B19A
:10265000B847A36C013BA364A36C002BEEDC4FF0E6
:10266000FF33A364134B98470F4B9847636C002BC1
:1026700013DD23691BB910E0236923B90DE004F1D0
:1026800010060A4D0A4F3046A84700B1B847636CA0
:10269000013B6364636C002BEEDC4FF0FF3363643B
:1026A000044B9847F8BD00BF51234000B5334000AC
:1026B000E53440007123400038B518B9174B9847EE
:1026C00000BFFDE70D460446154B98472268216C74
:1026D000E36B03FB01F3D01860600020A063A260ED
:1026E0005B1A1344E3604FF0FF336364A36455B98E
:1026F00023697BB104F110000A4B9847012809D1E6
:10270000094B984706E004F11000084DA84704F172
:102710002400A847064B9847012038BD41234000BC
:1027200051234000B5334000312340004122400096
:102730007123400070B598B10D4606464C200E4BF3
:102740009847044660B105FB06F001300A4B9847F4
:10275000206040B92046094B984701E000BFFDE7E3
:10276000074B9847FAE7E663256420460121054BAD
:102770009847204670BD00BF9D244000652540005D
:1027800041234000B92640002DE9F04F85B0019269
:10279000009318B9384B984700BFFDE78A460446B6
:1027A00029B9036C2BB1344B984700BFFDE70027D4
:1027B00000E00027314EDFF8ECB0314DB047A26B9E
:1027C000E36B9A4212D220465146009A2D4B98470D
:1027D000636A3BB104F124002B4B9847012801D1D7
:1027E0002A4B9847264B9847012042E0019B1BB992
:1027F000234B984700203CE017B902A8D84701278F
:10280000A847234B9847B047636CB3F1FF3F04BF21
:1028100000236364A36CB3F1FF3F04BF0023A364F0
:10282000A84702A801A91B4B9847E0B9B047D4F8C4
:102830003890D4F83C80A847C1450ED104F110006F
:102840000199154B98472046144B9847144B9847CD
:102850000028B3D10D4B9847B0E720460F4B98475F
:102860000F4B9847AAE720460C4B98470C4B9847CC
:10287000002005B0BDE8F08F412340005123400007
:10288000712340009D254000B533400031234000B6
:10289000792E400061344000113340002926400069
:1028A000C92F4000393440002DE9F04118B91E4BC2
:1028B000984700BFFDE70E4615469846044629B9DD
:1028C000036C1BB1184B984700BFFDE7164B9847A8
:1028D0000746A26BE36B9A4218D220463146424625
:1028E000124B9847A36CB3F1FF3F0AD1636A7BB1E7
:1028F00004F124000E4B984760B16DB101242C60A7
:102900000BE0A36C0133A364012406E0002404E07F
:10291000012402E0012400E001243846054B9847D9
:102920002046BDE8F08100BF412340009D254000C6
:10293000B5334000692340002DE9F04F85B0019286
:1029400018B9464B984700BFFDE789469A460446AA
:1029500029B9036C2BB1414B984700BFFDE7002715
:1029600000E000273E4EDFF828B13E4DB047A36B94
:1029700043B3E568204649463B4B9847BAF1000F00
:1029800012D1A36B013BA363236813B9374B98475C
:102990006060236993B104F11000354B984701281A
:1029A0000CD1344B984709E0E560636A33B104F118
:1029B00024002F4B984708B12E4B9847294B984736
:1029C000012048E0019B1BB9264B9847002042E0BC
:1029D00017B902A8D8470127A847274B9847B047FF
:1029E000636CB3F1FF3F04BF00236364A36CB3F1D6
:1029F000FF3F04BF0023A364A84702A801A91F4BFF
:102A0000984710BBB047D4F83880A847B8F1000FFA
:102A100015D1236823B9B0476068194B9847A84778
:102A200004F124000199174B98472046164B98470C
:102A3000164B9847002899D10E4B984796E72046A9
:102A4000114B9847114B984790E720460E4B9847FB
:102A50000E4B9847002005B0BDE8F08F41234000A1
:102A6000512340007123400001264000F134400012
:102A7000B533400031234000792E400061344000DE
:102A80001D3540001133400029264000C92F400069
:102A90003934400038B504460D460D4B9847636CF9
:102AA000B3F1FF3F04BF00236364A36CB3F1FF3FA6
:102AB00004BF0023A364074B9847A36B23B904F119
:102AC00024002946044B98472046044B984738BDBC
:102AD00051234000712340007133400029264000FB
:102AE00010B504460E4B1B6858600E4B1B6898428D
:102AF00007D20D4B18680A4B196804310B4B9847E5
:102B000010BD0B4B1868064B19680431074B9847EA
:102B1000084B1B689C423CBF064B1C6010BD00BFAD
:102B200028AA002044AA002048AA00207D224000B4
:102B30008CA90020380000202DE9F04F83B00C9FB5
:102B4000DDF834800E9E019018B9614B984700BFA4
:102B5000FDE7894615469B46042F03D95C4B9847F1
:102B600000BFFDE744205B4B98470446002800F077
:102B7000AA80002E40F0A480A800564B98472063FE
:102B800018B92046544B98479DE0A521AA00534B05
:102B9000984705F18045013D236B03EB850323F046
:102BA000070504F1340049460C224D4B9847002399
:102BB00084F83F303E46042F28BF0426E662266490
:102BC00004F104094846DFF868A1D04704F1180071
:102BD000D0472461C6F10506A661646228460199C2
:102BE0005A46404B9847206010F0070F03D0384BEF
:102BF000984700BFFDE7B8F1000F01D0C8F80040CA
:102C0000394B9847394A136801331360384B1B68B6
:102C10000BBB374B1C601368012B26D1354D05F1DA
:102C20006408354E2846B04714354545FAD1DFF8DB
:102C300004814046304DA847304E3046A8473048C2
:102C4000A8473048A8473048A847304BC3F8008011
:102C50002F4B1E6009E02F4B1B6833B9244B1B68B8
:102C6000DB6A9F4224BF224B1C60E06A2A4B1B6830
:102C7000984284BF284B1860284A136801331360B8
:102C8000274B1B68984284BF254B186000EB8000DF
:102C9000184B03EB80004946224B9847224B98473C
:102CA0001C4B1B6843B1124B1B68DB6A9F4205D962
:102CB0001E4B9847012008E0012006E0012004E0B7
:102CC0000663304661E74FF0FF3003B0BDE8F08F98
:102CD000412340009D244000652540000D5E4000DA
:102CE000B15F4000F5224000512340006CAA002053
:102CF00028AA0020C0A9002041224000ACA9002041
:102D00002CAA002098A9002078A900208CA90020D6
:102D100048AA002090A9002070AA002050AA0020F4
:102D20004CAA002061224000712340003123400062
:102D30005922400054AA002008B518B9094B9847F9
:102D400000BFFDE74169084A914207D1806A074BFD
:102D5000984205D0B0FA80F0400908BD002008BDB7
:102D6000002008BD4123400078A900202CAA0020A3
:102D7000F8B518B91C4B984700BFFDE705461A4B3C
:102D8000984707462846194B9847012825D1184BE4
:102D90001B68DBB9174B1B68EC6ADB6A9C4234BFCB
:102DA000002401242E1D3046134B9847E86A134B2C
:102DB0001B68984284BF114B186000EB8000104BD9
:102DC00003EB800031460F4B984707E00E4805F1B2
:102DD00018010C4B9847002400E0002438460B4BA8
:102DE00098472046F8BD00BF41234000392D4000E0
:102DF00024AA002028AA0020B92240004CAA0020C2
:102E0000C0A90020612240002CAA002069234000B4
:102E100010B584B0002300930193029303930E48EE
:102E20000E49C8220E4CA04701280ED10D4B9847E1
:102E300001280AD10C4B984701220C4B1A60002242
:102E40000B4B1A600B4B984704E018B9064B984798
:102E500000BFFDE704B010BD15314000B06D40006B
:102E6000392B4000953640004123400090A90020B6
:102E700044AA00200D244000024A13680133136065
:102E8000704700BF24AA002010B5044B9847044B9C
:102E90001C68044B9847204610BD00BF51234000DA
:102EA00044AA0020712340002DE9F0413A4B1B68F1
:102EB000002B6BD1394B1A6801321A601B6803BBB7
:102EC000374B1B681B681BB1364B984700BFFDE7AB
:102ED000334B1968344A10681860116033490A6826
:102EE00001320A601B681B6823B94FF0FF32304B78
:102EF0001A6006E02A4B1B68DB68DB685A682C4BBB
:102F00001A60264B1A682A4B1B689A4242D3244BFC
:102F10001B681B686BB1224B1B68DB68DC6863684D
:102F20001E4A1268934213D8224E234FDFF8948032
:102F300012E04FF0FF321E4B1A60BDE8F081184BD3
:102F40001B68DB68DC686368144A1268934203D923
:102F5000174A1360BDE8F081251D2846B047A36AD3
:102F600013B104F11800B047E06A3B68984288BF8B
:102F7000386000EB800008EB800029460F4B984733
:102F8000074B1B681B68002BD9D1D2E70C4A13688A
:102F900001331360BDE8F08124AA002044AA002078
:102FA0008CA900204123400048AA002040AA00200C
:102FB00038000020B92240004CAA002061224000C5
:102FC00074A90020C0A900202DE9F843304B1B68EC
:102FD0001BB9304B984700BFFDE72F4B98472C4B50
:102FE0001A68013A1A601B68002B49D12B4B1B68E9
:102FF00003BB002447E0D8F80C30DC6804F118006B
:10300000B84704F104094846B847E06A3368984273
:1030100088BF306000EB8000214B03EB8000494605
:10302000204B9847204B1B68E26ADB6A9A4228BF14
:10303000012504E00025DFF890801C4F1C4ED8F8D5
:103040000030002BD7D11B4B1B6863B1194B1B6899
:103050007BB1194D174CA8472368013B23602368B7
:10306000002BF8D105E0012D03D0144B1B68012B78
:1030700008D10022114B1A60114B9847012402E03D
:10308000002400E000240F4B98472046BDE8F88359
:1030900024AA002041234000512340006CAA0020B4
:1030A000C0A900206122400028AA0020B9224000C7
:1030B0004CAA002074A90020A92E400068AA002074
:1030C00031234000712340002CAA002010B580B1AC
:1030D0000446094B9847094B1B681C44084B186869
:1030E0000430084B98472046074B9847074B9847B2
:1030F00008B9074B984710BD792E400044AA00201C
:1031000028AA0020B9224000E12A4000C92F40002F
:103110003123400080B5164DDFF87C80154E164FE8
:1031200019E0C0473468B847ACB1144B9847F3680E
:10313000DC68201D124B9847124A1368013B13604C
:103140002B68013B2B60104B9847206BDFF84C90AD
:10315000C8472046C8472B68002BE2D10B4B1B68A1
:10316000012B01D90A4B98470A4B9847F3E700BF58
:1031700094A9002098A90020C92F400051234000A5
:10318000B92240006CAA002071234000C0A9002091
:1031900031234000A5454000792E400065254000C0
:1031A00010B5224B1B686BB9214B1B6803EB8303E3
:1031B0009B00204AD358CBB91D4B1B6843B11C4A16
:1031C0001C4909E001221C4B1A6010BD13681BB991
:1031D0001A4B984700BFFDE71368013B1360136863
:1031E00003EB830351F82330002BEFD0104B1B6807
:1031F000104A9900C81802EB800044686468446073
:1032000002460832944206D1606803EB8301094A02
:1032100002EB8102506003EB8303064A02EB830357
:103220005B68DA68064B1A6010BD00BF24AA002054
:103230004CAA0020C0A9002068AA00204123400019
:1032400028AA002038B50446274B9847274B1B680F
:103250009C4200D01CBB254B1C68251D2846244BD6
:103260009847A36A002B33D120E0224B1B6813B18F
:10327000214B984738BD214B1A68214B1B689A4255
:1032800003D10022194B1A6038BD1E4B984738BD38
:103290001A4829461C4B98471C4B984738BD251D9A
:1032A0002846134B9847A36A3BB9F1E713482946D0
:1032B000154B9847154B9847D7E704F118000C4B6E
:1032C00098470E482946104B9847104B984738BDF1
:1032D00004F11800064B9847084829460A4B9847BE
:1032E0000A4B9847C1E700BF5123400028AA00209D
:1032F000B922400090A900203123400078A9002085
:103300006CAA0020A13140006122400071234000DE
:1033100038B518B90E4B984700BFFDE70C460D4D68
:10332000296818310C4B9847286804300B4B984794
:10333000B4F1FF3F05D1296809480431094B98478A
:1033400038BD094B18682044084B984738BD00BF6A
:103350004123400028AA00207D224000B9224000DD
:1033600078A900206122400044AA0020E12A400000
:1033700038B518B9094B984700BFFDE70D46084C12
:1033800021681831074B984720680430064B98474E
:10339000064B18682844064B984738BD4123400027
:1033A00028AA002061224000B922400044AA00203F
:1033B000E12A400038B5C368DC681CB9164B984751
:1033C00000BFFDE704F118052846144B9847144B3D
:1033D0001B689BB9251D2846104B9847E06A114B86
:1033E0001B68984284BF0F4B186000EB80000E4BA7
:1033F00003EB800029460D4B984703E00C48294613
:103400000A4B98470B4B1B68E06ADB6A984234BF53
:103410000020012038BD00BF41234000B9224000F8
:1034200024AA00204CAA0020C0A90020612240004C
:103430002CAA002028AA002008B518B9054B9847E7
:1034400000BFFDE7044A12680260044A1268426045
:1034500008BD00BF4123400040AA002044AA00202C
:1034600038B518B9194B984700BFFDE70D4604461B
:1034700019B9164B984700BFFDE7154B98472B68C5
:10348000B3F1FF3F18D0134A12682168914204D06B
:10349000114A12686168914210D90F4A1168606838
:1034A000091A8B420CD91268121A9B1A2B602046FB
:1034B0000A4B9847002404E0002402E0012400E0C5
:1034C0000124074B9847204638BD00BF41234000E8
:1034D0005123400040AA002044AA00203934400073
:1034E000712340000122014B1A60704768AA002036
:1034F000014B1868704700BF28AA0020054B1B68C5
:1035000033B1054B1B68002B0CBF01200220704714
:103510000020704790A9002024AA0020002831D064
:1035200038B5C36A18490968C96A8B4229D2164955
:103530000968C96AC1F10501816103EB830313497D
:1035400001EB83034169994217D10546041D2046CA
:103550000F4B98470C4B1B68D86AE8620D4B1B68F1
:10356000984284BF0B4B186000EB8000074B03EBC5
:1035700080002146084B984738BD034B1B68DB6A27
:10358000C36238BD704700BF28AA0020C0A9002030
:10359000B92240004CAA002061224000E8B138B5B1
:1035A000C16A026C914217D00446051D28460B4B98
:1035B0009847206CE062C0F10503A361084B1B68CB
:1035C000984284BF064B186000EB8000054B03EB6C
:1035D00080002946044B984738BD7047B922400007
:1035E0004CAA0020C0A900206122400010B504466A
:1035F0004160206191420AD8D21A83699A4211D25D
:103600000A4B1868211D0A4B9847002010BD9A42AA
:1036100001D2994208D2074B1868211D044B9847E4
:10362000002010BD012010BD012010BDA8AA00205F
:103630007D22400074AA002070B50D4B98470D4BB9
:103640001B688BB90C4D28460C4EB0470C4C2046DD
:10365000B0470C4B1D600C4B1C6002200C2100225B
:103660000A4B9847034B1860094B984770BD00BF41
:1036700051234000A4AA002078AA00204122400043
:103680008CAA002074AA0020A8AA00203527400098
:103690007123400010B584B00B4B98470B4B1B684F
:1036A00063B104230093002301930293039308481A
:1036B00008494FF4C872084CA04718B9074B9847FF
:1036C00000BFFDE704B010BD39364000A4AA0020B9
:1036D00039384000B86D4000392B4000412340008C
:1036E0002DE9F04119B90E4B984700BFFDE7804620
:1036F00016461D460F4628200A4B9847044658B1E7
:10370000094B9847C4F80080A761E6612562069BD3
:103710006362201D054B98472046BDE8F08100BF3D
:10372000412340009D24400039364000592240008A
:1037300030B585B00F4C2568C5B101910292039058
:103740006BB90D4B984701280A4B186801A907BFB0
:10375000089A002300221346084CA04707E0284699
:1037600001A91A460023064CA04700E0002005B03E
:1037700030BD00BFA4AA0020FD34400089274000CE
:10378000A92840002DE9F04782B08146224B984796
:103790008046224B1B68984234D224E0DA68D2F883
:1037A00000A0DB68DC68251D2846B847636A204610
:1037B0009847E369012B18D1A3695344534506D9AF
:1037C0006360246130682946154B98470DE000235B
:1037D0000093204619465246124CA04728B9124B76
:1037E000984700BFFDE7114E114F33681A68002A51
:1037F000D4D1104A10680D49086013600123C9F83C
:10380000003002E00023C9F80030044BC3F8008008
:10381000404602B0BDE8F087892E4000A0AA0020F3
:103820007D224000313740004123400074AA00202F
:10383000B9224000A8AA00202DE9F04387B04D4DE1
:10384000DFF860814C4B1B681A68002A00F0878003
:10385000DB681E68494B984703A8494B98470746C1
:10386000039B002B30D1864224D8464B9847424BCD
:103870001B68DB68DC68201DC047E369012B14D19D
:10388000A169204631443A4633463F4FB8470128A4
:103890000BD1002300932046194632463B4EB047D9
:1038A00018B93B4B984700BFFDE7636A204698472D
:1038B0000CE000262868F11B364B9847314B98479F
:1038C00020B9354B984701E02E4B984702A82C4B66
:1038D00098470746314EDFF8B09038E0059C1CB1A0
:1038E00063690BB1201DC047039B022B1FD0032B24
:1038F0002AD0002B2BD1049BA169204619443A46BB
:10390000C847012823D1636A20469847E369012B01
:103910001DD1A2690023009320461946049C22442D
:103920001A4CA04798B91A4B984700BFFDE7049975
:10393000A16119B9164B984700BFFDE720463944ED
:103940003A463B46C84702E02046154B9847286850
:1039500003A900221346B0470028BFD172E7074BE6
:10396000984703A8064B98470746039B002BA0D017
:10397000AAE700BFA4AA002074AA0020792E400064
:1039800085374000C92F4000ED35400031374000F9
:1039900041234000952A400031234000392940004E
:1039A00065254000B922400021F4FE7121F001019B
:1039B0008905890D0162704710B50E480E4B984776
:1039C00000203E210D4B98470D4CA0470028FCD00D
:1039D0000C4B98470C4A0D4B9A620D4CA04700289F
:1039E000FCD010200B4B98470B4B98470148024BDB
:1039F000984710BD000E2707054240005D3F40007C
:103A0000B13F4000C13F4000013F132000040E4081
:103A1000D13F4000F53E4000F1404000F8B5194864
:103A2000194B98470B20194CA0470C20A0470D209C
:103A3000A047174C10232361C4F8A0300825256146
:103A4000C4F8A050636365631248134B9847134F43
:103A500004203946124EB04703203946B0474FF490
:103A600000332361C4F8A0304FF400132361C4F87D
:103A7000A0300C4B1D61C3F8A05002221A61C3F89C
:103A8000A020F8BD50140E4035404000E13F4000FA
:103A9000000E0E403CF6010001000020010000086D
:103AA000113C400000100E404264B1F1C05F2FD0C5
:103AB00007D8B1F1006F14D0B1F1805F1ED039B9D1
:103AC0007047B1F1205F37D004D8B1F1005F29D041
:103AD00042607047B1F1405F2ED0B1F1605F2BD0F2
:103AE000F6E710B4016F046FD3432140194001671A
:103AF000416F446F21400B4043671AE0036F13434B
:103B00000367436F416F0B4023EA02034367DFE71C
:103B1000036F016F0B4023EA02030367436F1343F4
:103B20004367D5E7036F13430367436F134343674B
:103B3000CEE742605DF8044B704700BF416412F06D
:103B4000010F14BF4166016612F00A0F14BF016233
:103B5000416212F0020F02D0C0F8801004E012F0AF
:103B6000080F18BFC0F8841041610160704700BFA2
:103B700010B44164019C0CB1416600E001660BB1D8
:103B8000016500E041650AB1016300E04163016144
:103B900001605DF8044B704712F0100F10D0C0F8B0
:103BA000B01012F0200F14BFC0F8D410C0F8D0101D
:103BB00012F0400F14BFC0F8C010C0F8C410704716
:103BC000C0F8B410704700BFC36C0164704700BFF9
:103BD000C06C7047806C7047430903F5001303F213
:103BE00007735B0200F01F00012282401A637047D6
:103BF000430903F5001303F207735B02996B00F0AE
:103C00001F00012282400A4214BF5A631A637047A0
:103C100070B582B00D46430903F5001303F2077334
:103C20005C0201F0F043B3F1005F47D009D8B3F173
:103C3000805F21D0B3F1C05F2FD0B3F1006F6FD19F
:103C400009E0B3F1405F55D0B3F1605F52D0B3F1FA
:103C5000205F44D064E000F01F000126864020462B
:103C60004FF000613246304B984715F0010F14BFFA
:103C700066662666012054E000F01F00012686409B
:103C800020464FF080513246274B984715F0010FE0
:103C900014BF66662666012043E000F01F0001267F
:103CA000864020464FF0C05132461F4B984715F0D2
:103CB000010F14BF66662666012032E000F01F0087
:103CC0000126864020464FF000513246164B984759
:103CD00015F0010F14BF66662666012021E000F092
:103CE0001F030126204606FA03F12A460F4B984788
:103CF000304616E000F01F03012605F0605205EA89
:103D000006010091204606FA03F1B2F1605F14BF8C
:103D100000220122C5F38003054CA047304600E095
:103D2000002002B070BD00BFA93A40003D3B4000FA
:103D3000713B400070B582B006460D46144602F055
:103D4000F043B3F1005F38D009D8B3F1805F1CD0E5
:103D5000B3F1C05F25D0B3F1006F50D109E0B3F1EA
:103D6000405F3AD0B3F1605F37D0B3F1205F30D01D
:103D700045E04FF000612A46224B984714F0010FAE
:103D800014BF7566356601203AE04FF080512A462F
:103D90001C4B984714F0010F14BF7566356601205F
:103DA0002EE04FF0C0512A46164B984714F0010FF1
:103DB00014BF75663566012022E04FF000512A4697
:103DC000104B984714F0010F14BF7566356601203B
:103DD00016E00D4B9847012012E004F0605204F009
:103DE0000103009330462946B2F1605F14BF002200
:103DF0000122C4F38003054CA047012000E000200D
:103E000002B070BDA93A40003D3B4000713B40000C
:103E10002DE9F84381468846124B984705464846A7
:103E2000114B9847054013D0104C04F160062368ED
:103E3000434508D16168294205D0E3684046984768
:103E4000636825EA0305B44202D01034002DEED198
:103E5000074B1B6823B1074B1B680BB148469847BB
:103E6000BDE8F883D13B4000D53B4000B4AA002018
:103E7000ECAB0020B0AA0020F8B50C4C2468062C4E
:103E800011D815460A4F2201BE18B9507560B360AB
:103E9000069AF2600134054A146029461A46054B19
:103EA00098470020F8BD0120F8BD00BFACAA002053
:103EB000B4AA0020993B400008B502480B21024BF0
:103EC000984708BD000E0E40113E400008B502485C
:103ED0000C21024B984708BD00100E40113E4000D7
:103EE00008B502480D21024B984708BD00120E404C
:103EF000113E4000184A136B23F0700318431063FF
:103F0000936E13F0080F03D009E0013B03D11EE0CC
:103F10004FF4006310498A6E12F0080FF5D00E4A74
:103F2000136B23F0030343F002031363906E10F04E
:103F3000080004D000207047013B03D109E04FF492
:103F4000006305498A6E12F0080FF5D07047012012
:103F500070470120704700BF00040E4038B111497E
:103F60000B6A114A1A40114B13430B6270470D4AFA
:103F7000136A23F45C1323F0030343F45C1343F04C
:103F80000103090289B20B431362936E13F0010F10
:103F9000FBD0044A136A43F09B7343F480331362EB
:103FA000704700BF00040E40FCFFC8FE020037014E
:103FB000024B986E00F48030704700BF00040E4042
:103FC0004FF00052014B9A62704700BF00040E4050
:103FD000024B986E00F00200704700BF00040E40D4
:103FE00022281ED81F280CD8114B9A690123834020
:103FF0001A40934217D0012383400D4A13610020D9
:1040000070470B4BD3F808212038012383401A4016
:1040100093420AD001238340054AC2F800310020B0
:10402000704701207047002070470020704700BF94
:1040300000040E404FF4004343607047FEE700BFAA
:1040400008B5204B204A9A4213D9204B1D4A9A4268
:104050001FD21146043203339B1A23F003030433A7
:10406000194A134452F8040B41F8040B9A42F9D14F
:104070000FE0144B144A9A420BD2144B114A9A1A6D
:10408000134881182AB151F8042943F8042D8142BC
:10409000F9D100BF0F4B104A9A420BD2131D0F4AA1
:1040A000D21A22F003021A44043B002143F8041BF5
:1040B0009342FBD10A4B0B4A9A600B4B98470B4B30
:1040C0009847FEE700000020406E40008408002072
:1040D0003C6E40000CAC0020880800200FAC002093
:1040E00000ED00E000004000895C400039444000E1
:1040F0003D4B1B6B03F00303032B5DD8DFE803F09C
:10410000020E2B2B394B5B6913F0800F14BF4FF459
:1041100000424FF4FA42364B1A604DE0324B1B6AB4
:1041200013F0807F03D0334A314B1A6044E0324AA7
:104130002F4B1A602C4B1B6A03F07003102B02D01C
:10414000202B04D038E02D4A294B1A6034E0294A4C
:10415000274B1A6030E0244B1B6A13F0807F03D09A
:10416000244A234B1A6012E0234A214B1A601E4B4B
:104170001B6A03F07003102B02D0202B04D006E042
:104180001E4A1B4B1A6002E01A4A194B1A60164B62
:104190001B6B03F00303022B134A07BF936A926A57
:1041A000D36AD26A1248C3F30A41036801FB03339E
:1041B000D2B2B3FBF2F303600B4B1B6B03F0700343
:1041C000702B07D10A4A13680D49A1FB03135B0842
:1041D00013607047044B1A6B0549C2F302120B6857
:1041E000D3400B60704700BF00040E4010140E4017
:1041F00040000020001BB70000093D0000127A00BB
:10420000ABAAAAAA1A4B984207D84FF08063194A62
:10421000136002F5007213607047174B984206D87E
:10422000164B144A136002F5007213607047144B6A
:10423000984206D8134B0F4A136002F500721360C0
:104240007047114B984206D8104B0A4A136002F58A
:104250000072136070470E4B984294BF4FF00423D6
:104260000C4B044A136002F500721360704700BFE4
:10427000FF2C3101000A0E40FF59620200010004C8
:10428000FF86930300020004FFB3C404000300048C
:10429000FFE0F50500050004094B1B6813B9094A46
:1042A000074B1A60064B1B681A180749914204DB3A
:1042B0001046034A1060184670474FF0FF307047B1
:1042C00024AB002010DC0020FC7F02204FF0FF30E8
:1042D000704700BF00207047084A13780133DBB2F3
:1042E00013700F2B06D90222054B1A630022034BD1
:1042F0001A7070470222024B5A63704728AB0020A5
:1043000000100E40F0B583B005460C460023019323
:10431000184B984207D11F46174E38462146B047E2
:104320000028FAD117E0154B984207D11E46124DCE
:1043300030462146A8470028FAD118E0104B984291
:1043400009D11E460F4D304601A9A8470028FAD1D1
:10435000019B23700BE00C4B9D4208D11E46094D7A
:10436000304601A9A8470028FAD1019B237003B069
:10437000F0BD00BF00060E403909400000080E40A5
:1043800000400240950940000080024070B50C4694
:10439000184B984208D11E46174D30462146A84773
:1043A0000028FAD1012070BD144B984208D11E4656
:1043B000114D30462146A8470028FAD1012070BD92
:1043C0000F4B984208D11E460E4D30462146A84755
:1043D0000028FAD1012070BD0B4B984208D11E462F
:1043E000084D30462146A8470028FAD1012070BD6B
:1043F000002070BD00060E402909400000080E4054
:10440000004002404D0940000080024008B54FF4D2
:104410000062054BC3F880210020044B9847044BF1
:104420001868044B984708BD00E100E031134000D4
:10443000F0AB0020712D400000B589B0374B984794
:10444000374B98470920374DA84737480C214FF084
:104450000062364B9847364C364B1C60364A374B19
:104460001A60374A374B1A60374B05934FF496431F
:1044700006934FF4006307930920A847204605A937
:10448000324B9847324E336898680021314DA84727
:10449000336858680021A84720462F492F4B98477A
:1044A00003206C2100222E4CA0472E4B18600820C0
:1044B00010210022A0472C4B18602C4B00932C4855
:1044C0001421012200232B4CA0472B4B18601D68A0
:1044D0002A4B98470246002400942846214623464A
:1044E000274DA84701260096264B0193029403947A
:1044F000254826494FF42F722346254DA84700969C
:10450000244B019302940394234824494FF4FA72F4
:104510002346A847224B9847FEE700BFB939400021
:104520001D3A4000E13F400000100E40353D400084
:1045300000080E4068AB00208D43400064AB0020B3
:104540000543400060AB0020000E2707F108400043
:1045500070040020A95E4000C06D40007509400055
:1045600035274000F4AB0020F8AB0020D9424000D2
:10457000C86D4000E1364000FCAB0020892E4000B1
:104580003137400004AC0020E91F4000D46D4000EA
:10459000392B4000F0AB002061144000DC6D40007E
:1045A000112E4000FEE700BF01BEFEE770B5244DAE
:1045B0008AB0064600F09AF895F9003001330446B7
:1045C00003D0304600F0E4FB10B920460AB070BDBD
:1045D000304600F0D9FB4FF07E5101F01FFB002860
:1045E000F3D00123174A0093304600230192089329
:1045F00000F04CFD02460B461348CDE90423CDE9FB
:10460000022300F0A5FA95F90030022BCDE906014E
:104610000BD0684600F09AFA38B1089B53B9DDE92F
:10462000060100F0E1FF0AB070BD01F027FB212375
:104630000360F2E701F022FB089B0360EFE700BF95
:1046400044000020E46D4000B46D400000F09AB9D1
:1046500070B5244D8AB0064600F024FA95F9003072
:104660000133044608D0304600F092FB20B13046BA
:10467000002101F0B5FA10B920460AB070BD01233F
:10468000194A0093304600230192089300F0FEFC83
:104690002C78CDE90401CDE902017CB90022002388
:1046A000CDE90623684600F051FA88B1089BA3B90A
:1046B000DDE9060100F098FF0AB070BD002000217E
:1046C00002460B4600F060FE022CCDE90601E9D15E
:1046D00001F0D4FA21230360E8E701F0CFFA089B48
:1046E0000360E5E744000020EC6D40002DE9F04751
:1046F00020F00045B5F17E5F0446064600F0C78015
:1047000011DCB5F17C5F16DAB5F1485F80F2CD803F
:104710008C4900F0BFFF4FF07E5101F07FFA50B19D
:104720002046BDE8F087014600F0B2FF014601F0E7
:104730006DF9BDE8F087204600F026FB01464FF0FA
:104740007E5000F0A5FF4FF07C5101F0ABF87E49A0
:10475000044601F0A7F87D4900F09CFF214601F0D6
:10476000A1F87B4900F094FF214601F09BF87949BC
:1047700000F090FF214601F095F8774900F088FF9E
:10478000214601F08FF8754900F084FF214601F0C1
:1047900089F873498146204601F084F8714900F098
:1047A00077FF214601F07EF86F4900F073FF214644
:1047B00001F078F86D4900F06BFF214601F072F8C6
:1047C0004FF07E5100F066FF8046204600F06AF907
:1047D000674B9D42074644DC014600F05BFF4146C3
:1047E0008246484601F012F90146504601F05AF857
:1047F00027F47F6525F00F0580462946284601F0FD
:1048000051F80146204600F043FF29460446384649
:1048100000F040FF0146204601F0F8F8014600F0A4
:1048200039FF0146534800F033FF0146404600F08F
:104830002FFF29460446284600F02CFF01464E482B
:1048400000F026FF0146204600F022FF01464A48BC
:1048500000F01EFF002E3FF764AF00F10040BDE8FE
:10486000F0874146484601F0D1F80146384601F04C
:1048700019F8394600F00EFF014600F00BFF3F49E2
:1048800000F008FF01463E4800F002FFE2E73C4925
:1048900001F008F837490546204601F003F80146C3
:1048A000284600F0F7FEBDE8F087014600F0FAFF69
:1048B0002549054600F0F6FF244900F0EBFE2946A5
:1048C00000F0F0FF224900F0E3FE294600F0EAFF85
:1048D000204900F0DFFE294600F0E4FF1E4900F009
:1048E000D7FE294600F0DEFF1C4900F0D3FE294622
:1048F00000F0D8FF1A490646284600F0D3FF1949B0
:1049000000F0C6FE294600F0CDFF174900F0C2FEB8
:10491000294600F0C7FF154900F0BAFE294600F00D
:10492000C1FF4FF07E5100F0B5FE0146304601F068
:104930006DF80146204600F0B5FF214600F0AAFEC2
:10494000BDE8F087CAF2497108EF1138047F4F3A89
:104950004611243DA80A4E3E90B0A63EABAA2A3E80
:104960002EC69D3D6133303F2D57014039D119404E
:104970009999793F2EBD3BB3DB0F493F2EBD3B33A9
:10498000DB0FC93FF8B521F00044B4F1FF4F0346F7
:1049900014DC20F00046B6F1FF4F07460EDCB1F103
:1049A0007E5F3AD08D1705F0020545EAD07556B9FD
:1049B000022D30D0032D2BD13148F8BD08461946C1
:1049C00000F068FEF8BDFCB1B4F1FF4F29D0B6F19C
:1049D000FF4F19D0341BE4153C2C1ADC002938DBBE
:1049E000184601F013F800F0CFF900F0B7F8012DE8
:1049F0002CD0022D22D0002D2FD0224900F04AFECB
:104A0000214900F045FEF8BD002F15DB1F48F8BD19
:104A1000F8BD1E48EBE71C48F8BDBDE8F84000F0C3
:104A20009DB8B6F1FF4F19D0022DF4D0032DC3D09D
:104A3000012D1BD00020F8BD1548F8BD114900F02C
:104A400029FE0146104800F023FEF8BD00F10040A9
:104A5000F8BD3C34C4DA0020C9E7F8BD022D0CD003
:104A6000032D08D0012D04D00A48F8BD4FF00040B6
:104A7000F8BD0948F8BD0948F8BD0948F8BD00BFB0
:104A8000DB0F49C02EBDBB33DB0F4940DB0FC93FF5
:104A9000DB0FC9BFDB0F493FDB0F49BFE4CB16C0BB
:104AA000E4CB164020F00042B2F1FF4F70B5034650
:104AB00004462DD25AB300283DDBB2F5000F4FEA71
:104AC000E0502CD37F38C3F31603C20743F400032E
:104AD00048BF5B00002640105B00314619244FF0B0
:104AE00080728D189D4202DC5B1BA9181644013CA4
:104AF0004FEA43034FEA5202F3D113B106F0010328
:104B00001E44761006F17C5606EBC05070BD70BD99
:104B1000014600F0C7FE214600F0BCFD70BD14F454
:104B200000020FD15B00190202F10102FAD5C2F1B5
:104B300001021044C6E7014600F0AAFD014600F05C
:104B400065FF70BD01221044BCE700BF0020704724
:104B500000200149704700BF0000F87F2DE9F041B7
:104B600020F00045B5F1A14F0446064608DBB5F13B
:104B7000FF4F6FDC002840F3A0806F48BDE8F08154
:104B80006E4B9D4277DCB5F1445F68DB4FF0FF3739
:104B90002146204600F086FE0146804600F082FE57
:104BA0006749054600F07EFE664900F073FD294620
:104BB00000F078FE644900F06DFD294600F072FEB9
:104BC000624900F067FD294600F06CFE604900F084
:104BD00061FD294600F066FE5E4900F05BFD41463E
:104BE00000F060FE5C498046284600F05BFE5B49B1
:104BF00000F04EFD294600F055FE594900F048FDF1
:104C0000294600F04FFE574900F042FD294600F0CA
:104C100049FE554900F03CFD294600F043FE7B1C4F
:104C2000014640464CD000F035FD214600F03AFEEA
:104C30004E4B4F4D53F8271000F02AFD214600F04F
:104C400027FD014655F8270000F022FD002E30DB3D
:104C5000BDE8F081014600F01DFDBDE8F081454949
:104C600000F018FD4FF07E5100F0D8FF00288DD0E5
:104C70002046BDE8F08100F087F83F4B9D42044696
:104C800029DCA3F5D0039D4244DC014600F002FD7F
:104C90004FF07E5100F0FCFC4FF08041054620466D
:104CA00000F0F8FC0146284600F0B0FE002704465C
:104CB0006EE700F10040BDE8F0813048BDE8F081CA
:104CC00000F0E8FC214600F0EDFD0146204600F032
:104CD000DFFCBDE8F0812A4B9D4214DC4FF07F5190
:104CE00000F0D6FC4FF07F510546204600F0DAFD7B
:104CF0004FF07E5100F0CEFC0146284600F086FEC3
:104D00000227044644E701461E4800F07FFE0327C1
:104D100004463DE74FF07E5100F0BAFC4FF07E5163
:104D20000546204600F0B6FC0146284600F06EFE1F
:104D3000012704462CE700BFDB0FC93FFFFFDF3E22
:104D4000D769853C59DA4B3D356B883D6E2EBA3DAF
:104D50002549123EABAAAA3E21A215BD6BF16E3DBC
:104D600095879D3D388EE33DCDCC4C3EF46D4000A3
:104D7000046E4000CAF24971FFFF973FDB0FC9BFC5
:104D8000FFFF1B40000080BF20F00040704700BFC5
:104D900030F0004001D102207047A0F50003B3F1CC
:104DA000FE4F01D204207047054B421E9A4201D8A3
:104DB00003207047A0F1FF40B0FA80F0400970472F
:104DC000FEFF7F0081F0004102E000BF83F000435E
:104DD00030B54FEA41044FEA430594EA050F08BF96
:104DE00090EA020F1FBF54EA000C55EA020C7FEA5A
:104DF000645C7FEA655C00F0E2804FEA5454D4EBD7
:104E00005555B8BF6D420CDD2C4480EA020281EAA0
:104E1000030382EA000083EA010180EA020281EAD8
:104E20000303362D88BF30BD11F0004F4FEA01312A
:104E30004FF4801C4CEA113102D0404261EB410139
:104E400013F0004F4FEA03334CEA133302D05242BF
:104E500063EB430394EA050F00F0A780A4F101047B
:104E6000D5F1200E0DDB02FA0EFC22FA05F28018B5
:104E700041F1000103FA0EF2801843FA05F359419B
:104E80000EE0A5F120050EF1200E012A03FA0EFC1A
:104E900028BF4CF0020C43FA05F3C01851EBE37144
:104EA00001F0004507D54FF0000EDCF1000C7EEB61
:104EB00000006EEB0101B1F5801F1BD3B1F5001F9F
:104EC0000CD349085FEA30004FEA3C0C04F10104BE
:104ED0004FEA445212F5800F80F09A80BCF1004FE7
:104EE00008BF5FEA500C50F1000041EB045141EA69
:104EF000050130BD5FEA4C0C404141EB010111F46A
:104F0000801FA4F10104E9D191F0000F04BF014614
:104F10000020B1FA81F308BF2033A3F10B03B3F1F2
:104F200020020CDA0C3208DD02F1140CC2F10C0282
:104F300001FA0CF021FA02F10CE002F11402D8BFE0
:104F4000C2F1200C01FA02F120FA0CFCDCBF41EAAC
:104F50000C019040E41AA2BF01EB0451294330BD7B
:104F60006FEA04041F3C1CDA0C340EDC04F1140458
:104F7000C4F1200220FA04F001FA02F340EA03002F
:104F800021FA04F345EA030130BDC4F10C04C4F175
:104F9000200220FA02F001FA04F340EA0300294655
:104FA00030BD21FA04F0294630BD94F0000F83F49F
:104FB000801306BF81F480110134013D4EE77FEA82
:104FC000645C18BF7FEA655C29D094EA050F08BFCE
:104FD00090EA020F05D054EA000C04BF19461046AF
:104FE00030BD91EA030F1EBF0021002030BD5FEAF3
:104FF000545C05D14000494128BF41F0004130BD1B
:1050000014F580043CBF01F5801130BD01F000456E
:1050100045F0FE4141F470014FF0000030BD7FEAE1
:10502000645C1ABF194610467FEA655C1CBF0B46DC
:10503000024650EA013406BF52EA033591EA030FF3
:1050400041F4002130BD00BF90F0000F04BF0021EB
:10505000704730B54FF4806404F132044FF000051E
:105060004FF0000150E700BF90F0000F04BF002197
:10507000704730B54FF4806404F1320410F00045FD
:1050800048BF40424FF000013EE700BF42004FEAF8
:10509000E2014FEA31014FEA02701FBF12F07F4375
:1050A00093F07F4F81F06051704792F0000F14BF72
:1050B00093F07F4F704730B54FF4607401F00045B6
:1050C00021F0004120E700BF50EA010208BF70470D
:1050D00030B54FF000050AE050EA010208BF704702
:1050E00030B511F0004502D5404261EB41014FF46B
:1050F000806404F132045FEA915C3FF4DCAE4FF06F
:1051000003025FEADC0C18BF03325FEADC0C18BF55
:10511000033202EBDC02C2F1200300FA03FC20FAA6
:1051200002F001FA03FE40EA0E0021FA02F11444F3
:10513000C1E600BF70B54FF0FF0C4CF4E06C1CEA08
:1051400011541DBF1CEA135594EA0C0F95EA0C0F7D
:1051500000F0DEF82C4481EA030621EA4C5123EAF0
:105160004C5350EA013518BF52EA033541F480111F
:1051700043F4801338D0A0FB02CE4FF00005E1FBD2
:1051800002E506F00042E0FB03E54FF00006E1FB1C
:1051900003569CF0000F18BF4EF0010EA4F1FF045F
:1051A000B6F5007F64F5407404D25FEA4E0E6D419F
:1051B00046EB060642EAC62141EA55514FEAC520B0
:1051C00040EA5E504FEACE2EB4F1FD0C88BFBCF52C
:1051D000E06F1ED8BEF1004F08BF5FEA500E50F1DD
:1051E000000041EB045170BD06F0004646EA0101A3
:1051F00040EA020081EA0301B4EB5C04C2BFD4EBD5
:105200000C0541EA045170BD41F480114FF0000ECD
:10521000013C00F3AB8014F1360FDEBF002001F03B
:10522000004170BDC4F10004203C35DA0C341BDCB5
:1052300004F11404C4F1200500FA05F320FA04F087
:1052400001FA05F240EA020001F0004221F00041BB
:1052500010EBD37021FA04F642EB06015EEA430E2E
:1052600008BF20EAD37070BDC4F10C04C4F120055E
:1052700000FA04F320FA05F001FA04F240EA020011
:1052800001F0004110EBD37041F100015EEA430EE2
:1052900008BF20EAD37070BDC4F1200500FA05F202
:1052A0004EEA020E20FA04F301FA05F243EA020381
:1052B00021FA04F001F0004121FA04F220EA020090
:1052C00000EBD3705EEA430E08BF20EAD37070BDD6
:1052D00094F0000F0FD101F00046400041EB0101B6
:1052E00011F4801F08BF013CF7D041EA060195F098
:1052F000000F18BF704703F00046520043EB030352
:1053000013F4801F08BF013DF7D043EA060370473E
:1053100094EA0C0F0CEA135518BF95EA0C0F0CD049
:1053200050EA410618BF52EA4306D1D181EA03018F
:1053300001F000414FF0000070BD50EA410606BF89
:105340001046194652EA430619D094EA0C0F02D1CE
:1053500050EA013613D195EA0C0F05D152EA033613
:105360001CBF104619460AD181EA030101F0004131
:1053700041F0FE4141F470014FF0000070BD41F07A
:10538000FE4141F4780170BD70B54FF0FF0C4CF454
:10539000E06C1CEA11541DBF1CEA135594EA0C0F73
:1053A00095EA0C0F00F0A7F8A4EB050481EA030EC0
:1053B00052EA03354FEA013100F088804FEA0333A7
:1053C0004FF0805545EA131343EA12634FEA022275
:1053D00045EA111545EA10654FEA00260EF0004136
:1053E0009D4208BF964244F1FD0404F5407402D288
:1053F0005B084FEA3202B61A65EB03055B084FEA19
:1054000032024FF480104FF4002CB6EB020E75EB15
:10541000030E22BFB61A754640EA0C005B084FEA3D
:105420003202B6EB020E75EB030E22BFB61A7546BA
:1054300040EA5C005B084FEA3202B6EB020E75EB05
:10544000030E22BFB61A754640EA9C005B084FEA7D
:105450003202B6EB020E75EB030E22BFB61A75468A
:1054600040EADC0055EA060E18D04FEA051545EA79
:1054700016754FEA06164FEAC30343EA52734FEA22
:10548000C2025FEA1C1CC0D111F4801F0BD141EA9B
:1054900000014FF000004FF0004CB6E711F4801F00
:1054A00004BF01430020B4F1FD0C88BFBCF5E06FE0
:1054B0003FF6AFAEB5EB030C04BFB6EB020C5FEAF0
:1054C000500C50F1000041EB045170BD0EF0004E45
:1054D0004EEA113114EB5C04C2BFD4EB0C0541EA77
:1054E000045170BD41F480114FF0000E013C90E674
:1054F00045EA060E8DE60CEA135594EA0C0F08BF38
:1055000095EA0C0F3FF43BAF94EA0C0F0AD150EA36
:1055100001347FF434AF95EA0C0F7FF425AF1046C9
:1055200019462CE795EA0C0F06D152EA03353FF4F1
:10553000FDAE1046194622E750EA410618BF52EA6E
:1055400043067FF4C5AE50EA41047FF40DAF52EA42
:1055500043057FF4EBAE12E74FEA410212F5001269
:1055600015D211D56FF47873B3EB625212D94FEAAA
:10557000C12343F0004343EA505311F0004F23FA94
:1055800002F018BF404270474FF00000704750EAE9
:10559000013005D111F0004008BF6FF000407047A6
:1055A0004FF00000704700BF4A0011D212F5001200
:1055B00011D20DD56FF47873B3EB62520ED44FEA6B
:1055C000C12343F0004343EA505323FA02F07047EB
:1055D0004FF00000704750EA013002D14FF0FF3029
:1055E00070474FF0000070474FEA4102B2F1E043CC
:1055F00024BFB3F5001CDCF1FE5C0DD901F0004CBA
:105600004FEAC0024CEA5070B2F1004F40EB830009
:1056100008BF20F00100704711F0804F21D113F135
:105620003872BCBF01F00040704741F480114FEA6E
:105630005252C2F11802C2F1200C10FA0CF320FAF7
:1056400002F018BF40F001004FEAC1234FEAD32314
:1056500003FA0CFC40EA0C0023FA02F34FEA43037E
:10566000CCE77FEA625307D150EA01331EBF4FF007
:10567000FE4040F44000704701F0004040F0FE4022
:1056800040F40000704700BF80F0004002E000BF1F
:1056900081F0004142001FBF5FEA410392EA030F1D
:1056A0007FEA226C7FEA236C6AD04FEA1262D2EB67
:1056B0001363C1BFD218414048404140B8BF5B426C
:1056C000192B88BF704710F0004F40F4000020F005
:1056D0007F4018BF404211F0004F41F4000121F01B
:1056E0007F4118BF494292EA030F3FD0A2F1010265
:1056F00041FA03FC10EB0C00C3F1200301FA03F1A3
:1057000000F0004302D5494260EB4000B0F5000FC5
:1057100013D3B0F1807F06D340084FEA310102F184
:105720000102FE2A51D2B1F1004F40EBC25008BF36
:1057300020F0010040EA03007047490040EB000000
:1057400010F4000FA2F10102EDD1B0FA80FCACF12F
:10575000080CB2EB0C0200FA0CF0AABF00EBC2502E
:1057600052421843BCBFD0401843704792F0000F1C
:1057700081F4000106BF80F400000132013BB5E76F
:105780004FEA41037FEA226C18BF7FEA236C21D0E5
:1057900092EA030F04D092F0000F08BF084670474A
:1057A00090EA010F1CBF0020704712F07F4F04D118
:1057B000400028BF40F00040704712F100723CBF2B
:1057C00000F50000704700F0004343F0FE4040F455
:1057D000000070477FEA226216BF08467FEA236313
:1057E0000146420206BF5FEA412390EA010F40F4FE
:1057F000800070474FF0000304E000BF10F000434A
:1058000048BF40425FEA000C08BF704743F0964330
:1058100001464FF000001CE050EA010208BF70474B
:105820004FF000030AE000BF50EA010208BF7047D2
:1058300011F0004302D5404261EB41015FEA010CE7
:1058400002BF84460146002043F0B64308BFA3F1DF
:105850008053A3F50003BCFA8CF2083AA3EBC253C1
:1058600010DB01FA02FC634400FA02FCC2F12002E0
:10587000BCF1004F20FA02F243EB020008BF20F017
:105880000100704702F1200201FA02FCC2F120027D
:1058900050EA4C0021FA02F243EB020008BF20EA72
:1058A000DC7070474FF0FF0C1CEAD0521EBF1CEAA0
:1058B000D15392EA0C0F93EA0C0F6FD01A4480EA8E
:1058C000010C400218BF5FEA41211ED04FF0006377
:1058D00043EA501043EA5111A0FB01310CF00040A3
:1058E000B1F5000F3EBF490041EAD3715B0040EAC9
:1058F000010062F17F02FD2A1DD8B3F1004F40EB99
:10590000C25008BF20F00100704790F0000F0CF06B
:10591000004C08BF49024CEA502040EA51207F3A2F
:10592000C2BFD2F1FF0340EAC250704740F400000A
:105930004FF00003013A5DDC12F1190FDCBF00F0FB
:1059400000407047C2F10002410021FA02F1C2F1A9
:10595000200200FA02FC5FEA310040F1000053EA45
:105960004C0308BF20EADC70704792F0000F00F093
:10597000004C02BF400010F4000F013AF9D040EA99
:105980000C0093F0000F01F0004C02BF490011F42D
:10599000000F013BF9D041EA0C018FE70CEAD1532B
:1059A00092EA0C0F18BF93EA0C0F0AD030F0004CAB
:1059B00018BF31F0004CD8D180EA010000F000405F
:1059C000704790F0000F17BF90F0004F084691F01D
:1059D000000F91F0004F14D092EA0C0F01D1420257
:1059E0000FD193EA0C0F03D14B0218BF084608D120
:1059F00080EA010000F0004040F0FE4040F400006A
:105A0000704740F0FE4040F4400070474FF0FF0CFC
:105A10001CEAD0521EBF1CEAD15392EA0C0F93EA43
:105A20000C0F69D0A2EB030280EA010C49024FEA95
:105A3000402037D04FF0805343EA111143EA10134E
:105A40000CF000408B4238BF5B0042F17D024FF406
:105A5000000C8B4224BF5B1A40EA0C00B3EB510FE1
:105A600024BFA3EB510340EA5C00B3EB910F24BFCA
:105A7000A3EB910340EA9C00B3EBD10F24BFA3EB4F
:105A8000D10340EADC001B0118BF5FEA1C1CE0D117
:105A9000FD2A3FF650AF8B4240EBC25008BF20F0CA
:105AA000010070470CF0004C4CEA50207F32C2BF1E
:105AB000D2F1FF0340EAC250704740F400004FF0BB
:105AC0000003013A37E792F0000F00F0004C02BFEC
:105AD000400010F4000F013AF9D040EA0C0093F0B6
