S011000051756164726F5F33322E73726563E3
S21440000098C00120314040002D40400061444000EF
S2144000102D4040002D4040002D4040000000000094
S21440002000000000000000000000000081254000A5
S2144000302D40400000000000FD25400039264000CD
S2144000402D4040002D4040002D4040002D404000B7
S2144000502D4040002D4040002D4040002D404000A7
S2144000602D4040002D40400000000000A93E4000CA
S214400070BD3E4000D13E40002D4040002D40400057
S21440008000000000000000002D40400055034000E6
S214400090650340002D4040002D4040002D4040006C
S2144000A02D4040002D4040002D4040002D40400057
S2144000B02D4040002D4040002D4040002D40400047
S2144000C02D4040002D4040002D40400010B5054CCE
S2144000D0237833B9044B13B10448AFF300800123AF
S2144000E0237010BD7004002000000000DC5D40005E
S2144000F0084B10B51BB108480849AFF300800848C4
S214400100036803B910BD074B002BFBD0BDE8104079
S214400110184700BF00000000DC5D4000740400206B
S214400120DC5D4000000000002DE9F04182B007464B
S2144001300023019303017D4AD55828467C4B9847B7
S214400140064628467B4B9847064016F4005F4AD042
S214400150764B03EB071358684FF40071764B98477D
S21440016028464FF40051754B984700242B6A13F0ED
S214400170040F06D10134B4F1FF3FF7D14FF0010828
S21440018001E04FF0000802232B606D4B53F83720F8
S21440019003EBC7035B68134413F8013C6B632B6A9D
S2144001A013F0010F04D10134B4F1FF3FF7D19FE0C3
S2144001B0644B03EBC703586810B907E04FF00108DB
S2144001C0002101AA0B46DFF880C1E047B4F1FF3FAB
S2144001D00BD05C4B53F8370038B1002101AA0B46D0
S2144001E0594CA04701E04FF0000816F4805F54D009
S2144001F04E4B03EB0713586802214F4B984728464F
S2144002004FF480514D4B984700242B6A13F0020F51
S21440021003D10134B4F1FF3FF7D102232B60484BA2
S21440022053F8371003EBC7035A68286B8B1803F84C
S214400230020C2B6A13F0020F04D10134B4F1FF3FD5
S214400240F7D168E0B4F1FF3F5ED02B6B0A4402F86A
S214400250013C00242B6A13F0010F04D10134B4F1A1
S214400260FF3FF7D14EE0374B03EBC703586810B952
S21440027007E04FF0FF34002101AA0B46DFF8C8C064
S214400280E047B4F1FF3F08D0304B53F8370020B179
S214400290002101AA0B462C4CA04716F4507F02D1F1
S2144002A0B8F1000F1FD0214B03EB0713586840F2FC
S2144002B00221214B984716F4807F04BF02232B600F
S2144002C028464FF400511D4CA04728464FF4805115
S2144002D0A0471C4B03EBC707786820B1002101AA52
S2144002E00B46194CA047019BE3B1194B984719E0C0
S2144002F0144B03EBC703586800287FF45FAF4FF0FA
S214400300010872E74FF001080E4B03EBC70358682D
S2144003100028AED1C1E70B4B03EBC7035868002853
S214400320A9D1BAE702B0BDE8F08100BF9C5C4000AE
S214400330290A40002D0A40009D3A4000210A40000C
S2144003409C040020AC040020212B40008C0400209C
S214400350A125400008B50020014B984708BD00BFC6
S2144003602901400008B50120014B984708BD00BF51
S2144003702901400010B50446104B9847802323605F
S214400380636843F001036360636843F0100363608F
S214400390636823F08003636020460021084B98473B
S2144003A0636823F002036360636823F004036360BA
S2144003B020460021034B984710BD00BFE906400089
S2144003C0F906400011074000F8B505460C461646AB
S2144003D018461449144B9847074628462168002279
S2144003E01346DFF85CC0E0472846216808220F4BDA
S2144003F0984728462168FAB20D4B98472846216808
S21440040008220C4B98472846216872080A4B9847A2
S21440041086F001022846216802F00102074B984701
S214400420F8BD00BF000E2707BD074000A9074000E3
S214400430D5074000650740002507400045074000B7
S214400440ED07400008B5436813F0040F05D009686F
S2144004500F290AD8054B984708BD0B68032B04D8CC
S21440046001219940C943014B984708BDF906400011
S21440047010B50446236913F4007FFBD020460F21B5
S214400480024B98474FF08073236010BDF90640003A
S2144004902AB9002040B27047013B06D110E030B484
S2144004A01446013943F699252B46026912F0020F8D
S2144004B0F2D011F8013FC360013CF5D1002000E0C6
S2144004C0FD2040B230BC70472AB9002040B2704789
S2144004D0013B09D11CE0F0B41546013943F6992694
S2144004E0FF2740F201243346026912F0020FEFD094
S2144004F0C760324601E0013A0CD003692340A3426C
S214400500F9D1836801F8013F013DECD1002002E0BB
S214400510FD2000E0FD2040B2F0BC7047F0B48CB047
S21440052007460E4601AC114D0FCD0FC40FCD0FC47C
S21440053095E8070084E8070001AA002052F8043B2B
S214400540B6FBF3F3B3FBF7F3B3F5807F05D9013081
S2144005500B28F3D14FF6FF7005E00A2894BF43EA14
S21440056000204FF6FF700CB0F0BC7047BC5C4000FB
S21440057070B506460C46086840B189680E4B9847E9
S21440058005464FF6FF73984201D10EE0002560689D
S21440059040B1A168084B98474FF6FF73984207D082
S2144005A045EA00453560002070BD4FF6FF7070BDCF
S2144005B04FF6FF7070BD00BF1D05400070B40B685D
S2144005C08A8A4C6804F00F0422430C8922438C7AB2
S2144005D042EA44228C7D42EA0442CC7D42EA4442CE
S2144005E00C7E42EA844200EB4314C4F80022CA68F8
S2144005F0C4F804220A69C4F80C228A7D3AB18C8B6E
S2144006004A8B42EA044200EB4314C4F81822846C36
S2144006104FF001129A40D24302EA0405CC7F04FA16
S21440062003F68C7F9C4044EA06442C438464446C26
S214400630144091F8212002FA03F591F820209A40C0
S21440064042EA05422243426401229A4091F82240FF
S2144006501CB1046A1443046203E0046A24EA0204F8
S214400660046291F82440012C846E0CBF14439443DA
S214400670846691F82540012C846E0CBF44EA024201
S21440068024EA02428266C26EDB00FF249C4022EAD5
S214400690040491F8232002FA03F32343C3660020A0
S2144006A070BC704710B40C680B69934206D3CA609E
S2144006B000EB4410C0F80822002001E04FF6FF701F
S2144006C05DF8044B704700BF01238B404360704782
S2144006D001238B40836070471032012303FA02F2F5
S2144006E08B4013434361704708B51520014B98472C
S2144006F008BD00BFD13F4000436823F470234360E9
S2144007004368090401F470210B434360704700BFFF
S214400710436823F07F434360436843EA0161416096
S214400720704700BF32B100EB8100036B43F001031A
S2144007300363704700EB8100036B23F00103036300
S214400740704700BF32B100EB8100036B43F00203F9
S2144007500363704700EB8100036B23F002030363DF
S214400760704700BF042A0AD100EB8100036B23F0D8
S21440077008030363036B43F004030363704752B9F3
S21440078000EB8100036B23F008030363036B23F045
S214400790040303637047082A05D100EB8100036B0E
S2144007A043F008030363704700EB81010B6B23F0B3
S2144007B0F0030B630B6B1A430A637047431E1944DE
S2144007C0B1FBF0F0431EFE2B94BF80B24FF6FF7095
S2144007D000B2704700EB81010B6B23F47F430B6341
S2144007E00B6B43EA02220A63704700BF10B400EB6B
S2144007F08101086B80B208630C6B44EA036343EAEA
S21440080002420A635DF8044B704700BF082303604A
S2144008102023036004230360704700BF0F4B9942B8
S21440082019D84900B2FBF1F2043AFF2A07D900234F
S21440083001335208FF2A03D9072BF9D100E00023E1
S214400840110289B21B0403F4E0230B43D2B21A43CD
S2144008500261002070470120704700BF801A0600E2
S21440086038B504460D464FF0FF338362036A802353
S2144008700360036B082303602023036004230360A4
S21440088049682A68054B9847012814BF0020012074
S2144008906B7A012B04BF4023236038BD1D084000FF
S2144008A02DE9F041CA688D68002A48D00026466087
S2144008B04B681B0203F4407343F480540B7C1B04C8
S2144008C003F4FE0323434360C6604C685CB10B7878
S2144008D0012CC4BF4E7846EA0323022C04DD8978F7
S2144008E041EA032300E00023C360012A03D1032327
S2144008F0036001272FE00123036000272BE02146F9
S214400900036A13F4807F1DD14C1EF1B1012A04D135
S21440091077BBC0F8008067462AE013F0020F05D088
S214400920036B2B70013A0135314600E02146002A20
S214400930E6D1036A13F0010FFBD0036A1CE04FF0C8
S214400940010E19E04FF0050E16E04FF0090E13E0C9
S2144009504FF0050E10E0036A13F4807EF8D143F69C
S214400960972443F698264FF002084FF0010CCDE747
S21440097013F0020FC3D0D3E77046BDE8F08100BF46
S2144009800346CA688868002A40D070B400265E6075
S2144009900C7C240404F4FE054C68240204F44074E1
S2144009A02C435C60DE604D685DB10C78012DC4BFA1
S2144009B04E7846EA0424022D04DD897841EA042470
S2144009C000E00024DC600BE0196A11F4807F1FD140
S2144009D011F0040FF8D010F8011B5963013A07D004
S2144009E0196A11F4807F15D111F0040FECD0F2E7AC
S2144009F01A6A12F480700FD112F0040FF8D0022257
S214400A001A601A6A12F0010FFBD006E00120704708
S214400A10052002E0052000E0052070BC704700BFBE
S214400A208162036A704700BF006A7047C06A7047B9
S214400A30F0B585B00A200F4FB847002303930E4BFE
S214400A40029319238DF80C3004AC0C4B44F80C3D43
S214400A5013200B4B98470B4D284621460A4EB0476D
S214400A600A20B84728462146B0472846074B9847AD
S214400A7005B0F0BD7132400070F30500000E270748
S214400A80D13F400000800140610840000D08400012
S214400A9030B583B0174C20464FF400310122164D36
S214400AA0A84720464FF480210122A847134B0093C5
S214400AB020460B214FF480227023114DA847114B3E
S214400AC0009320460B214FF400327023A84720465F
S214400AD04FF480210C4DA84720464FF40031A847DC
S214400AE00A4B4FF400621A60A02283F80B2303B02F
S214400AF030BD00BF000E0E40413C4000A5424000C5
S214400B00693E4000F9424000CD3C400000E100E034
S214400B102DE9F04F83B080460F461646D0F800A029
S214400B202D4C2E4D50462168A847814620602C4BC0
S214400B301C882C4B43F824A0D7F800A0DFF8B8B0A8
S214400B405046DBF80010A8470190CBF80000264B33
S214400B5043F824A0D6F800A05046244B1968A8476E
S214400B600546234B43F824A00134A4B2142C02D0EB
S214400B701B4B1C8002E00022194B1A80184BB3F81E
S214400B8000A01C4C4846174B53F82A10A0478146F5
S214400B90114B18600198144B53F82A10A04783460F
S214400BA0154B18602846124B53F82A10A0470546A6
S214400BB00E4B1860114C48461149A047C8F8000033
S214400BC058460F49A047386028460D49A047306030
S214400BD003B0BDE8F08F00BFAC050020FD524000DA
S214400BE0E80500200C0500205C050020B00500202C
S214400BF0BC040020F9524000D8050020755640003D
S214400C000000A0412DE9F04786B007460C464F4D00
S214400C104F4E33682B604F4B984730602B68C01A56
S214400C204D4B98474D4B98474D494E4B9847054638
S214400C304D4B18604D4E4E4B18683968B04705907E
S214400C404C4B18687968B04704904B4B1868B968A5
S214400C50B04703900599494F2846B847DFF830819A
S214400C60474ED8F80010B0478146C8F800000499AF
S214400C702846B847DFF81CA1DAF80010B04780468F
S214400C80CAF8000003992846B8473E4F3968B0472F
S214400C900646386048463C493C4B984710B13A4A6D
S214400CA03B4B1A6040463849384B984710B1364A55
S214400CB0384B1A6030463449344B984710B1324A64
S214400CC0304B1A600598DFF8D4A0284FDAF80010A9
S214400CD0B847244E2946B04702900498DFF8C090A3
S214400CE0D9F80010B8472946B04701900398DFF876
S214400CF0B480D8F80010B8472946B0470090059B06
S214400D00CAF80030049BC9F80030039BC8F800308E
S214400D1002A801A96A46204B9847059B2360049B7E
S214400D20E360039BA3611A4B1B686360194B1B6807
S214400D302361144B1B68E361029BA360019B6361C4
S214400D40009B236206B0BDE8F08700BFD0050020B8
S214400D50E40500202D304000F14B40005152400049
S214400D6000007A44755640000C000020F9524000BE
S214400D70CC050020B8050020C40500200D554000D5
S214400D80FD524000B40500200000A04085584000B9
S214400D90DC050020C8050020110B4000D4050020CB
S214400DA0BC050020C00500202DE9F84348680E68C1
S214400DB0324B1D88372D27D9314C3249A04707463C
S214400DC030463149A0470146304E3846B047304C51
S214400DD00021A047074628462E4B9847814639466D
S214400DE0A0472D4DA8471FFA80F800203946B04747
S214400DF04946A047A84786B238460021A0474946FC
S214400E00A047A84787B202E032273E46B846234C62
S214400E1020460021224DA84720460121A8472046CB
S214400E200221A84720460321A84720461D4942469E
S214400E305F2A28BF5F221C4DA8475F2E28BF5F262B
S214400E4020461A493246A847204619493A465F2F57
S214400E5028BF5F22A847204616493246A847204664
S214400E600021154DA84720460121A84720460221CB
S214400E70A84720460321A847BDE8F883E0050020A0
S214400E800D5540006F12833ACDCC4C3DF952400090
S214400E90FD52400065544000E558400000000240C6
S214400EA0D10640004C8F0120A5064000C48F01208B
S214400EB09C8F0120748F0120C90640002DE9F04F19
S214400EC085B01F207F4CA0470B20A0470C20A04792
S214400ED00D20A04717204FF080517B4DA8477B4CF4
S214400EE04FF4000363602361C4F8A03001204FF044
S214400EF00061A847022363602361C4F8A03019202C
S214400F004FF08051A8474FF0007363602361C4F8E8
S214400F10A03055204FF08051A8476D4B4FF400123B
S214400F205A601A61C3F8A0206A480021DFF8C0A1C1
S214400F30D04768480121D04766480221D0476548D7
S214400F400321D0474BF68033019300250295624B30
S214400F500393604801A9614B9847614F3D814FF02C
S214400F600103BB724FF00B09C7F8049064233B6142
S214400F703223FB603D6057483946DFF87881C047EA
S214400F80584C25814FF00103A372C4F804906423A3
S214400F9023615F23E360012323604E482146C04718
S214400FA0DFF854B1ABF808504FF001038BF80A3025
S214400FB0CBF804906423CBF810303223CBF80C30B7
S214400FC00223CBF8003043485946C047464E358149
S214400FD04FF00103B372C6F80490642333613223A2
S214400FE0F360032333603B483146C04739482946BF
S214400FF02A46DFF80881C047364801212A46C047BE
S214401000344802212A46C047324803212A46C04770
S2144010103D60012323600223CBF800300323336076
S2144010202C4839465F22DFF8D890C84729482146E1
S2144010305F22C847274859465F22C8472548314659
S2144010405F22C84723482946DFF8B880C047214872
S2144010500121C0471F480221C0471E480321C04700
S2144010604FF4FA70214B98471A482946D0471948FA
S2144010700121D04717480221D04716480321D047C0
S214401080144839463222C847124821463222C847B9
S214401090104859463222C8470E4831463222C84781
S2144010A00C482946C0470B480121C0470948022141
S2144010B0C04708480321C04764200C4B984705B0FA
S2144010C0BDE8F08FD13F4000DD3C4000000E0E40B2
S2144010D000120E4000000240000E27077105400037
S2144010E04C8F0120C48F0120748F01207132400044
S2144010F0D1064000BD0540009C8F0120D906400027
S214401100A5064000C90640002DE9F04F91B02E4B91
S21440111098472E4CDFF8ECB0DFF8ECA0DFF8EC9008
S214401120DFF8EC8020680AA94FF0FF320023284DF4
S214401130A8470128F6D19DF83C30022B08D10AA8D2
S21440114001A9244B98470AA801A9234B9847E9E7E9
S214401150012BE7D1BDF83A00204B98475946204B23
S214401160984751461F4B98471F4B984780B21F4B96
S21440117018805F2802D95F221A8004E0312802D8FE
S21440118032221A4B1A80154EBDF83800B047144D1F
S2144011904946A847134F4146B847154B1860BDF817
S2144011A03400B0474946A8474146B847114B1860F7
S2144011B0BDF83600B0471049A84741460F4B984700
S2144011C00F4B1860AEE700BFBD0E40007890012080
S2144011D0B12B4000050C4000A90D4000655440006E
S2144011E00D554000FD524000E5584000E005002007
S2144011F0CC050020B8050020EC51B83DF95240001F
S214401200C4050020EC5138BD00003943EC51B8BD50
S2144012100000614338B50D4601204E4B98474E4C72
S214401220122021464D4B9847217811F0200F05D0CB
S21440123012204B4B984764232B8038BD11F0400F4B
S21440124000F0828063232B801220464B997C444BCF
S2144012509847454BDB6B13F4806F4FF48062424BEC
S21440126014BF5A631A63414B9847414BC3E9000188
S214401270404B9B7AEBB13B4BD97B59730D20384B97
S21440128098473C4B5B7A43B1364B93F822103A4B27
S21440129019803A483A4B984738E03A4C1320214652
S2144012A02E4B98472178344B19803448344B984716
S2144012B02CE010203449294B98472E4B5B7A8BB153
S2144012C0284C94F822102C4B1980237C591AC9B20A
S2144012D061730D20224B9847284894F82210284BDB
S2144012E0984713E0274C132021461C4B984714F888
S2144012F01319214B1980237C591AC9B261730D20EA
S214401300174B98471D48E17C1D4B98471F491B4B80
S21440131058781A7842EA00228A81D8789A7842EA3F
S2144013200022CA8158791A7942EA00220A82DA797A
S2144013309B7943EA02234B8201220A75144B1868B4
S2144013400023144CA04738BD1220FF21044B984779
S21440135038BD00BFAD1B400016900120A51A4000C6
S214401360411A400004900120000E0E40291D400006
S214401370F005002014000020F8050020FC050020A1
S214401380C91A40001790012014900120EC8F0120CC
S21440139078900120012A400070B50120154B9847EF
S2144013A01220FF21144EB047144C1F2161741120A7
S2144013B0B047002584F8245024202946B04784F8B6
S2144013C03F5084F84050402004F13F0102220C4B2D
S2144013D098470C4B9B7A1BB10620064B984770BD2E
S2144013E0064BD97B59730D20034B98470520014B7C
S2144013F0984770BDAD1B4000411A40000490012044
S214401400F9194000140000202DE9F84381460F46A4
S2144014100120DFF86C80C047154CF7236374002525
S21440142084F8245024202946124EB0471120617C6F
S214401430B04784F8227022203946B047A5730E2064
S2144014402946B047A17B61730D20B04748463946D0
S214401450094B9847402084F83F0084F8405004F1F8
S2144014603F010222054B98470320C047BDE8F8835A
S21440147004900120411A4000B51A4000F919400076
S214401480AD1B400050B108B5012809D0022809D14B
S21440149012202021044B98470A2008BD062070479A
S2144014A0072008BD662008BD411A400030B59DB0F3
S2144014B00023ADF80230B0F96A30013B0A2B00F247
S2144014C08580DFE803F01583185B83762C83834C96
S2144014D006000123ADF86E30CB23ADF86C303C4BA4
S2144014E0186801A940F6B83200233A4CA0476DE090
S2144014F0394B98476AE001A80DF10201374B9847EF
S2144015000123ADF86E30CB23ADF86C30304B186805
S21440151001A94FF0FF3200232E4CA04756E0012091
S2144015202F4B98471220FF212E4B9847CB23ADF8E0
S2144015306C300123ADF86E302B4BDB6B13F4806FB1
S2144015404FF48062284B14BF5A631A63204B1868C6
S21440155001A94FF0FF3200231E4CA04736E0CB23B4
S214401560ADF86C300123ADF86E30194B186801A900
S21440157042F210720023174CA04727E01B4B1B7803
S214401580012B23D10024194B1C700230184B197EB6
S214401590184B9847CB23ADF86C300523ADF86E302A
S2144015A00B4B186801A94FF0FF322346094CA04761
S2144015B00CE001250D4B1D7012200821094CA04758
S2144015C02846074B984712200821A0471DB030BD3B
S2144015D080900120012A40009913400015124000D7
S2144015E0AD1B4000411A4000000E0E401000002087
S2144015F0140000200914400070B59CB0214B984759
S214401600214B984742F27C10204B9847204B9847F6
S214401610204B98470122204B1A70BFF35F8F62B66B
S2144016201E4D1F4C1F4E286801A94FF0FF32002365
S214401630A0470128F7D1BDF86C301AB2CA2A1AD191
S214401640BDF86E301AB2C92A07D11220FF21164BB8
S21440165098470020154B9847E5E71BB2C82BE2D1C8
S214401660084B9847084B984742F27C10074B9847E0
S214401670074B9847D7E71BB2CB2BD4D101A8B0472E
S214401680D1E700BFC1254000ED1D4000010000200D
S214401690E1254000910A40003C0000208090012057
S2144016A0B12B4000AD144000411A4000AD1B400035
S2144016B070B504460D4609200144224EB0474D20E1
S2144016C005F14C01B0476A7A12F0800F25D095F8A4
S2144016D04C3003F08703872B0FD1052CB8BF052469
S2144016E0142CA8BF1424053C04F00F0442F07002EA
S2144016F022F00F0214436C721EE0022CB8BF022484
S214401700112CA8BF1124023C04F00F0442F07002D2
S21440171022F00F0214436C720EE044EAE4735BB2AC
S2144017200E2BA8BF0E23013303F00F0342F07002C6
S21440173022F00F0213436B720920697A024B9847D6
S21440174070BD00BFA51A4000411A400038B5054696
S2144017500C4609200144054B9847617A01F07F0109
S214401760294361720920024B984738BDA51A4000AC
S214401770411A400070B506460C464D204C310B4D84
S214401780A84709202118A84794F90930002B04DA05
S21440179036B1872384F84C3002E0842384F84C30FA
S2144017A04D2094F84C10024B984770BDA51A400047
S2144017B0411A40000000000038B50C460C4B9847D4
S2144017C009A3D3E900230B4DA8470B4B9847030CBE
S2144017D0A371030AE3712072062021180322074BE7
S2144017E0984738BDAFF300800000000080844E402C
S2144017F0F14B4000314F400011524000F919400073
S21440180038B505460C4631203031064B984794F89B
S214401810301021F00701294384F830103120024B64
S214401820984738BDA51A4000411A400038B50546CD
S2144018300C460C2809D8052801D9062806D10520CB
S21440184021460C4B9847062504E00C2503202146EC
S214401850084B98471E202118074B9847A17F01F058
S2144018600F0141EA0511C9B2A1771E20034B9847E4
S21440187038BD00BF01184000A51A4000411A40007C
S21440188038B505460C461D200144064B9847617FF7
S21440189021F00E0141EA4501C9B261771D20024B95
S2144018A0984738BDA51A4000411A400038B505464D
S2144018B00C461E200144064B9847A17F21F00401A8
S2144018C041EA8501C9B2A1771E20024B984738BD30
S2144018D0A51A4000411A400038B505460C461D2062
S2144018E00144064B9847617F01F00F0141EA05111C
S2144018F0C9B261771D20024B984738BDA51A4000F3
S214401900411A400038B505460C461D200144054B9B
S2144019109847617F21F00101294361771D20024BE2
S214401920984738BDA51A4000411A400070B5064693
S2144019300C4601F11E051E2029460222074B9847F9
S214401940C6F30122A37F23F003031343A377E6776E
S2144019501E2029460222024B984770BD5D1A400061
S214401960F919400008B5034681F82200222019469E
S214401970014B984708BD00BF411A400038B50546A0
S2144019800C4626200144074B984794F8261021F031
S214401990080141EAC501C9B284F826102620024B48
S2144019A0984738BDA51A4000411A400070B50F4C04
S2144019B040232361C4F8A03023634FF08073236133
S2144019C0C4F8A03023630A4E0C203146094DA84780
S2144019D00D203146A8470E203146A8470B204FF031
S2144019E00061A8474FF40063236370BD000E0E40AD
S2144019F001000008DD3C40002DE9F04105468846E0
S214401A0017460A4C0A4E204631460A4B984745F040
S214401A108005E560204641463A46074B98472046B3
S214401A203146064B9847BDE8F08100BF0080004035
S214401A300406002045044000910440007104400024
S214401A4000B583B002AB03F8011D19460122024BD4
S214401A50984703B05DF804FBF91940002DE9F041C2
S214401A600546884617460A4C0A4E204631460A4BDB
S214401A70984705F07F05E560204641463A46074BC5
S214401A80984720463146064B9847BDE8F08100BF50
S214401A90008000400406002045044000C904400081
S214401AA07104400008B50122014B984708BD00BFAD
S214401AB05D1A400008B503460A4600201946014B09
S214401AC0984708BDF919400008B503460A46002065
S214401AD01946014B984708BD5D1A400018B1402290
S214401AE0034B1A6370474022014B5A63704700BF4E
S214401AF0000E0E4010B5294B5B79082B0FD8284CAA
S214401B0031202146274B9847234613F8301901F0D9
S214401B107F0183F830103120234B984714E0204C47
S214401B20312021461F4B9847234613F8301941F081
S214401B30800183F8301031201B4CA047362002210C
S214401B40A0473A206421A047144B5B791BB92F204D
S214401B504821154B9847114B5B79052B03D82F200E
S214401B604421114B98470D4B5B79063BDBB2022B69
S214401B7003D82F2040210C4B9847094C3020214653
S214401B80084B9847234613F8301901F0FE0183F8B6
S214401B9030103020044B984710BD00BF1400002082
S214401BA034900120A51A4000411A400038B504463A
S214401BB0032814BF002001200B4B9847E4B20B4D7E
S214401BC06B7823F007032343294601F8013F0120A1
S214401BD0074B9847697821F0070121436970012037
S214401BE0044B984738BD00BFDD1A400004900120E2
S214401BF0A51A4000411A400038B50120354B984799
S214401C00354B9847354D012029466F22344B98472F
S214401C10344C20682946344B9847A0792946334BA4
S214401C209847E0792946324B9847207A2946314BE7
S214401C30984760792946304B9847607A29462F4B1B
S214401C409847A08A29462E4B9847207E29462D4BFA
S214401C509847A3790A2B87BF0120294600201F49B1
S214401C60294B9847294C26202146294B98472346FE
S214401C7013F8261941F0040183F826102620254B38
S214401C809847184B1A68244B9A420FD9263C802016
S214401C902146224B984701202146214B9847142045
S214401CA0104B187121461F4B98470EE00B4C0020F6
S214401CB021461A4B984700202146194B98470E203C
S214401CC0084B18712146174B98470120014B9847FF
S214401CD038BD00BFAD1B4000F51A400004900120FF
S214401CE05D1A400014000020B91740002D1840002F
S214401CF081184000AD184000D91840000519400032
S214401D002D194000651940007D1940002A90012099
S214401D10A51A4000411A4000008F42334D1740003C
S214401D2075174000B116400038B5094D1B202946AE
S214401D30084B9847084B5C79084B03EBC40428785B
S214401D40074B9847D4E90023064CA04738BD00BF50
S214401D501F900120A51A400014000020E85C4000B7
S214401D60F14B40007949400070B50B4C4FF0807500
S214401D706561C4F8A0500948094EB0472561C4F8CB
S214401D80A050656344F2F720B0476561C4F8A050A0
S214401D904CF6E500B04770BD000E0E40D34E010035
S214401DA00100002038B500200C4DA8470C4C617847
S214401DB021F0080141F0800161700120094B9847ED
S214401DC00120A847002384F83F3084F84030402064
S214401DD004F13F010222044B984738BDAD1B40003A
S214401DE004900120411A4000F919400030B583B0F4
S214401DF00B4C20460B4B98470022009220460A493F
S214401E000A4B0B4DA847012323600A4B98470A4BC1
S214401E1098470A4B98470A4B984703B030BD00BFD7
S214401E2000800040750340000406002090D0030068
S214401E30C9034000AD194000691D4000A51D400083
S214401E40F91B400070B582B00D4614461E46084643
S214401E500DF1070101220E4B9847A11B01310122CB
S214401E6002FA06F3013B8B409DF8180000FA01F198
S214401E70C9B29DF8070020EA03000B4003438DF8E3
S214401E80073028460DF10701024B984702B070BD57
S214401E90892040005120400010B582B00090682054
S214401EA06B2102220323024CA04702B010BD00BFA4
S214401EB0451E400010B582B0009068201B210422C9
S214401EC00223024CA04702B010BD00BF451E400092
S214401ED010B582B0009068201C2104220223024CD8
S214401EE0A04702B010BD00BF451E400030B583B0CD
S214401EF014461D4608460DF107010122074B984738
S214401F00621B01320123AB40013B93409DF8071012
S214401F100B401341069A137003B030BD8920400031
S214401F2010B584B00DF10F0300936820752106228A
S214401F301346034CA0479DF80F0004B010BD00BFE9
S214401F40ED1E400008B5034B9847342814BF0020C8
S214401F50012008BD211F4000F0B583B0314F384600
S214401F60314EB04702AC802304F8083D6B20214632
S214401F7001222E4DA8473846B04700238DF8003042
S214401F806B2021460122A847294CA0470028FCD0B8
S214401F90002602AC04F8086D6B2021460122234D32
S214401FA0A8470120234B98478DF800606B202146B8
S214401FB00122A8478DF80060382021460122A84714
S214401FC0232021460122A8476B2021460122A8470C
S214401FD0242021460122A8476A2021460122A847FC
S214401FE00C238DF800306A2021460122A84703279B
S214401FF08DF800701A2021460122A8478DF800600F
S214402000192021460122A84738460B4B9847012005
S2144020100A4B984701228DF8002038202146A847D1
S21440202003B0F0BD37140D000100002051204000E1
S214402030451F4000991E4000B51E4000D11E40007E
S21440204008B510461A46014B984708BD89204000FF
S21440205030B587B00023019305938DF80400012323
S21440206002930391049268238DF81430044D054C76
S214402070284601A9A0470028FAD107B030BD00BFC6
S214402080008001408109400000B587B000230193DD
S21440209005938DF80400012302930391049268236C
S2144020A08DF81430034801A9034B984707B05DF8F4
S2144020B004FB00BF00800140A1084000F0B587B097
S2144020C0012400940F4D4FF400162E63682001A99A
S2144020D03B220E230C4FB8476E638DF812404FF4E8
S2144020E080520A4BC3F88021094B186801A96A46FA
S2144020F00023084CA047009B012B01D1064B984774
S21440210007B0F0BD000E0E404120400000E100E068
S21440211084900120212B4000A125400030B583B09B
S2144021200D4C2046202101220C4B98470C4B009327
S21440213020460C21012270230A4DA8472046012143
S214402140094B9847094B4FF480521A60A02283F8F7
S2144021500C2303B030BD00BF00100E40413C400091
S214402160BD204000693E4000CD3C400000E100E01C
S2144021702DE9F04F83B01F463B4B1C6804443B4B55
S2144021801D683B4B23F815003A4B1E680E443A4BED
S21440219023F81510394B1B681344394921F815208C
S2144021A00135192D02D0314A156002E000212F4A30
S2144021B011602E4A12682E4931F91200241A2A4913
S2144021C00C602D4931F91280C8EB06082949C1F840
S2144021D000802B4931F912001B1A284A1360294DFA
S2144021E085FB0320DB17284EC3EBE000B047824652
S2144021F08B4685FB08304FEAE878C8EBE000B047EE
S214402200CDE900AB52465B46DFF884B0D847DFF8EE
S21440221084A000221D4BD047DFF87C9010A3D3E962
S2144022200023C847DFF87480C047786085FB0430D9
S214402230E417C4EBE000B047DDE90023D84701F1DE
S214402240004319460022114BD04705A3D3E900238B
S214402250C847C047386003B0BDE8F08FAFF3008092
S214402260000000A0C42009405C0600204006002074
S21440227094060020080600200C0600205006002089
S214402280600600201F85EB51114C400000806640E0
S21440229071444000DD4C4000314F400051524000F8
S2144022A02DE9F04FADB06C4B00221A605A609A6030
S2144022B06A4B98476A4B98476A4B98476A4B984789
S2144022C06A4B98476A4CA047A0476A4B4FF6D47271
S2144022D01A804FF6F3725A8016229A800024DFF84E
S2144022E0C0A1DFF8C0B1DAF8000027A94FF0FF32EE
S2144022F00023D84701286ED19DF8AA30012B6AD119
S2144023005C490D889DF8A4209DF8A53043EA022339
S2144023105D1BADB248889DF8A6309DF8A72042EADE
S21440232003231B1A9BB2009389889DF8A8309DF81A
S214402330A92042EA03235B1A1FFA83F99DF89C0002
S2144023409DF89D3043EA00209DF89E109DF89F30F2
S21440235043EA01219DF8A0209DF8A13043EA0222DD
S21440236000B209B212B203AB434EB0473A4EDFF862
S214402370388128B2C047414D4149A8474149A847FE
S214402380414F3168B8474149A847019004984049B1
S214402390A84701460198B8473060BDF90000C047DD
S2144023A03749A8473749A8477168B8473749A847C3
S2144023B0009003983649A84701460098B847706091
S2144023C00FFA89F0C0472E49A8472E49A84701462C
S2144023D0B068B847B060204DDFF8D0802868C04766
S2144023E087B26868C04786B2A868C04780B28DF892
S2144023F01A7047F307278DF81B708DF81C6046F35C
S21440240007268DF81D608DF81E0040F307208DF8D6
S2144024101F0000238DF820308DF821400423ADF8AE
S2144024208230CB23ADF880301A4B186806A90122BB
S2144024300023194EB0472B6821936B682293AB68F4
S214402440239302238DF89830144B186821A9012253
S2144024500023B04747E700BF44060020C1254000A0
S214402460310A4000591F4000E12540001D21400030
S2144024702D30400054060020712140000D5540008C
S214402480FEFF793D6F12833AFD524000EE7C7F3F5F
S2144024900012033B80900120012A400078900120E2
S2144024A084900120B12B400065544000995840006C
S2144024B000F1080343604FF0FF328260C36003615F
S2144024C000230360704700BF00230361704700BFCE
S2144024D043685A684A6042688A605A6891605960A0
S2144024E041600861036801330360704710B40C68AC
S2144024F0B4F1FF3F01D103690AE000F10803C26866
S2144025001268944204D35B685A6812689442FAD2BE
S2144025105A684A6091608B6059600861036801336D
S21440252003605DF8044B7047436882689A6083682E
S21440253042685A6003695A68824204BF82685A6099
S214402540002202611A68013A1A601868704700BF94
S21440255003480068006880F3088862B600DF00BF62
S21440256008ED00E04FF0807340F8043C40F8081C4B
S214402570002340F80C3C40F8202C4038704700BF01
S214402580064B19680868B0E8F00F80F309884FF0EA
S214402590000080F311884EF00D0E7047508E0120DB
S2144025A04FF08052014B1A60704700BF04ED00E0C8
S2144025B0EFF311804FF0A00181F31188704700209F
S2144025C008B5034B9847034A13680133136008BDA8
S2144025D0B12540003000002080F31188704700BFCE
S2144025E008B5044A1368013B136013B90020024B38
S2144025F0984708BD30000020D9254000EFF30980F9
S2144026000C4B1A6820E9F00F10602DE908404FF097
S214402610A00080F3118800F095FE4FF0000080F394
S2144026201188BDE8084019680868B0E8F00F80F3E4
S21440263009887047508E012008B54FF08052054BF0
S2144026401A60054B9847054B98470020044B98471F
S21440265008BD00BF04ED00E0B12540004D3040000D
S214402660D9254000034A044B1A600722043B1A60EF
S214402670704700BFBFD4010014E000E010B5094B1E
S2144026801A6842F470021A601A6842F070421A6081
S214402690054B98470024054B1C60054B9847204641
S2144026A010BD00BF20ED00E0652640003000002051
S2144026B051254000134A00E01A4613688342FBD374
S2144026C030B4114654681519854203D168680444ED
S2144026D054601046426884189C420CD10A4B1B68D2
S2144026E09C4206D063681A4442600B681B680360CD
S2144026F002E0046000E00360814218BF086030BC1E
S214402700704700BF6C8D0120688D012038B50446A7
S214402710294B9847294B1B68ABB9294A294B13606C
S2144027200021516003F5C33202F19000234D28602A
S214402730C2F89410C2F89010234A5A601860234A90
S2144027401368103B1360002C2DD004F1100212F0D9
S214402750070F1CBF22F007020832511E1C4B99423D
S21440276023D817490C6801E021461C4663689A4204
S21440277002D92368002BF7D1104B1B689C4216D019
S2144027800D68103523680B6063689B1A202B04D9AC
S214402790A018436062600F4B98470C4A1368616804
S2144027A05B1A136004E0002502E0002500E00025E7
S2144027B0094B9847284638BD1D304000688D01209B
S2144027C06C8D0120C8060020908601003400002051
S2144027D09E860100B52640006D31400080B110B5A0
S2144027E00446084B9847084A116854F80C3C0B447A
S2144027F01360A4F11000054B9847054B984710BD51
S214402800704700BF1D30400034000020B526400011
S2144028106D31400010B50446036C3BB903681BBBE2
S2144028204068134B9847002363601DE06AB9806890
S2144028301A46104B9847A268236C1344A3606268FC
S214402840934211D32368A3600EE0C0681A46094B32
S2144028509847236C5B42E2681A44E26021688A42E9
S21440286002D262681344E360A36B0133A36310BDD6
S214402870913640007559400038B50346006858B157
S2144028801A6CDC681444DC605D68AC4228BFD860D3
S2144028900846D968014B984738BD00BF7559400077
S2144028A0F8B504461E4B9847A36C002B13DD636AAD
S2144028B01BB910E0636A23B90DE004F12406194DF4
S2144028C0194F3046A84700B1B847A36C013BA364F4
S2144028D0A36C002BEEDC4FF0FF33A364134B9847FA
S2144028E00F4B9847636C002B13DD23691BB910E030
S2144028F0236923B90DE004F110060A4D0A4F30460D
S214402900A84700B1B847636C013B6364636C002B17
S214402910EEDC4FF0FF336364044B9847F8BD00BFCE
S214402920C1254000A9344000D9354000E12540008B
S21440293038B518B9174B984700BFFDE70D46044613
S214402940154B98472268216CE36B03FB01F3D018C4
S21440295060600020A063A2605B1A1344E3604FF0FF
S214402960FF336364A36455B923697BB104F1100057
S2144029700A4B9847012809D1094B984706E004F1CD
S2144029801000084DA84704F12400A847064B984776
S214402990012038BDB1254000C1254000A934400083
S2144029A0A1254000B1244000E125400070B598B113
S2144029B00D4606464C200E4B9847044660B105FB34
S2144029C006F001300A4B9847206040B92046094B34
S2144029D0984701E000BFFDE7074B9847FAE7E663F4
S2144029E0256420460121054B9847204670BD00BF10
S2144029F00D274000DD274000B1254000312940002A
S214402A002DE9F04F85B00192009318B9384B98479E
S214402A1000BFFDE78A46044629B9036C2BB1344B08
S214402A20984700BFFDE7002700E00027314EDFF85B
S214402A30ECB0314DB047A26BE36B9A4212D22046BF
S214402A405146009A2D4B9847636A3BB104F12400E7
S214402A502B4B9847012801D12A4B9847264B98473D
S214402A60012042E0019B1BB9234B984700203CE0E5
S214402A7017B902A8D8470127A847234B9847B0471D
S214402A80636CB3F1FF3F04BF00236364A36CB3F1F0
S214402A90FF3F04BF0023A364A84702A801A91B4B1D
S214402AA09847E0B9B047D4F83890D4F83C80A84767
S214402AB0C1450ED104F110000199154B98472046A8
S214402AC0144B9847144B98470028B3D10D4B984762
S214402AD0B0E720460F4B98470F4B9847AAE720464B
S214402AE00C4B98470C4B9847002005B0BDE8F08F3C
S214402AF0B1254000C1254000E12540001528400092
S214402B00A9344000A12540001D3040005535400006
S214402B1005344000A12840006D3140002D3540006E
S214402B202DE9F04118B91E4B984700BFFDE70E4609
S214402B3015469846044629B9036C1BB1184B98476E
S214402B4000BFFDE7164B98470746A26BE36B9A42D9
S214402B5018D2204631464246124B9847A36CB3F1F2
S214402B60FF3F0AD1636A7BB104F124000E4B9847BD
S214402B7060B16DB101242C600BE0A36C0133A364FB
S214402B80012406E0002404E0012402E0012400E0E1
S214402B9001243846054B98472046BDE8F08100BFE3
S214402BA0B125400015284000A9344000D9254000F2
S214402BB02DE9F04F85B0019218B9464B984700BFB3
S214402BC0FDE789469A46044629B9036C2BB1414B2A
S214402BD0984700BFFDE7002700E000273E4EDFF89D
S214402BE028B13E4DB047A36B43B3E56820464946FF
S214402BF03B4B9847BAF1000F12D1A36B013BA3633E
S214402C00236813B9374B98476060236993B104F142
S214402C101000354B984701280CD1344B984709E0B3
S214402C20E560636A33B104F124002F4B984708B13E
S214402C302E4B9847294B9847012048E0019B1BB9EB
S214402C40264B9847002042E017B902A8D8470127EC
S214402C50A847274B9847B047636CB3F1FF3F04BF84
S214402C6000236364A36CB3F1FF3F04BF0023A36457
S214402C70A84702A801A91F4B984710BBB047D4F8F5
S214402C803880A847B8F1000F15D1236823B9B0475C
S214402C906068194B9847A84704F124000199174BE0
S214402CA098472046164B9847164B9847002899D188
S214402CB00E4B984796E72046114B9847114B98473E
S214402CC090E720460E4B98470E4B9847002005B09D
S214402CD0BDE8F08FB1254000C1254000E125400009
S214402CE079284000E5354000A9344000A125400041
S214402CF01D30400055354000113640000534400038
S214402D00A12840006D3140002D35400038B50446BE
S214402D100D460D4B9847636CB3F1FF3F04BF00234D
S214402D206364A36CB3F1FF3F04BF0023A364074B67
S214402D309847A36B23B904F124002946044B9847CF
S214402D402046044B984738BDC1254000E125400049
S214402D5065344000A128400010B504460E4B1B6861
S214402D6058600E4B1B68984207D20D4B18680A4BAA
S214402D70196804310B4B984710BD0B4B1868064B2F
S214402D8019680431074B9847084B1B689C423CBF68
S214402D90064B1C6010BD00BF508E01206C8E01207B
S214402DA0708E0120ED2440008C8D012038000020DC
S214402DB02DE9F04F83B00C9FDDF834800E9E0190D5
S214402DC018B9614B984700BFFDE7894615469B46B4
S214402DD0062F03D95C4B984700BFFDE744205B4B6A
S214402DE098470446002800F0AA80002E40F0A480B1
S214402DF0A800564B9847206318B92046544B98472E
S214402E009DE0A521AA00534B984705F18045013D1A
S214402E10236B03EB850323F0070504F13400494692
S214402E200C224D4B9847002384F83F303E46062FF1
S214402E3028BF0626E662266404F104094846DFF801
S214402E4068A1D04704F11800D0472461C6F10706B0
S214402E50A6616462284601995A46404B98472060CE
S214402E6010F0070F03D0384B984700BFFDE7B8F186
S214402E70000F01D0C8F80040394B9847394A1368CC
S214402E8001331360384B1B680BBB374B1C60136811
S214402E90012B26D1354D05F18C08354E2846B047D6
S214402EA014354545FAD1DFF804814046304DA847F1
S214402EB0304E3046A8473048A8473048A8473048A4
S214402EC0A847304BC3F800802F4B1E6009E02F4BBD
S214402ED01B6833B9244B1B68DB6A9F4224BF224BD6
S214402EE01C60E06A2A4B1B68984284BF284B1860D7
S214402EF0284A136801331360274B1B68984284BFE7
S214402F00254B186000EB8000184B03EB80004946C9
S214402F10224B9847224B98471C4B1B6843B1124B99
S214402F201B68DB6A9F4205D91E4B9847012008E084
S214402F30012006E0012004E00663304661E74FF0DA
S214402F40FF3003B0BDE8F08FB12540000D274000AC
S214402F50DD274000A95A4000455B400065254000FB
S214402F60C1254000948E0120508E0120C08D012046
S214402F70B1244000AC8D0120548E0120988D012054
S214402F80788D01208C8D0120708E0120908D01203F
S214402F90988E0120788E0120748E0120D124400026
S214402FA0E1254000A1254000C92440007C8E012038
S214402FB010B584B0002300930193029303930F4807
S214402FC00F494FF4FA720F4CA04701280ED10E4B12
S214402FD0984701280AD10D4B984701220C4B1A609E
S214402FE000220C4B1A600C4B984704E018B9074B6C
S214402FF0984700BFFDE704B010BD00BFB93240009F
S214403000385D4000B12D400089374000B125400072
S214403010908D01206C8E01207D264000024A136868
S21440302001331360704700BF4C8E012010B5044B2F
S2144030309847044B1C68044B9847204610BD00BF79
S214403040C12540006C8E0120E12540002DE9F0416D
S2144030503A4B1B68002B6BD1394B1A6801321A6009
S2144030601B6803BB374B1B681B681BB1364B984726
S21440307000BFFDE7334B1968344A1068186011608A
S21440308033490A6801320A601B681B6823B94FF04F
S214403090FF32304B1A6006E02A4B1B68DB68DB6861
S2144030A05A682C4B1A60264B1A682A4B1B689A4261
S2144030B042D3244B1B681B686BB1224B1B68DB68F2
S2144030C0DC6863681E4A1268934213D8224E234F28
S2144030D0DFF8948012E04FF0FF321E4B1A60BDE8D6
S2144030E0F081184B1B68DB68DC686368144A12681A
S2144030F0934203D9174A1360BDE8F081251D284640
S214403100B047A36A13B104F11800B047E06A3B68C1
S214403110984288BF386000EB800008EB8000294664
S2144031200F4B9847074B1B681B68002BD9D1D2E73B
S2144031300C4A136801331360BDE8F0814C8E0120C1
S2144031406C8E01208C8D0120B1254000708E0120B0
S214403150688E01203800002029254000748E01200A
S214403160D1244000748D0120C08D01202DE9F84304
S214403170304B1B681BB9304B984700BFFDE72F4BC1
S21440318098472C4B1A68013A1A601B68002B49D1A5
S2144031902B4B1B6803BB002447E0D8F80C30DC6898
S2144031A004F11800B84704F104094846B847E06AF5
S2144031B03368984288BF306000EB8000214B03EBB9
S2144031C080004946204B9847204B1B68E26ADB6AE2
S2144031D09A4228BF012504E00025DFF890801C4F66
S2144031E01C4ED8F80030002BD7D11B4B1B6863B160
S2144031F0194B1B687BB1194D174CA8472368013BF8
S21440320023602368002BF8D105E0012D03D0144B32
S2144032101B68012B08D10022114B1A60114B9847AE
S214403220012402E0002400E000240F4B984720468B
S214403230BDE8F8834C8E0120B1254000C1254000F2
S214403240948E0120C08D0120D1244000508E012054
S21440325029254000748E0120748D01204D30400099
S214403260908E0120A1254000E1254000548E01208B
S21440327010B580B10446094B9847094B1B681C445F
S214403280084B18680430084B98472046074B984729
S214403290074B984708B9074B984710BD1D3040006C
S2144032A06C8E0120508E012029254000592D40006B
S2144032B06D314000A125400080B5164DDFF87C807A
S2144032C0154E164F19E0C0473468B847ACB1144B9A
S2144032D09847F368DC68201D124B9847124A1368DB
S2144032E0013B13602B68013B2B60104B9847206BCB
S2144032F0DFF84C90C8472046C8472B68002BE2D1E1
S2144033000B4B1B68012B01D90A4B98470A4B984731
S214403310F3E700BF948D0120988D01206D31400069
S214403320C125400029254000948E0120E12540001B
S214403330C08D0120A12540004D4440001D30400076
S214403340DD274000284B1B681BB10122274B1A6023
S214403350704710B5264B1A681B6812681B6B9A425A
S21440336005D8234B186819683431224B9847224BAE
S2144033701B6803EB83039B00204AD358ABB91E4B14
S2144033801B6823B11C4A1D4905E013681BB91C4B3A
S214403390984700BFFDE71368013B1360136803EBD3
S2144033A0830351F82330002BEFD0134B1B68134A8E
S2144033B09900C81802EB800044686468446002467E
S2144033C00832944206D1606803EB83010B4A02EB55
S2144033D08102506003EB8303084A02EB83035B6879
S2144033E0DA68034B1A6010BD4C8E0120908E012087
S2144033F0508E012051444000748E0120C08D012023
S214403400B125400038B518B90E4B984700BFFDE7C8
S2144034100C460D4D296818310C4B984728680430E7
S2144034200B4B9847B4F1FF3F05D129680948043152
S214403430094B984738BD094B18682044084B9847B5
S21440344038BD00BFB1254000508E0120ED2440001D
S21440345029254000788D0120D12440006C8E012023
S214403460592D400038B518B9094B984700BFFDE7BD
S2144034700D46084C21681831074B984720680430A1
S214403480064B9847064B18682844064B984738BD65
S214403490B1254000508E0120D1244000292540000F
S2144034A06C8E0120592D400038B5C368DC681CB9C5
S2144034B0164B984700BFFDE704F118052846144B05
S2144034C09847144B1B689BB9251D2846104B9847B8
S2144034D0E06A114B1B68984284BF0F4B186000EBA4
S2144034E080000E4B03EB800029460D4B984703E0C7
S2144034F00C4829460A4B98470B4B1B68E06ADB6A28
S214403500984234BF0020012038BD00BFB12540009E
S214403510292540004C8E0120748E0120C08D01204C
S214403520D1244000548E0120508E012008B518B991
S214403530054B984700BFFDE7044A12680260044AFC
S2144035401268426008BD00BFB1254000688E012069
S2144035506C8E012038B518B9194B984700BFFDE767
S2144035600D46044619B9164B984700BFFDE7154B64
S21440357098472B68B3F1FF3F18D0134A126821686A
S214403580914204D0114A12686168914210D90F4A9C
S21440359011686068091A8B420CD91268121A9B1A75
S2144035A02B6020460A4B9847002404E0002402E0A3
S2144035B0012400E00124074B9847204638BD00BF51
S2144035C0B1254000C1254000688E01206C8E012048
S2144035D02D354000E12540000122014B1A6070471E
S2144035E0908E0120014B1868704700BF508E012016
S2144035F0054B1B6833B1054B1B68002B0CBF0120E5
S2144036000220704700207047908D01204C8E01208C
S214403610002831D038B5C36A18490968C96A8B4250
S21440362029D216490968C96AC1F10701816103EBCD
S2144036308303134901EB83034169994217D1054639
S214403640041D20460F4B98470C4B1B68D86AE8620F
S2144036500D4B1B68984284BF0B4B186000EB8000F4
S214403660074B03EB80002146084B984738BD034B79
S2144036701B68DB6AC36238BD704700BF508E0120AE
S214403680C08D012029254000748E0120D1244000A1
S214403690E8B138B5C16A026C914217D00446051DA0
S2144036A028460B4B9847206CE062C0F10703A361A5
S2144036B0084B1B68984284BF064B186000EB80009E
S2144036C0054B03EB80002946044B984738BD7047AE
S2144036D029254000748E0120C08D0120D124400051
S2144036E010B504464160206191420AD8D21A8369D7
S2144036F09A4211D20A4B1868211D0A4B984700205F
S21440370010BD9A4201D2994208D2074B1868211D33
S214403710044B9847002010BD012010BD012010BD6D
S214403720D08E0120ED2440009C8E012070B50D4BBC
S21440373098470D4B1B688BB90C4D28460C4EB0472E
S2144037400C4C2046B0470C4B1D600C4B1C600620B2
S2144037500C2100220A4B9847034B1860094B9847A8
S21440376070BD00BFC1254000CC8E0120A08E012038
S214403770B1244000B48E01209C8E0120D08E0120C2
S214403780AD294000E125400010B584B00B4B98476A
S2144037900B4B1B6863B106230093002301930293EF
S2144037A00393084808494FF47A72084CA04718B962
S2144037B0074B984700BFFDE704B010BD2D374000CB
S2144037C0CC8E01202D394000405D4000B12D400098
S2144037D0B12540002DE9F04119B90E4B984700BF7E
S2144037E0FDE7804616461D460F4628200A4B98475A
S2144037F0044658B1094B9847C4F80080A761E66173
S2144038002562069B6362201D054B98472046BDE80F
S214403810F08100BFB12540000D2740002D37400005
S214403820C924400030B585B00F4C2568C5B101911C
S214403830029203906BB90D4B984701280A4B1868C3
S21440384001A907BF089A002300221346084CA04748
S21440385007E0284601A91A460023064CA04700E088
S214403860002005B030BD00BFCC8E0120F1354000B1
S214403870012A4000212B40002DE9F04782B08146C6
S214403880224B98478046224B1B68984234D224E00D
S214403890DA68D2F800A0DB68DC68251D2846B84701
S2144038A0636A20469847E369012B18D1A3695344BD
S2144038B0534506D96360246130682946154B9847BE
S2144038C00DE000230093204619465246124CA0476E
S2144038D028B9124B984700BFFDE7114E114F336889
S2144038E01A68002AD4D1104A10680D49086013603F
S2144038F00123C9F8003002E00023C9F80030044B29
S214403900C3F80080404602B0BDE8F0872D30400046
S214403910C88E0120ED24400025384000B1254000E7
S2144039209C8E012029254000D08E01202DE9F043B1
S21440393087B04D4DDFF860814C4B1B681A68002AF3
S21440394000F08780DB681E68494B984703A8494BC0
S21440395098470746039B002B30D1864224D8464BD7
S2144039609847424B1B68DB68DC68201DC047E3690C
S214403970012B14D1A169204631443A4633463F4F85
S214403980B84701280BD100230093204619463246FB
S2144039903B4EB04718B93B4B984700BFFDE7636ABC
S2144039A0204698470CE000262868F11B364B98477F
S2144039B0314B984720B9354B984701E02E4B9847F6
S2144039C002A82C4B98470746314EDFF8B09038E0B7
S2144039D0059C1CB163690BB1201DC047039B022B9D
S2144039E01FD0032B2AD0002B2BD1049BA169204645
S2144039F019443A46C847012823D1636A2046984767
S214403A00E369012B1DD1A269002300932046194685
S214403A10049C22441A4CA04798B91A4B984700BFBA
S214403A20FDE70499A16119B9164B984700BFFDE719
S214403A30204639443A463B46C84702E02046154BA6
S214403A409847286803A900221346B0470028BFD1EC
S214403A5072E7074B984703A8064B98470746039BD1
S214403A60002BA0D0AAE700BFCC8E01209C8E012060
S214403A701D304000793840006D314000E13640004E
S214403A8025384000B12540000D2D4000A1254000BE
S214403A90B12B4000DD2740002925400021F4FE716F
S214403AA021F001018905890D0162704710B50E4865
S214403AB00E4B984700203E210D4B98470D4CA04793
S214403AC00028FCD00C4B98470C4A0D4B9A620D4C84
S214403AD0A0470028FCD010200B4B98470B4B98472C
S214403AE00148024B984710BD000E2707F54140009D
S214403AF04D3F4000A13F4000B13F4000013F1320F2
S214403B0000040E40C13F4000E53E4000E14040001A
S214403B10F8B51D481D4B98470B201D4CA0470C2060
S214403B20A0470D20A0471B4C10232361C4F8A030AB
S214403B3008252561C4F8A050636365631648174B93
S214403B409847174F04203946164EB047032039464B
S214403B50B0474FF400132361C4F8A030124B4FF027
S214403B6000621A61C3F8A020A3F500731D61C3F874
S214403B70A05002221A61C3F8A0204FF4806323614C
S214403B80C4F8A030F8BD00BF50140E402540400099
S214403B90D13F4000000E0E403CF6010001000020E0
S214403BA001000008DD3C400000120E404264B1F1C6
S214403BB0C05F2FD007D8B1F1006F14D0B1F1805F4D
S214403BC01ED039B97047B1F1205F37D004D8B1F173
S214403BD0005F29D042607047B1F1405F2ED0B1F10E
S214403BE0605F2BD0F6E710B4016F046FD3432140DB
S214403BF019400167416F446F21400B4043671AE00C
S214403C00036F13430367436F416F0B4023EA02037E
S214403C104367DFE7036F016F0B4023EA0203036746
S214403C20436F13434367D5E7036F13430367436FFD
S214403C3013434367CEE742605DF8044B704700BFCE
S214403C40416412F0010F14BF4166016612F00A0F7C
S214403C5014BF0162416212F0020F02D0C0F8801019
S214403C6004E012F0080F18BFC0F8841041610160EC
S214403C70704700BF10B44164019C0CB1416600E03F
S214403C8001660BB1016500E041650AB1016300E0E1
S214403C904163016101605DF8044B704712F0100FFC
S214403CA010D0C0F8B01012F0200F14BFC0F8D410D7
S214403CB0C0F8D01012F0400F14BFC0F8C010C0F8C3
S214403CC0C4107047C0F8B410704700BFC36C01649E
S214403CD0704700BFC06C7047806C704770B582B04C
S214403CE00D46430903F5001303F207735C0201F027
S214403CF0F043B3F1005F47D009D8B3F1805F21D0DD
S214403D00B3F1C05F2FD0B3F1006F6FD109E0B3F1CC
S214403D10405F55D0B3F1605F52D0B3F1205F44D0DE
S214403D2064E000F01F000126864020464FF0006108
S214403D303246304B984715F0010F14BF666626662C
S214403D40012054E000F01F000126864020464FF038
S214403D5080513246274B984715F0010F14BF6666D0
S214403D602666012043E000F01F00012686402046DC
S214403D704FF0C05132461F4B984715F0010F14BF05
S214403D8066662666012032E000F01F000126864067
S214403D9020464FF000513246164B984715F0010F1B
S214403DA014BF66662666012021E000F01F03012648
S214403DB0204606FA03F12A460F4B9847304616E04F
S214403DC000F01F03012605F0605205EA0601009147
S214403DD0204606FA03F1B2F1605F14BF00220122CA
S214403DE0C5F38003054CA047304600E0002002B0F3
S214403DF070BD00BFAD3B4000413C4000753C4000BC
S214403E002DE9F84381468846124B98470546484672
S214403E10114B9847054013D0104C04F160062368B8
S214403E20434508D16168294205D0E3684046984733
S214403E30636825EA0305B44202D01034002DEED163
S214403E40074B1B6823B1074B1B680BB14846984786
S214403E50BDE8F883D53C4000D93C4000DC8E0120CC
S214403E6074900120D88E0120F8B50C4C2468062C9E
S214403E7011D815460A4F2201BE18B9507560B36076
S214403E80069AF2600134054A146029461A46054BE4
S214403E9098470020F8BD0120F8BD00BFD48E012011
S214403EA0DC8E01209D3C400008B502480B21024BA9
S214403EB0984708BD000E0E40013E400008B5024837
S214403EC00C21024B984708BD00100E40013E4000B2
S214403ED008B502480D21024B984708BD00120E4017
S214403EE0013E4000184A136B23F0700318431063DA
S214403EF0936E13F0080F03D009E0013B03D11EE098
S214403F004FF4006310498A6E12F0080FF5D00E4A3F
S214403F10136B23F0030343F002031363906E10F019
S214403F20080004D000207047013B03D109E04FF45D
S214403F30006305498A6E12F0080FF5D070470120DD
S214403F4070470120704700BF00040E4038B1114949
S214403F500B6A114A1A40114B13430B6270470D4AC5
S214403F60136A23F45C1323F0030343F45C1343F017
S214403F700103090289B20B431362936E13F0010FDB
S214403F80FBD0044A136A43F09B7343F480331362B6
S214403F90704700BF00040E40FCFFC8FE0200370119
S214403FA0024B986E00F48030704700BF00040E400D
S214403FB04FF00052014B9A62704700BF00040E401B
S214403FC0024B986E00F00200704700BF00040E409F
S214403FD022281ED81F280CD8114B9A6901238340EB
S214403FE01A40934217D0012383400D4A13610020A4
S214403FF070470B4BD3F808212038012383401A40E2
S21440400093420AD001238340054AC2F8003100207B
S214404010704701207047002070470020704700BF5F
S21440402000040E404FF4004343607047FEE700BF75
S21440403008B5204B204A9A4213D9204B1D4A9A4233
S2144040401FD21146043203339B1A23F00303043372
S214404050194A134452F8040B41F8040B9A42F9D11A
S2144040600FE0144B144A9A420BD2144B114A9A1A38
S214404070134881182AB151F8042943F8042D814287
S214404080F9D100BF0F4B104A9A420BD2131D0F4A6C
S214404090D21A22F003021A44043B002143F8041BC0
S2144040A09342FBD10A4B0B4A9A600B4B98470B4BFB
S2144040B09847FEE700000020DC5D400070040020CA
S2144040C0D85D400098900120700400209B9001200D
S2144040D000ED00E000004000255940004943400004
S2144040E03D4B1B6B03F00303032B5DD8DFE803F067
S2144040F0020E2B2B394B5B6913F0800F14BF4FF425
S21440410000424FF4FA42364B1A604DE0324B1B6A7F
S21440411013F0807F03D0334A314B1A6044E0324A72
S2144041202F4B1A602C4B1B6A03F07003102B02D0E7
S214404130202B04D038E02D4A294B1A6034E0294A17
S214404140274B1A6030E0244B1B6A13F0807F03D065
S214404150244A234B1A6012E0234A214B1A601E4B16
S2144041601B6A03F07003102B02D0202B04D006E00D
S2144041701E4A1B4B1A6002E01A4A194B1A60164B2D
S2144041801B6B03F00303022B134A07BF936A926A22
S214404190D36AD26A1248C3F30A41036801FB033369
S2144041A0D2B2B3FBF2F303600B4B1B6B03F070030E
S2144041B0702B07D10A4A13680D49A1FB03135B080D
S2144041C013607047044B1A6B0549C2F302120B6822
S2144041D0D3400B60704700BF00040E4010140E40E2
S2144041E040000020001BB70000093D0000127A0086
S2144041F0ABAAAAAA1A4B984207D84FF08063194A2E
S214404200136002F5007213607047174B984206D849
S214404210164B144A136002F5007213607047144B35
S214404220984206D8134B0F4A136002F5007213608B
S2144042307047114B984206D8104B0A4A136002F555
S2144042400072136070470E4B984294BF4FF00423A1
S2144042500C4B044A136002F500721360704700BFAF
S214404260FF2C3101000A0E40FF5962020001000493
S214404270FF86930300020004FFB3C4040003000457
S214404280FFE0F50500050004054BDB6B13F0020F5D
S2144042904FF00202024B14BF5A631A63704700BFC6
S2144042A000100E4010B59CB0012300934FF40062FE
S2144042B00C4BC3F88021CB23ADF86C3000200A4B62
S2144042C09847ADF86E00094B186801A96A46002366
S2144042D0074CA047009B012B01D1064B98471CB0CA
S2144042E010BD00BF00E100E0851440008090012032
S2144042F0212B4000A125400010B59CB00120009025
S2144043004FF400620B4BC3F88021CB23ADF86C30E2
S214404310094B9847ADF86E00084B186801A96A46E5
S2144043200023074CA047009B012B01D1054B984723
S2144043301CB010BD00E100E08514400080900120D4
S214404340212B4000A125400000B585B0284B98475A
S214404350284B984706206C210022274CA047274B25
S2144043601860052018210022A047254B1860082019
S21440437012210022A047234B1860234B009323486A
S214404380FA2101220023224CA047224B18601D68C8
S214404390214B98470246002400942846214623464F
S2144043A01E4DA847012600961D4B01930294039488
S2144043B01C481D4940F2523223461C4DA8470096E1
S2144043C01B4B0193029403941A481B4940F2523205
S2144043D02346A8470096194B019302940394184825
S2144043E018494FF448722346A847174B9847FEE7AC
S2144043F0AD3A4000113B4000AD294000809001207E
S214404400789001208490012089424000485D400019
S214404410D5374000889001202D3040002538400098
S21440442094900120A1224000585D4000B12D4000EC
S2144044307C900120F9154000605D4000909001207E
S21440444009114000685D4000B12F4000FEE700BF04
S2144044504FF48062014B1A6301BEFEE7000E0E4029
S2144044604FF48062014B1A6301BEFEE7000E0E4019
S21440447000F002B8000000002DE9F84F5442144303
S21440448023F00049DFF878C149EAD47464451746FA
S2144044909E4606460D4641D84442044321F0004B12
S2144044A04BEAD47464458A4638D803F1404404F550
S2144044B08014144349D09C1704F0020444EAD17493
S2144044C05BEA000132D059EA070138D04C498945A9
S2144044D048D04B498B4532D0C9EB0B094FEA295996
S2144044E0B9F13C0F3ADCBEF1000F64DB304629469A
S2144044F000F01EFD00F036FA00F09AF8012C57D076
S214404500022C48D084B138A3D3E9002300F032FA15
S21440451037A3D3E9002300F02DFA05E010461946EC
S21440452032462B4600F028FABDE8F88F032CCAD84E
S214404530DFE804F01212020F32483349F4E7BAF1CA
S214404540000F304825DB3149EEE7BDE8F84F00F074
S2144045506FB82C482E49E7E72946E5E726A1D1E97A
S2144045600001CBE7CB452CD0032CB2D801A151F8A3
S21440457024F000BF854540008B454000394540004B
S2144045805345400000200146CEE700204FF0004152
S214404590CAE72049C8E714A3D3E9002300F0EAF9A4
S2144045A002460B4612A1D1E9000100F0E3F9BBE751
S2144045B001F10041B8E719F13C0F97DA00200021DD
S2144045C09CE7032CBBD8DFE804F0020B08050D4837
S2144045D01149A9E711481249A6E710481149A3E72F
S2144045E008481149A0E700BF075C143326A6A13C43
S2144045F0182D4454FB210940182D4454FB21F93F03
S2144046000000F07F182D4454FB210940FB21F93F60
S214404610FB2109C0FB21F9BFFB21E93FD221337FB3
S2144046207CD902C07CD90240FB21E9BF00000000D3
S2144046302DE9F84FBE4B21F000469E420D468A4675
S21440464004460FDDBB4B9E4200F3B08000F0AB80CB
S214404650B94BBA49BA4CBAF1000FC8BF1946204602
S214404660BDE8F88FB74B9E4200F3BA80A3F1DE73E5
S2144046709E4240F3A5804FF0FF3B22462B46204605
S214404680294600F02BFB02460B468046894600F042
S21440469025FB8FA3D3E9002306460F4600F01EFBFA
S2144046A08DA3D3E9002300F067F932463B4600F07D
S2144046B015FB8BA3D3E9002300F05EF932463B4658
S2144046C000F00CFB88A3D3E9002300F055F93246EE
S2144046D03B4600F003FB86A3D3E9002300F04CF9E9
S2144046E032463B4600F0FAFA83A3D3E9002300F0B3
S2144046F043F942464B4600F0F1FA81A3D3E9002342
S214404700804689463046394600F0E8FA7EA3D3E92B
S214404710002300F02FF932463B4600F0DFFA7CA338
S214404720D3E9002300F026F932463B4600F0D6FA9D
S21440473079A3D3E9002300F01DF932463B4600F04A
S214404740CDFA77A3D3E9002300F014F932463B466E
S21440475000F0C4FABBF1FF3F02460B4667D0404626
S214404760494600F009F922462B4600F0B7FA764E45
S214404770764B4FEACB0B5E449B44DBE9002300F0CC
S214404780F9F822462B4600F0F5F802460B46D6E9E5
S214404790000100F0EFF8BAF1000F0446BFF65FAF35
S2144047A001F100415BE700283FF452AF2246204625
S2144047B029462B4600F0E0F804462046BDE8F88F30
S2144047C059A3D3E9002300F0D7F80022604B00F04D
S2144047D015FD00283FF44FAF29462046BDE8F88F28
S2144047E000F0C0F85B4B9E4204460D462FDCA3F516
S2144047F050239E4254DC02460B4600F0BDF8002291
S214404800534B00F0B7F8002206460F46204629468E
S2144048104FF0804300F0B0F802460B46304639462B
S21440482000F086FB4FF0000B04460D4625E7404659
S214404830494600F0A1F822462B4600F04FFA0246C1
S2144048400B462046294600F095F8044607E7424BBB
S2144048509E421ADC0022414B00F08CF800220646AD
S2144048600F46204629463D4B00F038FA0022384B8A
S21440487000F082F802460B463046394600F058FBB8
S2144048804FF0020B04460D46F7E602460B46002064
S214404890334900F04DFB4FF0030B04460D46ECE663
S2144048A000222B4B00F066F8002206460F462046B4
S2144048B02946274B00F060F802460B4630463946FC
S2144048C000F036FB4FF0010B04460D46D5E600BF20
S2144048D011DA22E33AAD903FEB0D76244B7BA93FAD
S2144048E0513DD0A0660DB13F6E204CC5CD45B73F7B
S2144048F0FF8300922449C23F0D5555555555D53F27
S2144049002F6C6A2C44B4A2BF9AFDDE522DDEAD3F1A
S2144049106D9A74AFF2B0B33F711623FEC671BC3FBA
S214404920C4EB98999999C93F9C7500883CE4377EBA
S214404930FFFF0F440000F07FFB21F93FFB21F9BF4A
S214404940182D4454FFFFDB3F905D4000705D4000F3
S2144049500000F03FFFFFF23FFF7F03400000F83FBC
S2144049600000F0BF21F00041704700BF81F00041D9
S21440497002E000BF83F0004330B54FEA41044FEAFF
S214404980430594EA050F08BF90EA020F1FBF54EA9A
S214404990000C55EA020C7FEA645C7FEA655C00F036
S2144049A0E2804FEA5454D4EB5555B8BF6D420CDD07
S2144049B02C4480EA020281EA030382EA000083EA8A
S2144049C0010180EA020281EA0303362D88BF30BD2A
S2144049D011F0004F4FEA01314FF4801C4CEA113180
S2144049E002D0404261EB410113F0004F4FEA0333DF
S2144049F04CEA133302D0524263EB430394EA050F6A
S214404A0000F0A780A4F10104D5F1200E0DDB02FAD8
S214404A100EFC22FA05F2801841F1000103FA0EF26C
S214404A20801843FA05F359410EE0A5F120050EF132
S214404A30200E012A03FA0EFC28BF4CF0020C43FA63
S214404A4005F3C01851EBE37101F0004507D54FF070
S214404A50000EDCF1000C7EEB00006EEB0101B1F5C0
S214404A60801F1BD3B1F5001F0CD349085FEA300006
S214404A704FEA3C0C04F101044FEA445212F5800F11
S214404A8080F09A80BCF1004F08BF5FEA500C50F1AE
S214404A90000041EB045141EA050130BD5FEA4C0C91
S214404AA0404141EB010111F4801FA4F10104E9D11A
S214404AB091F0000F04BF01460020B1FA81F308BF11
S214404AC02033A3F10B03B3F120020CDA0C3208DDDD
S214404AD002F1140CC2F10C0201FA0CF021FA02F1B8
S214404AE00CE002F11402D8BFC2F1200C01FA02F128
S214404AF020FA0CFCDCBF41EA0C019040E41AA2BF4D
S214404B0001EB0451294330BD6FEA04041F3C1CDA14
S214404B100C340EDC04F11404C4F1200220FA04F034
S214404B2001FA02F340EA030021FA04F345EA0301DE
S214404B3030BDC4F10C04C4F1200220FA02F001FAA0
S214404B4004F340EA0300294630BD21FA04F0294622
S214404B5030BD94F0000F83F4801306BF81F48011BB
S214404B600134013D4EE77FEA645C18BF7FEA655C2E
S214404B7029D094EA050F08BF90EA020F05D054EA00
S214404B80000C04BF1946104630BD91EA030F1EBF05
S214404B900021002030BD5FEA545C05D14000494109
S214404BA028BF41F0004130BD14F580043CBF01F5FC
S214404BB0801130BD01F0004545F0FE4141F47001E2
S214404BC04FF0000030BD7FEA645C1ABF19461046BD
S214404BD07FEA655C1CBF0B46024650EA013406BFBE
S214404BE052EA033591EA030F41F4002130BD00BF7D
S214404BF090F0000F04BF0021704730B54FF480643A
S214404C0004F132044FF000054FF0000150E700BFBA
S214404C1090F0000F04BF0021704730B54FF4806419
S214404C2004F1320410F0004548BF40424FF0000106
S214404C303EE700BF42004FEAE2014FEA31014FEA49
S214404C4002701FBF12F07F4393F07F4F81F0605198
S214404C50704792F0000F14BF93F07F4F704730B507
S214404C604FF4607401F0004521F0004120E700BF9A
S214404C7050EA010208BF704730B54FF000050AE021
S214404C8050EA010208BF704730B511F0004502D522
S214404C90404261EB41014FF4806404F132045FEA24
S214404CA0915C3FF4DCAE4FF003025FEADC0C18BFC9
S214404CB003325FEADC0C18BF033202EBDC02C2F1BF
S214404CC0200300FA03FC20FA02F001FA03FE40EA51
S214404CD00E0021FA02F11444C1E600BF70B54FF051
S214404CE0FF0C4CF4E06C1CEA11541DBF1CEA135533
S214404CF094EA0C0F95EA0C0F00F0DEF82C4481EA9B
S214404D00030621EA4C5123EA4C5350EA013518BFBA
S214404D1052EA033541F4801143F4801338D0A0FBA7
S214404D2002CE4FF00005E1FB02E506F00042E0FB54
S214404D3003E54FF00006E1FB03569CF0000F18BF5A
S214404D404EF0010EA4F1FF04B6F5007F64F5407402
S214404D5004D25FEA4E0E6D4146EB060642EAC62195
S214404D6041EA55514FEAC52040EA5E504FEACE2E02
S214404D70B4F1FD0C88BFBCF5E06F1ED8BEF1004F05
S214404D8008BF5FEA500E50F1000041EB045170BD81
S214404D9006F0004646EA010140EA020081EA0301C5
S214404DA0B4EB5C04C2BFD4EB0C0541EA045170BDC1
S214404DB041F480114FF0000E013C00F3AB8014F13B
S214404DC0360FDEBF002001F0004170BDC4F1000484
S214404DD0203C35DA0C341BDC04F11404C4F1200505
S214404DE000FA05F320FA04F001FA05F240EA020060
S214404DF001F0004221F0004110EBD37021FA04F696
S214404E0042EB06015EEA430E08BF20EAD37070BD4F
S214404E10C4F10C04C4F1200500FA04F320FA05F0AE
S214404E2001FA04F240EA020001F0004110EBD370B0
S214404E3041F100015EEA430E08BF20EAD37070BD20
S214404E40C4F1200500FA05F24EEA020E20FA04F3F9
S214404E5001FA05F243EA020321FA04F001F00041A8
S214404E6021FA04F220EA020000EBD3705EEA430E19
S214404E7008BF20EAD37070BD94F0000F0FD101F048
S214404E800046400041EB010111F4801F08BF013C81
S214404E90F7D041EA060195F0000F18BF704703F0BF
S214404EA00046520043EB030313F4801F08BF013D46
S214404EB0F7D043EA0603704794EA0C0F0CEA135502
S214404EC018BF95EA0C0F0CD050EA410618BF52EABC
S214404ED04306D1D181EA030101F000414FF00000C2
S214404EE070BD50EA410606BF1046194652EA4306D0
S214404EF019D094EA0C0F02D150EA013613D195EA44
S214404F000C0F05D152EA03361CBF104619460AD18B
S214404F1081EA030101F0004141F0FE4141F4700195
S214404F204FF0000070BD41F0FE4141F4780170BD85
S214404F3070B54FF0FF0C4CF4E06C1CEA11541DBFEA
S214404F401CEA135594EA0C0F95EA0C0F00F0A7F8EC
S214404F50A4EB050481EA030E52EA03354FEA013119
S214404F6000F088804FEA03334FF0805545EA13132C
S214404F7043EA12634FEA022245EA111545EA1065F4
S214404F804FEA00260EF000419D4208BF964244F18B
S214404F90FD0404F5407402D25B084FEA3202B61AAA
S214404FA065EB03055B084FEA32024FF480104FF47E
S214404FB0002CB6EB020E75EB030E22BFB61A7546F2
S214404FC040EA0C005B084FEA3202B6EB020E75EB85
S214404FD0030E22BFB61A754640EA5C005B084FEAED
S214404FE03202B6EB020E75EB030E22BFB61A7546BA
S214404FF040EA9C005B084FEA3202B6EB020E75EBC5
S214405000030E22BFB61A754640EADC0055EA060E85
S21440501018D04FEA051545EA16754FEA06164FEAC8
S214405020C30343EA52734FEAC2025FEA1C1CC0D174
S21440503011F4801F0BD141EA00014FF000004FF001
S214405040004CB6E711F4801F04BF01430020B4F1C2
S214405050FD0C88BFBCF5E06F3FF6AFAEB5EB030C7A
S21440506004BFB6EB020C5FEA500C50F1000041EB77
S214405070045170BD0EF0004E4EEA113114EB5C0444
S214405080C2BFD4EB0C0541EA045170BD41F4801117
S2144050904FF0000E013C90E645EA060E8DE60CEA1F
S2144050A0135594EA0C0F08BF95EA0C0F3FF43BAF3C
S2144050B094EA0C0F0AD150EA01347FF434AF95EAF3
S2144050C00C0F7FF425AF104619462CE795EA0C0FD7
S2144050D006D152EA03353FF4FDAE1046194622E7A4
S2144050E050EA410618BF52EA43067FF4C5AE50EA7E
S2144050F041047FF40DAF52EA43057FF4EBAE12E76E
S2144051004FF0FF3C06E000BF4FF0010C02E000BF4E
S2144051104FF0010C4DF804CD4FEA410C7FEA6C5C31
S2144051204FEA430C18BF7FEA6C5C1BD001B050EAD4
S214405130410C0CBF52EA430C91EA030F02BF90EABF
S214405140020F0020704710F1000F91EA030F58BF7E
S214405150994208BF90422CBFD8176FEAE37040F0E0
S214405160010070474FEA410C7FEA6C5C02D150EA7E
S214405170013C07D14FEA430C7FEA6C5CD6D152EA39
S214405180033CD3D05DF8040B704700BF84461046FE
S21440519062468C461946634600E000BF01B5FFF7FD
S2144051A0B7FF002848BF10F1000F01BD4DF808EDCD
S2144051B0FFF7F4FF0CBF012000205DF808FB00BF9E
S2144051C04DF808EDFFF7EAFF34BF012000205DF8F8
S2144051D008FB00BF4DF808EDFFF7E0FF94BF012045
S2144051E000205DF808FB00BF4DF808EDFFF7CEFF46
S2144051F094BF012000205DF808FB00BF4DF808ED85
S214405200FFF7C4FF34BF012000205DF808FB00BF55
S2144052104A0011D212F5001211D20DD56FF47873F0
S214405220B3EB62520ED44FEAC12343F0004343EA45
S214405230505323FA02F070474FF00000704750EA90
S214405240013002D14FF0FF3070474FF000007047FA
S2144052504FEA4102B2F1E04324BFB3F5001CDCF153
S214405260FE5C0DD901F0004C4FEAC0024CEA50708B
S214405270B2F1004F40EB830008BF20F001007047BA
S21440528011F0804F21D113F13872BCBF01F00040BD
S214405290704741F480114FEA5252C2F11802C2F1EF
S2144052A0200C10FA0CF320FA02F018BF40F0010070
S2144052B04FEAC1234FEAD32303FA0CFC40EA0C0022
S2144052C023FA02F34FEA4303CCE77FEA625307D15F
S2144052D050EA01331EBF4FF0FE4040F44000704796
S2144052E001F0004040F0FE4040F40000704700BF30
S2144052F080F0004002E000BF81F0004142001FBF46
S2144053005FEA410392EA030F7FEA226C7FEA236C4E
S2144053106AD04FEA1262D2EB1363C1BFD218414043
S21440532048404140B8BF5B42192B88BF704710F0D9
S214405330004F40F4000020F07F4018BF404211F07C
S214405340004F41F4000121F07F4118BF494292EAE4
S214405350030F3FD0A2F1010241FA03FC10EB0C0010
S214405360C3F1200301FA03F100F0004302D549429D
S21440537060EB4000B0F5000F13D3B0F1807F06D34A
S21440538040084FEA310102F10102FE2A51D2B1F142
S214405390004F40EBC25008BF20F0010040EA030037
S2144053A07047490040EB000010F4000FA2F10102E4
S2144053B0EDD1B0FA80FCACF1080CB2EB0C0200FA6E
S2144053C00CF0AABF00EBC25052421843BCBFD040BC
S2144053D01843704792F0000F81F4000106BF80F436
S2144053E000000132013BB5E74FEA41037FEA226CF9
S2144053F018BF7FEA236C21D092EA030F04D092F0C4
S214405400000F08BF0846704790EA010F1CBF0020F7
S214405410704712F07F4F04D1400028BF40F0004054
S214405420704712F100723CBF00F50000704700F074
S214405430004343F0FE4040F4000070477FEA22629B
S21440544016BF08467FEA23630146420206BF5FEA6C
S214405450412390EA010F40F4800070474FF000036C
S21440546004E000BF10F0004348BF40425FEA000C33
S21440547008BF704743F0964301464FF000001CE0DB
S21440548050EA010208BF70474FF000030AE000BF31
S21440549050EA010208BF704711F0004302D540426F
S2144054A061EB41015FEA010C02BF844601460020E1
S2144054B043F0B64308BFA3F18053A3F50003BCFAFC
S2144054C08CF2083AA3EBC25310DB01FA02FC6344A9
S2144054D000FA02FCC2F12002BCF1004F20FA02F2B0
S2144054E043EB020008BF20F00100704702F12002A3
S2144054F001FA02FCC2F1200250EA4C0021FA02F204
S21440550043EB020008BF20EADC7070474FF0FF0C08
S2144055101CEAD0521EBF1CEAD15392EA0C0F93EA03
S2144055200C0F6FD01A4480EA010C400218BF5FEAA5
S21440553041211ED04FF0006343EA501043EA511118
S214405540A0FB01310CF00040B1F5000F3EBF490012
S21440555041EAD3715B0040EA010062F17F02FD2A16
S2144055601DD8B3F1004F40EBC25008BF20F00100F9
S214405570704790F0000F0CF0004C08BF49024CEA10
S214405580502040EA51207F3AC2BFD2F1FF0340EAA2
S214405590C250704740F400004FF00003013A5DDC13
S2144055A012F1190FDCBF00F000407047C2F1000254
S2144055B0410021FA02F1C2F1200200FA02FC5FEA41
S2144055C0310040F1000053EA4C0308BF20EADC708B
S2144055D0704792F0000F00F0004C02BF400010F4FD
S2144055E0000F013AF9D040EA0C0093F0000F01F0AA
S2144055F0004C02BF490011F4000F013BF9D041EACC
S2144056000C018FE70CEAD15392EA0C0F18BF93EACD
S2144056100C0F0AD030F0004C18BF31F0004CD8D1F7
S21440562080EA010000F00040704790F0000F17BF7E
S21440563090F0004F084691F0000F91F0004F14D0C4
S21440564092EA0C0F01D142020FD193EA0C0F03D11C
S2144056504B0218BF084608D180EA010000F000401F
S21440566040F0FE4040F40000704740F0FE4040F4FA
S214405670400070474FF0FF0C1CEAD0521EBF1CEA99
S214405680D15392EA0C0F93EA0C0F69D0A2EB0302B7
S21440569080EA010C49024FEA402037D04FF0805351
S2144056A043EA111143EA10130CF000408B4238BF16
S2144056B05B0042F17D024FF4000C8B4224BF5B1A24
S2144056C040EA0C00B3EB510F24BFA3EB510340EA72
S2144056D05C00B3EB910F24BFA3EB910340EA9C0020
S2144056E0B3EBD10F24BFA3EBD10340EADC001B0190
S2144056F018BF5FEA1C1CE0D1FD2A3FF650AF8B4234
S21440570040EBC25008BF20F0010070470CF0004C40
S2144057104CEA50207F32C2BFD2F1FF0340EAC2506B
S214405720704740F400004FF00003013A37E792F02C
S214405730000F00F0004C02BF400010F4000F013A8A
S214405740F9D040EA0C0093F0000F01F0004C02BF85
S214405750490011F4000F013BF9D041EA0C0195E7EE
S2144057600CEAD15392EA0C0F08D142027FF47DAF87
S21440577093EA0C0F7FF470AF084676E793EA0C0F77
S21440578004D14B023FF44CAF08466EE730F0004C75
S21440579018BF31F0004CCAD130F000427FF45CAF05
S2144057A031F000437FF43CAF5FE700BF4FF0FF3C73
S2144057B006E000BF4FF0010C02E000BF4FF0010CC6
S2144057C04DF804CD4FEA40024FEA41037FEA226C8F
S2144057D018BF7FEA236C11D001B052EA530C18BFB1
S2144057E090EA010F58BFB2EB030088BFC81738BF16
S2144057F06FEAE17018BF40F0010070477FEA226C04
S21440580002D15FEA402C05D17FEA236CE4D15FEAFF
S214405810412CE1D05DF8040B704700BF8446084633
S2144058206146FFE70FB5FFF7C9FF002848BF10F1F4
S214405830000F0FBD4DF808EDFFF7F4FF0CBF012039
S21440584000205DF808FB00BF4DF808EDFFF7EAFFC3
S21440585034BF012000205DF808FB00BF4DF808ED7E
S214405860FFF7E0FF94BF012000205DF808FB00BF73
S2144058704DF808EDFFF7D2FF94BF012000205DF8F9
S21440588008FB00BF4DF808EDFFF7C8FF34BF012006
S21440589000205DF808FB00BF4FEA4002B2F1FE4F21
S2144058A00FD34FF09E03B3EB12620DD94FEA00239D
S2144058B043F0004310F0004F23FA02F018BF404276
S2144058C070474FF00000704712F1610F01D142025D
