S011000051756164726F5F33322E73726563E3
S21440000078DD0020F5434000F1434000454740007E
S214400010F1434000F1434000F1434000000000003F
S214400020000000000000000000000000052840001E
S214400030F14340000000000081284000BD284000F9
S214400040F1434000F1434000F1434000F14340009B
S214400050F1434000F1434000F1434000F14340008B
S214400060F1434000F1434000000000006D42400074
S2144000708142400095424000F1434000F143400039
S2144000800000000000000000F1434000550340001F
S21440009065034000F1434000F1434000F143400017
S2144000A0F1434000F1434000F1434000F14340003B
S2144000B0F1434000F1434000F1434000F14340002B
S2144000C0F1434000F1434000F143400010B5054C79
S2144000D0237833B9044B13B10448AFF300800123AF
S2144000E0237010BDC8080020000000005CA6400039
S2144000F0084B10B51BB108480849AFF300800848C4
S214400100036803B910BD074B002BFBD0BDE8104079
S214400110184700BF000000005CA64000CC08002046
S2144001205CA64000000000002DE9F04182B0074682
S2144001300023019303017D4AD55828467C4B9847B7
S214400140064628467B4B9847064016F4005F4AD042
S214400150764B03EB071358684FF40071764B98477D
S21440016028464FF40051754B984700242B6A13F0ED
S214400170040F06D10134B4F1FF3FF7D14FF0010828
S21440018001E04FF0000802232B606D4B53F83720F8
S21440019003EBC7035B68134413F8013C6B632B6A9D
S2144001A013F0010F04D10134B4F1FF3FF7D19FE0C3
S2144001B0644B03EBC703586810B907E04FF00108DB
S2144001C0002101AA0B46DFF880C1E047B4F1FF3FAB
S2144001D00BD05C4B53F8370038B1002101AA0B46D0
S2144001E0594CA04701E04FF0000816F4805F54D009
S2144001F04E4B03EB0713586802214F4B984728464F
S2144002004FF480514D4B984700242B6A13F0020F51
S21440021003D10134B4F1FF3FF7D102232B60484BA2
S21440022053F8371003EBC7035A68286B8B1803F84C
S214400230020C2B6A13F0020F04D10134B4F1FF3FD5
S214400240F7D168E0B4F1FF3F5ED02B6B0A4402F86A
S214400250013C00242B6A13F0010F04D10134B4F1A1
S214400260FF3FF7D14EE0374B03EBC703586810B952
S21440027007E04FF0FF34002101AA0B46DFF8C8C064
S214400280E047B4F1FF3F08D0304B53F8370020B179
S214400290002101AA0B462C4CA04716F4507F02D1F1
S2144002A0B8F1000F1FD0214B03EB0713586840F2FC
S2144002B00221214B984716F4807F04BF02232B600F
S2144002C028464FF400511D4CA04728464FF4805115
S2144002D0A0471C4B03EBC707786820B1002101AA52
S2144002E00B46194CA047019BE3B1194B984719E0C0
S2144002F0144B03EBC703586800287FF45FAF4FF0FA
S214400300010872E74FF001080E4B03EBC70358682D
S2144003100028AED1C1E70B4B03EBC7035868002853
S214400320A9D1BAE702B0BDE8F08100BFA4A340005F
S2144003305D08400061084000553E400055084000BA
S214400340F408002004090020A12D4000E408002005
S2144003502528400008B50020014B984708BD00BF3F
S2144003602901400008B50120014B984708BD00BF51
S2144003702901400010B50446104B9847802323605F
S214400380636843F001036360636843F0100363608F
S214400390636823F08003636020460021084B98473B
S2144003A0636823F002036360636823F004036360BA
S2144003B020460021034B984710BD00BF1D05400056
S2144003C02D05400045054000F8B505460C46164646
S2144003D018461449144B9847074628462168002279
S2144003E01346DFF85CC0E0472846216808220F4BDA
S2144003F0984728462168FAB20D4B98472846216808
S21440040008220C4B98472846216872080A4B9847A2
S21440041086F001022846216802F00102074B984701
S214400420F8BD00BF000E2707F1054000DD0540007F
S21440043009064000990540005905400079054000EE
S2144004402106400008B5436813F0040F05D009683C
S2144004500F290AD8054B984708BD0B68032B04D8CC
S21440046001219940C943014B984708BD2D054000DE
S21440047010B50446236913F4007FFBD020460F21B5
S214400480024B98474FF08073236010BD2D05400007
S2144004902AB9002040B27047013B06D110E030B484
S2144004A01446013943F699252B46026912F0020F8D
S2144004B0F2D011F8013FC360013CF5D1002000E0C6
S2144004C0FD2040B230BC70472AB9002040B2704789
S2144004D0013B09D11CE0F0B41546013943F6992694
S2144004E0FF2740F201243346026912F0020FEFD094
S2144004F0C760324601E0013A0CD003692340A3426C
S214400500F9D1836801F8013F013DECD1002002E0BB
S214400510FD2000E0FD2040B2F0BC704708B5152035
S214400520014B984708BD00BF95434000436823F4FD
S214400530702343604368090401F470210B43436011
S214400540704700BF436823F07F434360436843EAF5
S21440055001614160704700BF32B100EB8100036B20
S21440056043F001030363704700EB8100036B23F005
S21440057001030363704700BF32B100EB8100036B99
S21440058043F002030363704700EB8100036B23F0E4
S21440059002030363704700BF042A0AD100EB8100C0
S2144005A0036B23F008030363036B43F00403036306
S2144005B0704752B900EB8100036B23F008030363D6
S2144005C0036B23F0040303637047082A05D100EB4E
S2144005D08100036B43F008030363704700EB81011F
S2144005E00B6B23F0F0030B630B6B1A430A637047E5
S2144005F0431E1944B1FBF0F0431EFE2B94BF80B25D
S2144006004FF6FF7000B2704700EB81010B6B23F48E
S2144006107F430B630B6B43EA02220A63704700BFBB
S21440062010B400EB8101086B80B208630C6B44EA9F
S214400630036343EA02420A635DF8044B704700BF17
S214400640082303602023036004230360704700BF31
S2144006500F4B994219D84900B2FBF1F2043AFF2AEF
S21440066007D9002301335208FF2A03D9072BF9D1B3
S21440067000E00023110289B21B0403F4E0230B437D
S214400680D2B21A430261002070470120704700BF73
S214400690801A060038B504460D464FF0FF33836295
S2144006A0036A80230360036B0823036020230360F0
S2144006B00423036049682A68054B9847012814BFFD
S2144006C0002001206B7A012B04BF4023236038BDF5
S2144006D0510640002DE9F041CA688D68002A48D08E
S2144006E0002646604B681B0203F4407343F4805474
S2144006F00B7C1B0403F4FE0323434360C6604C6834
S2144007005CB10B78012CC4BF4E7846EA0323022C1A
S21440071004DD897841EA032300E00023C360012A10
S21440072003D10323036001272FE001230360002742
S2144007302BE02146036A13F4807F1DD14C1EF1B195
S214400740012A04D177BBC0F8008067462AE013F040
S214400750020F05D0036B2B70013A0135314600E09D
S2144007602146002AE6D1036A13F0010FFBD0036A44
S2144007701CE04FF0010E19E04FF0050E16E04FF06A
S214400780090E13E04FF0050E10E0036A13F4807E66
S214400790F8D143F6972443F698264FF002084FF0D8
S2144007A0010CCDE713F0020FC3D0D3E77046BDE887
S2144007B0F08100BF0346CA688868002A40D070B4FB
S2144007C000265E600C7C240404F4FE054C6824027B
S2144007D004F440742C435C60DE604D685DB10C7878
S2144007E0012DC4BF4E7846EA0424022D04DD8978E4
S2144007F041EA042400E00024DC600BE0196A11F4AE
S214400800807F1FD111F0040FF8D010F8011B5963F8
S214400810013A07D0196A11F4807F15D111F0040F00
S214400820ECD0F2E71A6A12F480700FD112F0040F7F
S214400830F8D002221A601A6A12F0010FFBD006E0C6
S21440084001207047052002E0052000E0052070BC2E
S214400850704700BF8162036A704700BF006A7047F6
S214400860C06A7047F0B585B00A200F4FB8470023DE
S21440087003930E4B029319238DF80C3004AC0C4BAB
S21440088044F80C3D13200B4B98470B4D2846214609
S2144008900A4EB0470A20B84728462146B047284661
S2144008A0074B984705B0F0BDC9354000801A060092
S2144008B0000E270795434000008001409506400003
S2144008C04106400030B583B00B20104B9847104C83
S2144008D020464FF4802101220E4B98470E4B009342
S2144008E020460B214FF4802270230C4DA84720460B
S2144008F04FF480210A4B98470A4B4FF400621A6027
S214400900002283F80B2303B030BD00BF9543400060
S214400910000E0E40CD3F4000814640002D42400034
S2144009205940400000E100E038B5084CA4EB5004C4
S214400930074D0849A8472146A8472146A8470146EB
S2144009400548064B98472146A84738BD12141F5FF6
S214400950795D400012D3363FFF51D83F655B40007B
S2144009602DE9F04FAFB006460291924604938F4F62
S2144009703868DFF854B2DBF80050DFF85092D9F808
S214400980008000F100408A4C00963146A04706465B
S21440099028460299A0470146864D3046A847064657
S2144009A04046CDF80CA05146A04701463046A847E1
S2144009B04FF07C51A0471190DFF80882D8F800002D
S2144009C0DBF80060D9F800A00099A04706903046B2
S2144009D00399A0470146784E0698B0470690504681
S2144009E00299A04701460698A8474FF07C51A04779
S2144009F01290D8F80000D7F800A0D9F800900299D5
S214400A00A047069050460399A04701460698A84737
S214400A10824648460099A04701465046B0474FF0A8
S214400A207C51A0471390D8F800003F68DBF8008060
S214400A300399A047814638460299A0470146484652
S214400A40B047064640460099A04701463046A8476C
S214400A504FF07C51A047169004980021574B98477A
S214400A6058B138980021554B984730B139980021F5
S214400A70524B9847002840F087844D4CDDF8108054
S214400A8040464146A047064638980146A04701469C
S214400A90494D3046A847064639980146A047014684
S214400AA03046A847464FB847064640463146A047D8
S214400AB02B9038983146A0472C9039983146A0471D
S214400AC02D903A980146A04706463B980146A047D7
S214400AD001463046A84706463C980146A047014690
S214400AE03046A847B84706463A983146A04781461A
S214400AF03B983146A04780463C983146A04707463B
S214400B00304B19680846A8474946A04710902D4BD9
S214400B1019680846A847CDF80C804146A04714906F
S214400B20284B19680846A8473946A04706901F4EE6
S214400B3031680846A847CDF810904946A047179018
S214400B40204B19680846A847189031680846A847B9
S214400B500890DFF87490D9F800100846A8470E9021
S214400B60DFF868A0DAF800100846A8471A90154B38
S214400B701B68D9F80030D9F80030DAF80030114B4D
S214400B8018681968A04700900E4B1B681C93326883
S214400B901E920C4B1868D9F80010A0471B90094BC2
S214400BA0D3F800E0CDF884E012E000BF140900203E
S214400BB0795D4000655B4000695B4000A160400095
S214400BC0290940000C000020180900201C090020BC
S214400BD0DAF800C0CDF888C030683168A0470A907F
S214400BE0D6F800B0CDF88CB0D9F8003026933068EF
S214400BF0DAF80010A0472090D9F80000D9F8001085
S214400C00A0470290D9F800202492DAF800E0CDF808
S214400C109CE0DAF80000DAF80010A0470C90DAF80A
S214400C2000B0D9F800C0CDF83CC0D9F80080CDF867
S214400C30A080DAF8008004980099A047299014987C
S214400C405946A0470146DFF848B32998D847299027
S214400C5006980F99A04701462998A8470F900498F0
S214400C600A99A04701460F98A8470F9008980399FD
S214400C70A0472899A04701460F98A8470F90089884
S214400C803946A0474146A04701460F98A8478046A8
S214400C9004980299A04701464046D84780460498A3
S214400CA00C99A04701464046D8470F90DAF8001006
S214400CB0D6F80080D9F800C0CDF8A0C0DAF80020F9
S214400CC029921098A0472A9003980099A047014679
S214400CD02A98A8472A9006984146A04701462A984F
S214400CE0D847804617982899A04701464046A847C7
S214400CF0804603980A99A04701464046D847804612
S214400D0003980299A04701464046A84780460E9859
S214400D1006973946A0472999A04701464046A84726
S214400D20804603980C99A04701464046D847074658
S214400D30DFF860820F9B18461946A0470F9038464A
S214400D403946A04701460F98A847C0478A4B984760
S214400D50D9F800700F97D6F800C0CDF8A0C0DAF8E2
S214400D6000302993DAF800202A92844B98470146AF
S214400D70A8470746109B03F100400F99A0470F90E5
S214400D8014982899A04701460F98A8470F900698B0
S214400D900099A04701460F98A847009017982999B0
S214400DA0A04701460098A847009006980A99A04791
S214400DB001460098D84700900E980399A0472A9974
S214400DC0A04701460098A847009006980299A04779
S214400DD001460098D847009006980C99A0470146CF
S214400DE00098A8470146A84700900146A847179094
S214400DF020981B99D84728900146A8472B99D84752
S214400E000F901C981E99A047109024982799A047A9
S214400E1001461098A84727900146A8472C99D847DE
S214400E201090D9F800E0CDF870E00298C047CDE9C0
S214400E30140102973846C047CDE91E0100205049AC
S214400E40DDE914234F4FB847CDE924010C98C0473D
S214400E5002460B46DDE92401B84702460B46DDE96B
S214400E601E01494FB847CDE90C0100982899A04784
S214400E70C04702460B46DDE90C01444FB847CDE972
S214400E800C010498C04702460B46DDE90C013D4F75
S214400E90B847CDE90401029F07F100430C93DAF806
S214400EA000C0CDF878C03368249323982699A0478D
S214400EB0029021982299A04701460298D847029767
S214400EC03946A047074600982799A0470146384626
S214400ED0A8470399D8470390D9F800B00A98C04766
S214400EE002460B4600202649264FB847DDE9142324
S214400EF0B847CDE90A011B982099A8470299A04710
S214400F00C047CDE914010098C047DDE90A231E4FCB
S214400F10B84702460B46DDE914011C4FB847CDE9F9
S214400F2014010698C04702460B46DDE91401154FEA
S214400F30B847CDE906010E9B03F100400F99A04744
S214400F40074610980899A04701463846A847C04724
S214400F50CDE91401009B03F100401C99A047C0470F
S214400F60DDE90423084FB84702460B46DDE9140185
S214400F70064FB84710E000BF81474000BD5A4000CA
S214400F800000E03F91514000F95440009551400028
S214400F90655B400051544000CDE914010C981E9901
S214400FA0A047074600982499A04701463846A847D8
S214400FB00399A047C04702460B46DDE91401934F0C
S214400FC0B847CDE9140102985946A047C047DDE925
S214400FD006238F4FB84702460B46DDE914018B4F78
S214400FE0B8478C4B98472690D6F800B0DDE90A23E0
S214400FF010461946B847CDE90A012D98C047024623
S2144010000B46DDE90A01844FB847CDE91401DAF80A
S21440101000200A92D9F80090804BD3F800E0CDF833
S2144010206CE0DAF800C0CDF880C0D6F800A01A9878
S2144010300F99A047064618981099A0470146304693
S214401040A847C047CDE91C0158467549A047C04748
S214401050DDE914236E4EB04702460B46DDE91C011F
S2144010606A4EB047CDE91C01009F38460A99A04712
S214401070C04702460B46DDE90401654EB0470246CE
S2144010800B46DDE91C01614EB047CDE90A01DDF8AB
S21440109008B058464946A0470646009738461B992A
S2144010A0A04701463046A84701460398A047C04798
S2144010B002460B46DDE90A01544DA847804689465C
S2144010C0CDF808B058462099A0470546179851468F
S2144010D0A0470146DFF858B12846D847514DA847A3
S2144010E002460B46DFF828A1DDE90601D047024656
S2144010F00B46464F40464946B847464B984724908D
S214401100DFF83081D8F800201B92474E029B1846E5
S2144011101946B04700F100430A93D8F800102091D2
S2144011203E4BD3F800E0CDF870E0DFF80C91D9F8EC
S21440113000C0CDF878C03D4B1B682193374B1A68EA
S2144011402292D8F800E0CDF88CE0189B03F10041DD
S2144011500F98A04718901A981099A04701461898DB
S214401160B047A847CDE918011B982D49A047A84786
S21440117002460B46DDE91401D04702460B46DDE940
S2144011801801B847CDE914010A982099A04718904D
S21440119000981C99A04701461898D847A847024689
S2144011A00B46DDE90401D04702460B46DDE9140153
S2144011B0B847CDE9140102981E99A04718900098A8
S2144011C02199A04701461898B04701460398A04782
S2144011D0A84702460B46DDE91401B847CDE914019D
S2144011E002982299A047189017982399A04701463D
S2144011F01898D847A84702460B46DDE90601D0476F
S21440120002460B46DDE91401B84717E09551400009
S214401210F9544000BD5A4000915140000C00002057
S214401220000080C051544000695B40001C0900200B
S214401230655B40001809002014090020934B98472E
S2144012401B90934B1A681492D9F800E0CDF85CE0F6
S214401250904BD3F800C0CDF860C0D8F800301A9351
S214401260D9F8008008980F99A04781460E981099A3
S214401270A04701464846B047A847CDE908010A9826
S2144012801499A047814600981799A04701464846BA
S214401290B047A84702460B46DDE90401D047024660
S2144012A00B46DDE90801B847CDE904010C981899CA
S2144012B0A047814600981A99A04701464846B0473D
S2144012C001460398A047A84702460B46DDE90401BD
S2144012D0B847CDE9000102984146A047A8470246D4
S2144012E00B46DDE90601D04702460B46DDE9000124
S2144012F0B847664B98470746DDF898A05046514693
S214401300A0470546DDF8909048464946A047014626
S2144013102846B0470546DDF86C8040464146A04723
S21440132001462846B047054638463946A047014656
S2144013302846B047584B98470646584B1D68504677
S2144013403146A04701462846A04701461198D8474F
S214401350119048463146A0472946A0470146129874
S214401360D847129040463146A0472946A0470146F6
S2144013701398D847139038463146A0472946A04789
S21440138001461698D8471690DFF80891D9F80060BD
S214401390434C11983D99A047424D3146A847C9F85D
S2144013A00000414E376812983D99A0473946A847F5
S2144013B03060DFF8FCB0DBF8007013983D99A0472A
S2144013C03946A847CBF80000314FD7F8008016982A
S2144013D03D99A0474146A8473860D9F80000D9F85B
S2144013E0001033680293D6F800A0DBF80080DBF8E4
S2144013F000200092D7F800E0CDF80CE0D7F800C007
S214401400CDF810C0A047069002985146A047014626
S2144014100698A847824640460099A047014650464F
S214401420A847804603980499A04701464046A847E7
S214401430194B98478046D9F800004146A047C9F85E
S214401440000030684146A0473060DBF80000414667
S214401450A047CBF8000038684146A0473860D9F826
S2144014600000D9F80010DBF800300093D7F800A051
S214401470D9F800200392D6F80080A0474FF07C5160
S2144014800A4B98470290396814E000BFBD5A4000A6
S2144014901C0900200C0000202909400010000020F4
S2144014A0795D4000695B400014090020655B4000A0
S2144014B0180900200491D7F800E0CDF818E000980D
S2144014C05146A047824603984146A04701465046AB
S2144014D0374B98470146A847804604980699A04748
S2144014E001460298A8470146A84701464046314B68
S2144014F09847314B9847DFF8CCA02BA3D3E900237D
S214401500D0472E4B98473E9B186030683968336802
S2144015100093DBF80080A047039000984146A04720
S21440152001460398A8470146A847254B984700F12F
S2144015300040214B98471CA3D3E90023D0471F4BBC
S21440154098473E9B58603068DBF80010D9F800801A
S214401550D7F800B037683668A047814640465946B7
S214401560A04701464846124B98470146A847804642
S21440157038463146A04701460298A8470146A84744
S214401580014640460B4B98470B4B984706A3D3E97A
S2144015900023D047094B98473E9B98602FB0BDE844
S2144015A0F08F00BFAFF30080F8C1631ADCA54C4053
S2144015B0655B4000CD48400051544000BD5A400055
S2144015C02D484000F954400030B583B001900D4698
S2144015D00120584B9847584C12202146574B984765
S2144015E0237813F0200F09D012202021544B98471F
S2144015F05720544B984764232B8071E013F0400FDC
S2144016006AD063232B80122040214D4B98475720A9
S2144016104D4B98474D4B98474D4BC3E900014D4BBA
S2144016209B7AEBB14C4BD97B59730D20444B984772
S214401630484B5B7A43B1484B93F82210474B19808E
S2144016404748484B984738E0474C132021463B4B89
S21440165098472178414B19804148424B98472CE0A7
S21440166010204249354B98473A4B5B7A8BB13A4CFF
S21440167094F82210394B1980237C591AC9B26173E9
S2144016800D202F4B9847364894F82210354B9847F4
S21440169013E0354C13202146284B984714F813196D
S2144016A02E4B1980237C591AC9B261730D20244BE6
S2144016B098472B48E17C2B4B9847284BB3F9003092
S2144016C0274A134400225A70019C214BD3E900015B
S2144016D0274B9847208003E01220FF21184B98475D
S2144016E00C20019901F58171144B9847019A92F8A4
S2144016F002315B0982F80231194C04F1FF0523469A
S2144017001A1B13F8011B019802449170AB42F7D1A3
S21440171002A951F8043D0122A3F80621CB22A3F8E2
S2144017200421144B186841F288320023124CA0471B
S21440173003B030BD711F4000EEAC0020811E40005B
S2144017401D1E40006940400081404000BD204000D2
S214401750280A002018000020DCAC002020090020C9
S21440176024090020A51E4000EFAC0020ECAC002071
S2144017702D5A400064AD0020812C400070B51220E8
S214401780FF21164EB047164C9F2161741120B0477A
S214401790002584F8245024202946B04784F83F503A
S2144017A084F84050402004F13F0102220D4B9847F8
S2144017B00D4D287E21460D4B9847AB7A1BB106202F
S2144017C00B4B984770BD064BD97B59730D20034B86
S2144017D098470520064B984770BD00BF1D1E400029
S2144017E0DCAC0020D51D4000180000203D1D400008
S2144017F0711F40002DE9F84381460F460120DFF86F
S2144018006C80C047154CF7236374002584F8245039
S21440181024202946124EB0471120617CB04784F8F8
S214401820227022203946B047A5730E202946B0477D
S214401830A17B61730D20B04748463946094B98470F
S214401840402084F83F0084F8405004F13F010222D3
S214401850054B98470320C047BDE8F883DCAC002022
S2144018601D1E4000911E4000D51D4000711F4000C7
S21440187080B108B5012805D112208021074B984732
S214401880072008BD022807D112202021034B984785
S2144018900A2008BD06207047662008BD1D1E400071
S2144018A010B5C4B00023ADF80630B0F90631013BA0
S2144018B00A2B5ED8DFE803F0155D184A5D5D2C5DA7
S2144018C05D3B06000123ADF80E31CB23ADF80C315D
S2144018D0294B186802A940F6B8320023274CA04787
S2144018E047E0274B984744E002A80DF10601254BF8
S2144018F098470123ADF80E31CB23ADF80C311E4B83
S214401900186802A942F2107200231C4CA04730E02F
S214401910CB23ADF80C310123ADF80E31164B1868C9
S21440192002A942F210720023144CA04721E0CB23B8
S214401930ADF80C310123ADF80E310F4B186802A9F3
S21440194042F2107200230D4CA04712E002300E4BBC
S214401950197E0E4B98470E4B18680E4B9847122030
S21440196008210D4CA04701200C4B98471220082117
S214401970A04744B010BD00BF64AD0020812C40009D
S2144019807D174000C915400018000020F51740009C
S21440199060AD0020413740001D1E4000711F4000D2
S2144019A070B5C2B02C4B98472C4B98472C4B984759
S2144019B042F27C102B4B98472B4B98472B4B984723
S2144019C001222B4B1A70BFF35F8F62B6CB23ADF864
S2144019D004310423ADF80631AA238DF80230AB2338
S2144019E08DF80330AD238DF80430AE238DF80530E6
S2144019F0AF238DF807301F4D1F4C204E2868694690
S214401A004FF0FF320023A0470128F7D1BDF804313C
S214401A101AB2CA2A1AD1BDF806311AB2C92A07D153
S214401A201220FF21164B98470020164B9847E5E7B3
S214401A301BB2C82BE2D1094B9847094B984742F254
S214401A407C10084B9847084B9847D7E71BB2CB2BE0
S214401A50D4D16846B047D1E785334000452840009A
S214401A60812140000100002065284000C508400054
S214401A704000002064AD0020312E4000A1184000F8
S214401A801D1E4000711F400070B504460D460920DB
S214401A900144224EB0474D2005F14C01B0476A7ACA
S214401AA012F0800F25D095F84C3003F08703872B33
S214401AB00FD1052CB8BF0524142CA8BF1424053C10
S214401AC004F00F0442F0700222F00F0214436C72CE
S214401AD01EE0022CB8BF0224112CA8BF1124023CE1
S214401AE004F00F0442F0700222F00F0214436C72AE
S214401AF00EE044EAE4735BB20E2BA8BF0E2301331C
S214401B0003F00F0342F0700222F00F0213436B7291
S214401B100920697A024B984770BD00BF811E40007D
S214401B201D1E400038B505460C4609200144054BAD
S214401B309847617A01F07F01294361720920024B80
S214401B40984738BD811E40001D1E400070B50646B1
S214401B500C464D204C310B4DA84709202118A8476C
S214401B6094F90930002B04DA36B1872384F84C30D8
S214401B7002E0842384F84C304D2094F84C10024BFD
S214401B80984770BD811E40001D1E400000000000AA
S214401B9038B50C460C4B984709A3D3E900230B4DA8
S214401BA0A8470B4B9847030CA371030AE3712072B6
S214401BB0062021180322074B984738BDAFF3008014
S214401BC00000000080844E400D5440004D574000B9
S214401BD07D5A4000D51D400038B505460C4631209C
S214401BE03031064B984794F8301021F007012943CE
S214401BF084F830103120024B984738BD811E400093
S214401C001D1E400038B505460C460C2809D8052848
S214401C1001D9062806D1052021460C4B98470625B3
S214401C2004E00C2503202146084B98471E20211827
S214401C30074B9847A17F01F00F0141EA0511C9B251
S214401C40A1771E20034B984738BD00BFD91B4000E4
S214401C50811E40001D1E400038B505460C461D201E
S214401C600144064B9847617F21F00E0141EA450149
S214401C70C9B261771D20024B984738BD811E40008F
S214401C801D1E400038B505460C461E200144064B36
S214401C909847A17F21F0040141EA8501C9B2A177A6
S214401CA01E20024B984738BD811E40001D1E400036
S214401CB038B505460C461D200144064B9847617FC3
S214401CC001F00F0141EA0511C9B261771D20024BB0
S214401CD0984738BD811E40001D1E400038B5054659
S214401CE00C461D200144054B9847617F21F00101B9
S214401CF0294361771D20024B984738BD811E40001E
S214401D001D1E400070B506460C4601F11E051E20FD
S214401D1029460222074B9847C6F30122A37F23F0A9
S214401D2003031343A377E6771E2029460222024B7D
S214401D30984770BD391E4000D51D400008B5034683
S214401D4081F8220022201946014B984708BD00BF63
S214401D501D1E400038B505460C4626200144074B5C
S214401D60984794F8261021F0080141EAC501C9B207
S214401D7084F826102620024B984738BD811E400026
S214401D801D1E400070B5104C4FF400232361C4F86C
S214401D90A03023634FF400032361C4F8A0302363CC
S214401DA00A4E0C2031460A4DA8470D203146A8471A
S214401DB00E203146A8470B204FF00061A8474FF44D
S214401DC00063236370BD00BF000E0E400100000894
S214401DD0A14040002DE9F0410546884617460A4C8A
S214401DE00A4E204631460A4B984745F08005E56046
S214401DF0204641463A46074B984720463146064BD2
S214401E009847BDE8F08100BF00800040300A0020BF
S214401E1045044000910440007104400000B583B082
S214401E2002AB03F8011D19460122024B984703B046
S214401E305DF804FBD51D40002DE9F0410546884677
S214401E4017460A4C0A4E204631460A4B984705F03C
S214401E507F05E560204641463A46074B9847204670
S214401E603146064B9847BDE8F08100BF00800040F1
S214401E70300A002045044000C90440007104400078
S214401E8008B50122014B984708BD00BF391E4000E7
S214401E9008B503460A4600201946014B984708BD38
S214401EA0D51D400008B503460A4600201946014B9A
S214401EB0984708BD391E400010B5294B5B79082B62
S214401EC00FD8284C31202146274B9847234613F8F5
S214401ED0301901F07F0183F830103120234B9847AA
S214401EE014E0204C312021461F4B9847234613F8D8
S214401EF0301941F0800183F8301031201B4CA04748
S214401F0036200221A0473A206421A047144B5B7933
S214401F101BB92F204821154B9847114B5B79052B51
S214401F2003D82F204421114B98470D4B5B79063B35
S214401F30DBB2022B03D82F2040210C4B9847094C8C
S214401F4030202146084B9847234613F8301901F0B5
S214401F50FE0183F830103020044B984710BD00BF78
S214401F60180000200CAD0020811E40001D1E4000C1
S214401F7038B50C4C637803F007010B4A11700546E0
S214401F8023F007030343214601F8013F0120074B96
S214401F909847617821F00701294361700120044B7E
S214401FA0984738BDDCAC002014000020811E40005D
S214401FB01D1E400038B501202E4B98472E4B9847A3
S214401FC02E4C012021466F222D4B98472D4D2868D8
S214401FD021462D4B9847A87921462C4B9847E879BF
S214401FE021462B4B9847287A21462A4B98476879B2
S214401FF02146294B9847687A2146284B984740F215
S214402000FF302146264B9847287E2146254B984749
S214402010AB790A2B87BF0120214600201749224B67
S2144020209847184B1A68214B9A420FD9134C802078
S21440203021461F4B9847012021461E4B98471420A7
S214402040104B187121461C4B98470EE00B4C002055
S2144020502146174B984700202146164B98470E209E
S214402060084B18712146144B98470120014B98475E
S21440207038BD00BF711F4000B91E4000DCAC0020D8
S214402080391E400018000020911B4000051C4000EF
S214402090591C4000851C4000B11C4000DD1C40001F
S2144020A0051D40003D1D4000551D4000008F423339
S2144020B0251B40004D1B4000891A400038B5094D8D
S2144020C01B202946084B9847084B5C79084B03EB86
S2144020D0C4042878074B9847D4E90023064CA04709
S2144020E038BD00BFF7AC0020811E4000180000201D
S2144020F0C8A340000D5440009551400070B50B4CAD
S2144021004FF400056561C4F8A0500948094EB04731
S2144021102561C4F8A050656344F2F720B047656176
S214402120C4F8A0504CF6E500B04770BD000E0E4017
S214402130D34E01000100002038B500200C4DA847C2
S2144021400C4C617821F0080141F08001617001205B
S214402150094B98470120A847002384F83F3084F86D
S2144021604030402004F13F010222044B984738BDDE
S214402170711F4000DCAC00201D1E4000D51D4000F5
S21440218030B583B00B4C20460B4B9847002200924C
S21440219020460A490A4B0B4DA847012323600A4BA9
S2144021A098470A4B98470A4B98470A4B984703B0BC
S2144021B030BD00BF0080004075034000300A00205C
S2144021C090D00300C9034000851D4000FD2040001C
S2144021D039214000B51F400070B582B00D46144608
S2144021E01E4608460DF1070101220E4B9847A11BDB
S2144021F00131012202FA06F3013B8B409DF818009C
S21440220000FA01F1C9B29DF8070020EA03000B402E
S21440221003438DF8073028460DF10701024B9847D7
S21440222002B070BD39244000ED23400010B582B0A6
S214402230009068206B2102220323024CA04702B084
S21440224010BD00BFD921400010B582B00090682074
S2144022501B2104220223024CA04702B010BD00BF3F
S214402260D921400010B582B0009068201C2104227D
S2144022700223024CA04702B010BD00BFD921400047
S21440228030B583B014461D4608460DF107010122BD
S214402290074B9847621B01320123AB40013B9340FA
S2144022A09DF807100B401341069A137003B030BDDB
S2144022B03924400010B584B00DF10F030093682018
S2144022C0752106221346034CA0479DF80F0004B024
S2144022D010BD00BF8122400008B5034B9847342804
S2144022E014BF0020012008BDB5224000F0B583B0E1
S2144022F0324E3046324DA84702AC002304F8083D23
S2144023006B20214601222F4FB8473046A8478023EE
S2144023108DF800306B2021460122B8473046A8474A
S214402320294CA0470028FCD0002602AC04F8086DD3
S2144023306B2021460122234DA8470120234B984776
S2144023408DF800606B2021460122A8478DF800607A
S214402350382021460122A847232021460122A847AB
S2144023606B2021460122A847242021460122A84767
S2144023706A2021460122A8470C238DF800306A20A7
S21440238021460122A84703278DF800701A202146CF
S2144023900122A8478DF80060192021460122A8474F
S2144023A038460B4B984701200A4B984701228DF838
S2144023B0002038202146A84703B0F0BD37140D0052
S2144023C001000020ED234000D92240002D2240008D
S2144023D0492240006522400008B501463B200E22B7
S2144023E0014B984708BD00BF3924400070B586B001
S2144023F006460D4614460C4B98470023019305931A
S2144024008DF80460012302930395049468238DF8A5
S2144024101430064D064C284601A9A0470028FAD19C
S214402420044B984706B070BD4528400000800140E8
S214402430B50740006528400070B586B006460D4694
S21440244014460B4B98470023019305938DF8046080
S214402450012302930395049468238DF814300548AD
S21440246001A9054B9847054B984706B070BD00BF7D
S2144024704528400000800140D506400065284000C1
S21440248010B54FF48052084BC3F88021074C2046C5
S2144024900749084B9847084B1868214601220023F5
S2144024A0064CA04710BD00BF00E100E04CAD002048
S2144024B0340A0020D923400068AD0020A12D4000FA
S2144024C030B583B00C200C4B98470C4C0C4B00930B
S2144024D020460C21012270230A4DA84720460121A0
S2144024E0094B9847094B4FF480521A60202283F8D4
S2144024F00C2303B030BD00BF9543400000100E4093
S214402500812440002D4240005940400000E100E058
S2144025102DE9F04FD5B000226F4B1A606F4B9847AD
S2144025206F4B98476F4B98476F4B98476F4B984702
S2144025306F4B4FF6D1721A804FF6F9725A801122BD
S2144025409A804FF0000B6B4B186850A94FF0FF3243
S2144025500023694CA047012840F08C80674B4FF41D
S21440256000321A63624B1A88B3F802A01FFA8AFA3E
S214402570988883B208939DF848019DF8493143EA0C
S2144025800023981A5E4C00B2A047DFF8A0915D4940
S214402590C847DFF89C81C0475B4F4DA3D3E9002373
S2144025A0B8475A4E00225A4BB0475A4DA847099052
S2144025B09DF84A019DF84B3143EA0020CAEB0000E3
S2144025C000B2A0474F49C847C04741A3D3E90023BC
S2144025D0B84700224E4BB047A84782469DF84C016C
S2144025E09DF84D3143EA0020089BC01A00B2A04730
S2144025F04449C847C04736A3D3E90023B84700221A
S214402600434BB047A84706469DF840019DF84131E8
S21440261043EA002000B2A04705469DF842019DF8D7
S214402620433143EA002000B2A04700909DF84401A1
S2144026309DF8453143EA002000B2A0470190CDF80E
S21440264008B0CDF80CB0CDF810B0334B05930BACBA
S21440265006940998514632462B46304DA8471E4BA5
S21440266062681A6022685A60A2689A60234B4FF4E8
S21440267000325A63184F2A4E3868B04785B2786899
S214402680B04784B2B868B04780B28DF83A5045F348
S21440269007258DF83B508DF83C4044F307248DF8D1
S2144026A03D408DF83E0040F307208DF83F00042360
S2144026B0ADF83E31CB23ADF83C311A4B18680EA925
S2144026C001220023184CA0473DE700BFAFF300802F
S2144026D0182D4454FB2109403C0A00204528400060
S2144026E065084000ED22400065284000C1244000B7
S2144026F0340A002068AD0020312E4000000E0E4007
S214402700D15C4000FEFF793DF95440004D574000F3
S21440271000806640BD5A40006F12833A610940000F
S2144027200561400064AD0020812C4000795D40008A
S2144027305154400000F1080343604FF0FF3282607E
S214402740C360036100230360704700BF002303613A
S214402750704700BF43685A684A6042688A605A6851
S21440276091605960416008610368013303607047B7
S21440277010B40C68B4F1FF3F01D103690AE000F1E0
S2144027800803C2681268944204D35B685A681268A9
S2144027909442FAD25A684A6091608B6059600861E8
S2144027A00368013303605DF8044B704743688268F2
S2144027B09A60836842685A6003695A68824204BFD6
S2144027C082685A60002202611A68013A1A601868E4
S2144027D0704700BF03480068006880F3088862B608
S2144027E000DF00BF08ED00E04FF0807340F8043C87
S2144027F040F8081C002340F80C3C40F8202C403899
S214402800704700BF064B19680868B0E8F00F80F3C1
S21440281009884FF0000080F311884EF00D0E704787
S2144028200CAB00204FF08052014B1A60704700BF3F
S21440283004ED00E0EFF311804FF0A00181F3118822
S2144028407047002008B5034B9847034A1368013386
S214402850136008BD352840003400002080F31188FE
S214402860704700BF08B5044A1368013B136013B9AC
S2144028700020024B984708BD340000205D284000E9
S214402880EFF309800C4B1A6820E9F00F10602DE931
S21440289008404FF0A00080F3118800F0FFFE4FF094
S2144028A0000080F31188BDE8084019680868B0E861
S2144028B0F00F80F3098870470CAB002008B54FF046
S2144028C08052054B1A60054B9847054B98470020A9
S2144028D0044B984708BD00BF04ED00E03528400093
S2144028E0A53340005D284000034A044B1A60072287
S2144028F0043B1A60704700BFBFD4010014E000E0FC
S21440290010B5094B1A6842F470021A601A6842F011
S21440291070421A60054B98470024054B1C60054BD7
S2144029209847204610BD00BF20ED00E0E928400053
S21440293034000020D5274000134A00E01A461368AA
S2144029408342FBD330B4114654681519854203D1EF
S2144029506868044454601046426884189C420CD10F
S2144029600A4B1B689C4206D063681A4442600B6858
S2144029701B68036002E0046000E00360814218BF09
S214402980086030BC704700BF4CAA002048AA002010
S21440299038B50446294B9847294B1B689BB9294AAA
S2144029A0294B13600021516049F6F0729818244D67
S2144029B0286049F6F475595199505A601860234A70
S2144029C01368103B1360002C2ED004F1100212F056
S2144029D0070F1CBF22F007020832511E49F6FE734D
S2144029E0994223D817490C6801E021461C46636883
S2144029F09A4202D92368002BF7D1114B1B689C42A0
S214402A0016D00D68103523680B6063689B1A202B20
S214402A1004D9A018436062600D4B98470B4A136870
S214402A2061685B1A136004E0002502E0002500E0C0
S214402A300025084B9847284638BD00BF75334000F0
S214402A4048AA00204CAA0020480A0020380000204F
S214402A5039294000C534400080B110B50446084BC3
S214402A609847084A116854F80C3C0B441360A4F18C
S214402A701000054B9847054B984710BD704700BF60
S214402A80753340003800002039294000C5344000E6
S214402A9010B50446036C3BB903681BBB4068134B38
S214402AA09847002363601DE06AB980681A46104B59
S214402AB09847A268236C1344A3606268934211D37C
S214402AC02368A3600EE0C0681A46094B9847236CFB
S214402AD05B42E2681A44E26021688A4202D2626837
S214402AE01344E360A36B0133A36310BD993A4000DF
S214402AF01967400038B50346006858B11A6CDC6860
S214402B001444DC605D68AC4228BFD8600846D9688B
S214402B10014B984738BD00BF19674000F8B50446DA
S214402B201E4B9847A36C002B13DD636A1BB910E05D
S214402B30636A23B90DE004F12406194D194F304657
S214402B40A84700B1B847A36C013BA364A36C002B15
S214402B50EEDC4FF0FF33A364134B98470F4B984778
S214402B60636C002B13DD23691BB910E0236923B97E
S214402B700DE004F110060A4D0A4F3046A84700B152
S214402B80B847636C013B6364636C002BEEDC4FF02C
S214402B90FF336364044B9847F8BD00BF45284000A8
S214402BA0B1384000E13940006528400038B518B9D2
S214402BB0174B984700BFFDE70D460446154B984710
S214402BC02268216CE36B03FB01F3D01860600020A1
S214402BD0A063A2605B1A1344E3604FF0FF33636464
S214402BE0A36455B923697BB104F110000A4B98479A
S214402BF0012809D1094B984706E004F11000084D1A
S214402C00A84704F12400A847064B9847012038BD42
S214402C103528400045284000B1384000252840006F
S214402C203527400065284000F8B5A0B10D46174648
S214402C30064650200E4B9847044660B105FB06F00A
S214402C4001300B4B9847206040B92046094B9847C7
S214402C5001E000BFFDE7084B9847FAE7E6632564C6
S214402C6020460121054B984784F84D702046F8BD14
S214402C7091294000592A400035284000AD2B40009D
S214402C802DE9F04F85B00192009318B9384B98471C
S214402C9000BFFDE78A46044629B9036C2BB1344B86
S214402CA0984700BFFDE7002700E00027314EDFF8D9
S214402CB0ECB0314DB047A26BE36B9A4212D220463D
S214402CC05146009A2D4B9847636A3BB104F1240065
S214402CD02B4B9847012801D12A4B9847264B9847BB
S214402CE0012042E0019B1BB9234B984700203CE063
S214402CF017B902A8D8470127A847234B9847B0479B
S214402D00636CB3F1FF3F04BF00236364A36CB3F16D
S214402D10FF3F04BF0023A364A84702A801A91B4B9A
S214402D209847E0B9B047D4F83890D4F83C80A847E4
S214402D30C1450ED104F110000199154B9847204625
S214402D40144B9847144B98470028B3D10D4B9847DF
S214402D50B0E720460F4B98470F4B9847AAE72046C8
S214402D600C4B98470C4B9847002005B0BDE8F08FB9
S214402D70352840004528400065284000912A4000FC
S214402D80B138400025284000753340005D3940008A
S214402D900D3840001D2B4000C534400035394000FA
S214402DA02DE9F04118B91E4B984700BFFDE70E4687
S214402DB015469846044629B9036C1BB1184B9847EC
S214402DC000BFFDE7164B98470746A26BE36B9A4257
S214402DD018D2204631464246124B9847A36CB3F170
S214402DE0FF3F0AD1636A7BB104F124000E4B98473B
S214402DF060B16DB101242C600BE0A36C0133A36479
S214402E00012406E0002404E0012402E0012400E05E
S214402E1001243846054B98472046BDE8F08100BF60
S214402E2035284000912A4000B13840005D284000D7
S214402E302DE9F04F85B0019218B9464B984700BF30
S214402E40FDE789469A46044629B9036C2BB1414BA7
S214402E50984700BFFDE7002700E000273E4EDFF81A
S214402E6028B13E4DB047A36B43B3E568204649467C
S214402E703B4B9847BAF1000F12D1A36B013BA363BB
S214402E80236813B9374B98476060236993B104F1C0
S214402E901000354B984701280CD1344B984709E031
S214402EA0E560636A33B104F124002F4B984708B1BC
S214402EB02E4B9847294B9847012048E0019B1BB969
S214402EC0264B9847002042E017B902A8D84701276A
S214402ED0A847274B9847B047636CB3F1FF3F04BF02
S214402EE000236364A36CB3F1FF3F04BF0023A364D5
S214402EF0A84702A801A91F4B984710BBB047D4F873
S214402F003880A847B8F1000F15D1236823B9B047D9
S214402F106068194B9847A84704F124000199174B5D
S214402F2098472046164B9847164B9847002899D105
S214402F300E4B984796E72046114B9847114B9847BB
S214402F4090E720460E4B98470E4B9847002005B01A
S214402F50BDE8F08F352840004528400065284000F1
S214402F60F52A4000ED394000B138400025284000A1
S214402F70753340005D394000193A40000D38400036
S214402F801D2B4000C53440003539400038B5044656
S214402F900D460D4B9847636CB3F1FF3F04BF0023CB
S214402FA06364A36CB3F1FF3F04BF0023A364074BE5
S214402FB09847A36B23B904F124002946044B98474D
S214402FC02046044B984738BD4528400065284000B9
S214402FD06D3840001D2B400010B504460E4B1B6854
S214402FE058600E4B1B68984207D20D4B18680A4B28
S214402FF0196804310B4B984710BD0B4B1868064BAD
S21440300019680431074B9847084B1B689C423CBFE5
S214403010064B1C6010BD00BF0CAB002028AB002048
S2144030202CAB00207127400068AA00203C000020FE
S2144030302DE9F04F83B00C9FDDF834800E9E019052
S21440304018B9624B984700BFFDE7894615469B4630
S214403050042F03D95D4B984700BFFDE74C205C4BDF
S21440306098470446002800F0AB80002E40F0A5802C
S214403070A800574B9847206318B92046554B9847A9
S2144030809EE0A521AA00544B984705F18045013D96
S214403090236B03EB850323F0070504F13400494610
S2144030A00C224E4B9847002384F83F303E46042F70
S2144030B028BF0426E662A66404F104094846DFF801
S2144030C06CA1D04704F11800D0472461C6F105062C
S2144030D0A6616462284601995A46414B984720604B
S2144030E010F0070F03D0394B984700BFFDE7B8F103
S2144030F0000F01D0C8F800403A4B98473A4A136848
S21440310001331360394B1B680BBB384B1C6013688C
S214403110012B26D1364D05F16408364E2846B04779
S21440312014354545FAD1DFF808814046314DA84769
S214403130314E3046A8473148A8473148A84731481D
S214403140A847314BC3F80080304B1E6009E0304B37
S2144031501B6833B9254B1B68DB6A9F4224BF234B51
S2144031601C60E06A2B4B1B68984284BF294B186052
S214403170294A1368236401331360284B1B6898421E
S21440318084BF264B186000EB8000194B03EB800091
S2144031904946234B9847234B98471D4B1B6843B1E2
S2144031A0124B1B68DB6A9F4205D91F4B984701208C
S2144031B008E0012006E0012004E00663304660E7B0
S2144031C04FF0FF3003B0BDE8F08F00BF3528400019
S2144031D091294000592A40004D68400091694000BE
S2144031E0E9274000452840004CAB00200CAB0020AF
S2144031F0A4AA0020352740008CAA002010AB00204F
S21440320078AA002054AA002068AA00202CAB0020F0
S21440321070AA002050AB002030AB0020A0AA0020AF
S2144032205527400065284000252840004D2740008F
S21440323034AB002008B518B9094B984700BFFDE7E6
S2144032404169084A914207D1806A074B984205D0A7
S214403250B0FA80F0400908BD002008BD002008BD37
S2144032603528400054AA002010AB0020F8B518B905
S2144032701C4B984700BFFDE705461A4B9847074644
S2144032802846194B9847012825D1184B1B68DBB9AF
S214403290174B1B68EC6ADB6A9C4234BF002401244F
S2144032A02E1D3046134B9847E86A134B1B689842CE
S2144032B084BF114B186000EB8000104B03EB80007E
S2144032C031460F4B984707E00E4805F118010C4B66
S2144032D09847002400E0002438460B4B9847204689
S2144032E0F8BD00BF352840003532400008AB00200E
S2144032F00CAB0020AD274000A0AA0020A4AA0020C6
S2144033005527400010AB00205D28400010B584B023
S214403310002300930193029303930E480E498222A2
S2144033200E4CA04701280ED10D4B984701280AD1D4
S2144033300C4B984701220C4B1A6000220B4B1A602C
S2144033400B4B984704E018B9064B984700BFFDE77B
S21440335004B010BD113640002CA44000313040006F
S214403360913B40003528400070AA002028AB002042
S21440337001294000024A136801331360704700BFBA
S21440338008AB002010B5044B9847044B1C68044B10
S2144033909847204610BD00BF4528400028AB002077
S2144033A0652840002DE9F0413A4B1B68002B6BD155
S2144033B0394B1A6801321A601B6803BB374B1B68CF
S2144033C01B681BB1364B984700BFFDE7334B196867
S2144033D0344A10681860116033490A6801320A603E
S2144033E01B681B6823B94FF0FF32304B1A6006E06B
S2144033F02A4B1B68DB68DB685A682C4B1A60264BE6
S2144034001A682A4B1B689A4242D3244B1B681B6897
S2144034106BB1224B1B68DB68DC6863681E4A126827
S214403420934213D8224E234FDFF8948012E04FF099
S214403430FF321E4B1A60BDE8F081184B1B68DB68F4
S214403440DC686368144A1268934203D9174A1360CB
S214403450BDE8F081251D2846B047A36A13B104F1A4
S2144034601800B047E06A3B68984288BF386000EB77
S214403470800008EB800029460F4B9847074B1B6897
S2144034801B68002BD9D1D2E70C4A1368013313606E
S214403490BDE8F08108AB002028AB002068AA0020D9
S2144034A0352840002CAB002024AB00203C000020F8
S2144034B0AD274000A0AA0020552740006CAA002057
S2144034C0A4AA00202DE9F843304B1B681BB9304BAB
S2144034D0984700BFFDE72F4B98472C4B1A68013A98
S2144034E01A601B68002B49D12B4B1B6803BB00247A
S2144034F047E0D8F80C30DC6804F11800B84704F10F
S21440350004094846B847E06A3368984288BF306046
S21440351000EB8000214B03EB80004946204B984748
S214403520204B1B68E26ADB6A9A4228BF012504E00A
S2144035300025DFF890801C4F1C4ED8F80030002B3A
S214403540D7D11B4B1B6863B1194B1B687BB1194D18
S214403550174CA8472368013B23602368002BF8D10B
S21440356005E0012D03D0144B1B68012B08D1002227
S214403570114B1A60114B9847012402E0002400E0EA
S21440358000240F4B98472046BDE8F88308AB002040
S21440359035284000452840004CAB0020A4AA002017
S2144035A0552740000CAB0020AD274000A0AA0020C5
S2144035B06CAA0020A533400048AB002025284000D8
S2144035C06528400010AB002010B580B10446094B7A
S2144035D09847094B1B681C44084B18680430084B36
S2144035E098472046074B9847074B984708B9074BDC
S2144035F0984710BD7533400028AB00200CAB002028
S214403600AD274000D92F4000C53440002528400053
S21440361080B5164DDFF87C80154E164F19E0C04732
S2144036203468B847ACB1144B9847F368DC68201D43
S214403630124B9847124A1368013B13602B68013BB4
S2144036402B60104B9847206BDFF84C90C8472046BD
S214403650C8472B68002BE2D10B4B1B68012B01D9C6
S2144036600A4B98470A4B9847F3E700BF74AA0020D6
S21440367078AA0020C534400045284000AD274000C9
S2144036804CAB002065284000A4AA00202528400016
S2144036904147400075334000592A400010B5224B40
S2144036A01B686BB9214B1B6803EB83039B00204AC6
S2144036B0D358CBB91D4B1B6843B11C4A1C4909E083
S2144036C001221C4B1A6010BD13681BB91A4B984751
S2144036D000BFFDE71368013B1360136803EB8303E9
S2144036E051F82330002BEFD0104B1B68104A99003E
S2144036F0C81802EB8000446864684460024608329A
S214403700944206D1606803EB8301094A02EB8102CA
S214403710506003EB8303064A02EB83035B68DA6878
S214403720064B1A6010BD00BF08AB0020A0AA0020C0
S214403730A4AA002048AB0020352840000CAB00204F
S21440374038B50446274B9847274B1B689C4200D009
S2144037501CBB254B1C68251D2846244B9847A36A4E
S214403760002B33D120E0224B1B6813B1214B9847E6
S21440377038BD214B1A68214B1B689A4203D1002260
S214403780194B1A6038BD1E4B984738BD1A48294613
S2144037901C4B98471C4B984738BD251D2846134B55
S2144037A09847A36A3BB9F1E713482946154B984713
S2144037B0154B9847D7E704F118000C4B98470E482E
S2144037C02946104B9847104B984738BD04F11800CF
S2144037D0064B9847084829460A4B98470A4B98474D
S2144037E0C1E700BF452840000CAB0020AD27400095
S2144037F070AA00202528400054AA00204CAB002088
S2144038009D364000552740006528400038B518B919
S2144038100E4B984700BFFDE70C460D4D2968183102
S2144038200C4B9847286804300B4B9847B4F1FF3F41
S21440383005D1296809480431094B984738BD094BDA
S21440384018682044084B984738BD00BF35284000CC
S2144038500CAB002071274000AD27400054AA002042
S2144038605527400028AB0020D92F400038B518B95E
S214403870094B984700BFFDE70D46084C21681831B4
S214403880074B984720680430064B9847064B186805
S2144038902844064B984738BD352840000CAB0020DE
S2144038A055274000AD27400028AB0020D92F4000C8
S2144038B038B5C368DC681CB9164B984700BFFDE7AF
S2144038C004F118052846144B9847144B1B689BB9BF
S2144038D0251D2846104B9847E06A114B1B689842B6
S2144038E084BF0F4B186000EB80000E4B03EB80004C
S2144038F029460D4B984703E00C4829460A4B984703
S2144039000B4B1B68E06ADB6A984234BF00200120FC
S21440391038BD00BF35284000AD27400008AB00202A
S214403920A0AA0020A4AA00205527400010AB0020E3
S2144039300CAB002008B518B9054B984700BFFDE70B
S214403940044A12680260044A1268426008BD00BF1A
S2144039503528400024AB002028AB002038B518B9E5
S214403960194B984700BFFDE70D46044619B9164B5C
S214403970984700BFFDE7154B98472B68B3F1FF3FCC
S21440398018D0134A12682168914204D0114A12682E
S2144039906168914210D90F4A11686068091A8B42D3
S2144039A00CD91268121A9B1A2B6020460A4B98476D
S2144039B0002404E0002402E0012400E00124074B38
S2144039C09847204638BD00BF35284000452840006F
S2144039D024AB002028AB0020353940006528400045
S2144039E00122014B1A60704748AB0020014B186813
S2144039F0704700BF0CAB0020054B1B6833B1054B2E
S214403A001B68002B0CBF0120022070470020704727
S214403A1070AA002008AB0020002831D038B5C36A11
S214403A2018490968C96A8B4229D216490968C96A81
S214403A30C1F10501816103EB8303134901EB830365
S214403A404169994217D10546041D20460F4B9847B9
S214403A500C4B1B68D86AE8620D4B1B68984284BFC3
S214403A600B4B186000EB8000074B03EB80002146B1
S214403A70084B984738BD034B1B68DB6AC36238BDAA
S214403A80704700BF0CAB0020A4AA0020AD27400022
S214403A90A0AA002055274000E8B138B5C16A826C1C
S214403AA0914217D00446051D28460B4B9847A06CFC
S214403AB0E062C0F10503A361084B1B68984284BFCF
S214403AC0064B186000EB8000054B03EB8000294650
S214403AD0044B984738BD7047AD274000A0AA002049
S214403AE0A4AA00205527400010B504464160206136
S214403AF091420AD8D21A83699A4211D20A4B186860
S214403B00211D0A4B9847002010BD9A4201D2994287
S214403B1008D2074B1868211D044B9847002010BD5B
S214403B20012010BD012010BD88AB00207127400049
S214403B3054AB002070B50D4B98470D4B1B688BB9A6
S214403B400C4D28460C4EB0470C4C2046B0470C4B0C
S214403B501D600C4B1C6005200C2100220A4B984728
S214403B60034B1860094B984770BD00BF452840007E
S214403B7084AB002058AB0020352740006CAB0020BB
S214403B8054AB002088AB0020292C4000652840001C
S214403B9010B584B00B4B98470B4B1B6863B104239E
S214403BA000930023019302930393084808494FF477
S214403BB08272084CA04718B9074B984700BFFDE7EC
S214403BC004B010BD353B400084AB0020E53C4000CF
S214403BD038A44000313040003528400030B585B02C
S214403BE00F4C2568C5B10191029203906BB90D4BFD
S214403BF0984701280A4B186801A907BF089A00236E
S214403C0000221346084CA04707E0284601A91A465A
S214403C100023064CA04700E0002005B030BD00BFA2
S214403C2084AB0020F9394000812C4000A12D400093
S214403C302DE9F04782B08146224B98478046224B7A
S214403C401B68984234D224E0DA68D2F800A0DB68D9
S214403C50DC68251D2846B847636A20469847E369CE
S214403C60012B18D1A3695344534506D96360246198
S214403C7030682946154B98470DE0002300932046B0
S214403C8019465246124CA04728B9124B984700BFD7
S214403C90FDE7114E114F33681A68002AD4D1104AF6
S214403CA010680D49086013600123C9F8003002E02F
S214403CB00023C9F80030044BC3F80080404602B0E9
S214403CC0BDE8F0878533400080AB00207127400078
S214403CD0DD3B40003528400054AB0020AD27400077
S214403CE088AB00202DE9F04387B04D4DDFF860816A
S214403CF04C4B1B681A68002A00F08780DB681E68F9
S214403D00494B984703A8494B98470746039B002BC7
S214403D1030D1864224D8464B9847424B1B68DB68D6
S214403D20DC68201DC047E369012B14D1A1692046F9
S214403D3031443A4633463F4FB84701280BD100231B
S214403D4000932046194632463B4EB04718B93B4B87
S214403D50984700BFFDE7636A204698470CE0002678
S214403D602868F11B364B9847314B984720B9354B5E
S214403D70984701E02E4B984702A82C4B9847074699
S214403D80314EDFF8B09038E0059C1CB163690BB14A
S214403D90201DC047039B022B1FD0032B2AD0002B8D
S214403DA02BD1049BA169204619443A46C8470128AE
S214403DB023D1636A20469847E369012B1DD1A26947
S214403DC00023009320461946049C22441A4CA047E0
S214403DD098B91A4B984700BFFDE70499A16119B9F5
S214403DE0164B984700BFFDE7204639443A463B46C7
S214403DF0C84702E02046154B9847286803A900228A
S214403E001346B0470028BFD172E7074B984703A830
S214403E10064B98470746039B002BA0D0AAE700BF57
S214403E2084AB002054AB002075334000313C40004A
S214403E30C5344000E93A4000DD3B400035284000AC
S214403E408D2F400025284000312E4000592A400042
S214403E50AD27400021F4FE7121F001018905890D4E
S214403E600162704710B50E480E4B984700203E2121
S214403E700D4B98470D4CA0470028FCD00C4B98475C
S214403E800C4A0D4B9A620D4CA0470028FCD01020DF
S214403E900B4B98470B4B98470148024B984710BD31
S214403EA0000E2707B94540001143400065434000D7
S214403EB075434000013F132000040E4085434000F8
S214403EC0A9424000A544400038B51548154B9847D0
S214403ED00B20154CA0470C20A0470D20A047134DA3
S214403EE004202946124CA04703202946A047114BE0
S214403EF04FF400321A61C3F8A0204FF400121A6142
S214403F00C3F8A02040221A61C3F8A02010221A61EC
S214403F10C3F8A02008221A61C3F8A02038BD00BF0D
S214403F2050140E40E943400095434000010000080D
S214403F30A1404000000E0E404264B1F1C05F2FD059
S214403F4007D8B1F1006F14D0B1F1805F1ED039B9F7
S214403F507047B1F1205F37D004D8B1F1005F29D067
S214403F6042607047B1F1405F2ED0B1F1605F2BD018
S214403F70F6E710B4016F046FD34321401940016740
S214403F80416F446F21400B4043671AE0036F134371
S214403F900367436F416F0B4023EA02034367DFE743
S214403FA0036F016F0B4023EA02030367436F13431B
S214403FB04367D5E7036F13430367436F1343436772
S214403FC0CEE742605DF8044B704700BF416412F094
S214403FD0010F14BF4166016612F00A0F14BF01625A
S214403FE0416212F0020F02D0C0F8801004E012F0D6
S214403FF0080F18BFC0F8841041610160704700BFC9
S21440400010B44164019C0CB1416600E001660BB1FE
S214404010016500E041650AB1016300E0416301616A
S21440402001605DF8044B704712F0100F10D0C0F8D6
S214404030B01012F0200F14BFC0F8D410C0F8D01043
S21440404012F0400F14BFC0F8C010C0F8C41070473C
S214404050C0F8B410704700BFC36C0164704700BF1F
S214404060C06C7047806C7047430903F5001303F239
S21440407007735B0200F01F00012282401A637047FC
S214404080430903F5001303F207735B02996B00F0D4
S2144040901F00012282400A4214BF5A631A637047C7
S2144040A070B582B00D46430903F5001303F207735B
S2144040B05C0201F0F043B3F1005F47D009D8B3F19A
S2144040C0805F21D0B3F1C05F2FD0B3F1006F6FD1C6
S2144040D009E0B3F1405F55D0B3F1605F52D0B3F121
S2144040E0205F44D064E000F01F0001268640204652
S2144040F04FF000613246304B984715F0010F14BF21
S21440410066662666012054E000F01F0001268640C1
S21440411020464FF080513246274B984715F0010F06
S21440412014BF66662666012043E000F01F000126A5
S214404130864020464FF0C05132461F4B984715F0F8
S214404140010F14BF66662666012032E000F01F00AD
S2144041500126864020464FF000513246164B98477F
S21440416015F0010F14BF66662666012021E000F0B8
S2144041701F030126204606FA03F12A460F4B9847AE
S214404180304616E000F01F03012605F0605205EAAF
S21440419006010091204606FA03F1B2F1605F14BFB3
S2144041A000220122C5F38003054CA047304600E0BC
S2144041B0002002B070BD00BF393F4000CD3F4000F8
S2144041C0014040002DE9F84381468846124B984707
S2144041D005464846114B9847054013D0104C04F10D
S2144041E060062368434508D16168294205D0E368E4
S2144041F040469847636825EA0305B44202D0103427
S214404200002DEED1074B1B6823B1074B1B680BB143
S21440421048469847BDE8F883614040006540400006
S21440422094AB00205CAD002090AB0020F8B50C4C61
S2144042302468062C11D815460A4F2201BE18B950DC
S2144042407560B360069AF2600134054A14602946E8
S2144042501A46054B98470020F8BD0120F8BD00BF20
S2144042608CAB002094AB00202940400008B50248A3
S2144042700B21024B984708BD000E0E40C54140003A
S21440428008B502480C21024B984708BD00100E4066
S214404290C541400008B502480D21024B984708BD6D
S2144042A000120E40C5414000184A136B23F07003BD
S2144042B018431063936E13F0080F03D009E0013BD8
S2144042C003D11EE04FF4006310498A6E12F0080FC7
S2144042D0F5D00E4A136B23F0030343F00203136337
S2144042E0906E10F0080004D000207047013B03D1C8
S2144042F009E04FF4006305498A6E12F0080FF5D0C6
S2144043007047012070470120704700BF00040E40F0
S21440431038B111490B6A114A1A40114B13430B62CC
S21440432070470D4A136A23F45C1323F0030343F4E7
S2144043305C1343F00103090289B20B431362936E88
S21440434013F0010FFBD0044A136A43F09B7343F407
S21440435080331362704700BF00040E40FCFFC8FE67
S21440436002003701024B986E00F48030704700BF61
S21440437000040E404FF00052014B9A62704700BF57
S21440438000040E40024B986E00F00200704700BFDB
S21440439000040E4022281ED81F280CD8114B9A69BC
S2144043A0012383401A40934217D0012383400D4A8D
S2144043B01361002070470B4BD3F8082120380123A7
S2144043C083401A4093420AD001238340054AC2F8EC
S2144043D000310020704701207047002070470020C1
S2144043E0704700BF00040E404FF4004343607047E0
S2144043F0FEE700BF08B5204B204A9A4213D9204B0F
S2144044001D4A9A421FD21146043203339B1A23F0A8
S21440441003030433194A134452F8040B41F8040BBF
S2144044209A42F9D10FE0144B144A9A420BD2144BDD
S214404430114A9A1A134881182AB151F8042943F8A8
S214404440042D8142F9D100BF0F4B104A9A420BD23D
S214404450131D0F4AD21A22F003021A44043B0021CD
S21440446043F8041B9342FBD10A4B0B4A9A600B4B12
S21440447098470B4B9847FEE7000000205CA640009C
S214404480C408002058A6400078AD0020C808002088
S2144044907BAD002000ED00E000004000C966400013
S2144044A0AD4640003D4B1B6B03F00303032B5DD82A
S2144044B0DFE803F0020E2B2B394B5B6913F0800FBD
S2144044C014BF4FF400424FF4FA42364B1A604DE0A8
S2144044D0324B1B6A13F0807F03D0334A314B1A604D
S2144044E044E0324A2F4B1A602C4B1B6A03F0700391
S2144044F0102B02D0202B04D038E02D4A294B1A60CE
S21440450034E0294A274B1A6030E0244B1B6A13F0EC
S214404510807F03D0244A234B1A6012E0234A214B63
S2144045201A601E4B1B6A03F07003102B02D0202B20
S21440453004D006E01E4A1B4B1A6002E01A4A194B8A
S2144045401A60164B1B6B03F00303022B134A07BF7C
S214404550936A926AD36AD26A1248C3F30A410368DE
S21440456001FB0333D2B2B3FBF2F303600B4B1B6B7E
S21440457003F07003702B07D10A4A13680D49A1FB5C
S21440458003135B0813607047044B1A6B0549C2F36C
S21440459002120B68D3400B60704700BF00040E4009
S2144045A010140E4044000020001BB70000093D00D8
S2144045B000127A00ABAAAAAA1A4B984207D84FF024
S2144045C08063194A136002F5007213607047174BF8
S2144045D0984206D8164B144A136002F500721360D0
S2144045E07047144B984206D8134B0F4A136002F597
S2144045F0007213607047114B984206D8104B0A4A17
S214404600136002F50072136070470E4B984294BFD9
S2144046104FF004230C4B044A136002F500721360FB
S214404620704700BFFF2C3101000A0E40FF5962025E
S21440463000010004FF86930300020004FFB3C40495
S21440464000030004FFE0F50500050004094B1B6865
S21440465013B9094A074B1A60064B1B681A180749D4
S214404660914204DB1046034A1060184670474FF0EC
S214404670FF30704704AC002078DD0020FC7F02202D
S21440468008B54FF40062054BC3F880210020044B68
S2144046909847044B1868044B984708BD00E100E073
S2144046A07118400060AD00206D32400000B585B006
S2144046B0164B9847164B984703204FF484710022B8
S2144046C0144CA047144B1860082010210022A04725
S2144046D0124B186001260096114B01930024029459
S2144046E003941048104940F2DA2223460F4DA8475B
S2144046F000960F4B0193029403940E480E4940F2E5
S21440470012222346A8470D4B9847FEE7653E4000D9
S214404710C93E4000292C400064AD002068AD002012
S21440472070AD00201125400040A4400031304000CC
S21440473060AD0020A119400048A440000D33400061
S214404740FEE700BF08B5084CE26A08480849094B2E
S2144047509847E36A13F0804F04D0A26A0648074998
S214404760044B984701BEFEE700ED00E008AC002091
S21440477050A44000E968400058AC002064A44000C3
S2144047802DE9F047DFF8A0A08AB006460F4600F0B5
S2144047909FF89AF90030013304460D460FD0304654
S2144047A0394600F089FB50B14FF000084FF0000941
S2144047B042464B463046394601F010F920B920466D
S2144047C029460AB0BDE8F087164B9AF80040019398
S2144047D001220023CDE90467CDE9026700920893E1
S2144047E064B9CDE90689684600F092FB80B1089B23
S2144047F09BB9DDE906010AB0BDE8F0874046494668
S21440480042464B4600F0A2FF022CCDE90601EAD113
S21440481001F054FF21230360E9E701F04FFF089BB6
S2144048200360E6E778A440004800002070B5244DB9
S2144048308AB0064600F010F995F900300133044678
S21440484003D0304600F086FC10B920460AB070BD52
S214404850304600F07BFC4FF07E5101F049FC0028CA
S214404860F3D00123174A0093304600230192089361
S21440487000F0EEFD02460B461348CDE90423CDE991
S214404880022300F047FB95F90030022BCDE90601E4
S2144048900BD0684600F03CFB38B1089B53B9DDE9C5
S2144048A0060101F00BF90AB070BD01F007FF2123A5
S2144048B00360F2E701F002FF089B0360EFE700BFEA
S2144048C04800002080A4400030A4400000F010BA09
S2144048D02DE9F8435F4EB6460E4076450C460B46ED
S2144048E0054600F097800029024676DD0F1500F059
S2144048F08180A7F2FF37C3F31303F80743F480130E
S21440490060D4D10F002601EB43037F105200B64619
S21440491016204FF400110EEB01049C424FEAD2756C
S2144049204FEA420203DC1B1B04EB010E0E44013827
S21440493005EB43034FEA5101EDD1844620254FF065
S21440494000410AE0734521D0D40F013D4FEA5101A2
S21440495004EB43034FEA420221D09E450CEB010490
S214404960F0DA002C04EB010C0ADBF046CEEB030336
S214404970944288BF03F1FF33121B0844C646E3E760
S214404980BCF1000FF1DB0EF10108EFE7944217D8B7
S214404990002C04EB010C47DB98460023ECE713435E
S2144049A015D14008731003F17F5303F50013F20747
S2144049B003EB075948BF40F000404946BDE8F8833E
S2144049C09E46C1E7D10F01EB4303520099E7411CD5
S2144049D030D000F001031844E3E721F000460643D8
S2144049E0ECD071BB0F46D30A153F5205002BFAD0C8
S2144049F0DD0222D400215B00DC0201F10101FAD580
S214404A00C1F10100C1F1200422FA04F42343074413
S214404A108A406EE702460B4600F06EFD2A46234665
S214404A2000F0B8FBBDE8F883BCF1000FABDAF04607
S214404A300023A1E701362846B4E7202401200021C0
S214404A40E2E702460B4600F0A3FB02460B4600F0A8
S214404A507DFEB3E70000F07F2DE9F04720F00045EB
S214404A60B5F17E5F0446064600F0C78011DCB5F11E
S214404A707C5F16DAB5F1485F80F2CD808C4901F054
S214404A8073F84FF07E5101F033FB50B12046BDE83D
S214404A90F087014601F066F8014601F021FABDE8CC
S214404AA0F087204600F052FB01464FF07E5001F062
S214404AB059F84FF07C5101F05FF97E49044601F009
S214404AC05BF97D4901F050F8214601F055F97B49E4
S214404AD001F048F8214601F04FF9794901F044F8D1
S214404AE0214601F049F9774901F03CF8214601F0AA
S214404AF043F9754901F038F8214601F03DF973490C
S214404B008146204601F038F9714901F02BF82146DC
S214404B1001F032F96F4901F027F8214601F02CF9EF
S214404B206D4901F01FF8214601F026F94FF07E51FD
S214404B3001F01AF88046204600F06AF9674B9D421D
S214404B40074644DC014601F00FF841468246484697
S214404B5001F0C6F90146504601F00EF927F47F658C
S214404B6025F00F0580462946284601F005F90146FE
S214404B70204600F0F7FF29460446384600F0F4FF8A
S214404B800146204601F0ACF9014600F0EDFF014633
S214404B90534800F0E7FF0146404600F0E3FF294651
S214404BA00446284600F0E0FF01464E4800F0DAFF93
S214404BB00146204600F0D6FF01464A4800F0D2FFA4
S214404BC0002E3FF764AF00F10040BDE8F087414655
S214404BD0484601F085F90146384601F0CDF8394699
S214404BE000F0C2FF014600F0BFFF3F4900F0BCFFA7
S214404BF001463E4800F0B6FFE2E73C4901F0BCF80B
S214404C0037490546204601F0B7F80146284600F0E9
S214404C10ABFFBDE8F087014601F0AEF825490546F2
S214404C2001F0AAF8244900F09FFF294601F0A4F8B5
S214404C30224900F097FF294601F09EF8204900F0EF
S214404C4093FF294601F098F81E4900F08BFF29464D
S214404C5001F092F81C4900F087FF294601F08CF8D5
S214404C601A490646284601F087F8194900F07AFFA7
S214404C70294601F081F8174900F076FF294601F0F1
S214404C807BF8154900F06EFF294601F075F84FF0A5
S214404C907E5100F069FF0146304601F021F9014699
S214404CA0204601F069F8214600F05EFFBDE8F08737
S214404CB0CAF2497108EF1138047F4F3A4611243D35
S214404CC0A80A4E3E90B0A63EABAA2A3E2EC69D3DB2
S214404CD06133303F2D57014039D119409999793F7A
S214404CE02EBD3BB3DB0F493F2EBD3B33DB0FC93FE9
S214404CF0F8B521F00044B4F1FF4F034614DC20F031
S214404D000046B6F1FF4F07460EDCB1F17E5F3AD063
S214404D108D1705F0020545EAD07556B9022D30D0FC
S214404D20032D2BD13148F8BD0846194600F01CFF2C
S214404D30F8BDFCB1B4F1FF4F29D0B6F1FF4F19D002
S214404D40341BE4153C2C1ADC002938DB184601F0ED
S214404D50C7F800F0FBF900F0E3F8012D2CD0022D47
S214404D6022D0002D2FD0224900F0FEFE214900F02F
S214404D70F9FEF8BD002F15DB1F48F8BDF8BD1E48EC
S214404D80EBE71C48F8BDBDE8F84000F0C9B8B6F1FE
S214404D90FF4F19D0022DF4D0032DC3D0012D1BD0C8
S214404DA00020F8BD1548F8BD114900F0DDFE01466B
S214404DB0104800F0D7FEF8BD00F10040F8BD3C3486
S214404DC0C4DA0020C9E7F8BD022D0CD0032D08D068
S214404DD0012D04D00A48F8BD4FF00040F8BD094800
S214404DE0F8BD0948F8BD0948F8BD00BFDB0F49C00B
S214404DF02EBDBB33DB0F4940DB0FC93FDB0FC9BFBE
S214404E00DB0F493FDB0F49BFE4CB16C0E4CB16406F
S214404E1020F00042B2F1FF4F70B5034604462DD253
S214404E205AB300283DDBB2F5000F4FEAE0502CD3D2
S214404E307F38C3F31603C20743F4000348BF5B0042
S214404E40002640105B00314619244FF080728D18C2
S214404E509D4202DC5B1BA9181644013C4FEA430303
S214404E604FEA5202F3D113B106F001031E44761006
S214404E7006F17C5606EBC05070BD70BD014600F092
S214404E807BFF214600F070FE70BD14F400020FD187
S214404E905B00190202F10102FAD5C2F10102104488
S214404EA0C6E7014600F05EFE014601F019F870BD07
S214404EB001221044BCE700BF10B431F0004408D0D3
S214404EC0114BA1F580129A4208D804205DF8044B95
S214404ED0704718B902205DF8044B704701F1FF4156
S214404EE0094B01F5E0019942EFD9B4F5801F01D294
S214404EF00320EBE7054B9C4201D00020E6E7B0FAE2
S214404F0080F04009E2E700BFFFFFDF7F0000F07F50
S214404F100020704700200149704700BF0000F87F1E
S214404F202DE9F04120F00045B5F1A14F0446064674
S214404F3008DBB5F1FF4F6FDC002840F3A0806F48D8
S214404F40BDE8F0816E4B9D4277DCB5F1445F68DB8F
S214404F504FF0FF372146204600F00EFF01468046C0
S214404F6000F00AFF6749054600F006FF664900F074
S214404F70FBFD294600F000FF644900F0F5FD294698
S214404F8000F0FAFE624900F0EFFD294600F0F4FE1C
S214404F90604900F0E9FD294600F0EEFE5E4900F06B
S214404FA0E3FD414600F0E8FE5C498046284600F0B6
S214404FB0E3FE5B4900F0D6FD294600F0DDFE594988
S214404FC000F0D0FD294600F0D7FE574900F0CAFD54
S214404FD0294600F0D1FE554900F0C4FD294600F0B0
S214404FE0CBFE7B1C014640464CD000F0BDFD214622
S214404FF000F0C2FE4E4B4F4D53F8271000F0B2FD66
S214405000214600F0AFFD014655F8270000F0AAFD06
S214405010002E30DBBDE8F081014600F0A5FDBDE87E
S214405020F081454900F0A0FD4FF07E5101F060F858
S21440503000288DD02046BDE8F08100F087F83F4B31
S2144050409D42044629DCA3F5D0039D4244DC01463C
S21440505000F08AFD4FF07E5100F084FD4FF0804115
S2144050600546204600F080FD0146284600F038FF01
S214405070002704466EE700F10040BDE8F081304866
S214405080BDE8F08100F070FD214600F075FE014657
S214405090204600F067FDBDE8F0812A4B9D4214DCB7
S2144050A04FF07F5100F05EFD4FF07F5105462046A1
S2144050B000F062FE4FF07E5100F056FD0146284655
S2144050C000F00EFF0227044644E701461E4800F063
S2144050D007FF032704463DE74FF07E5100F042FDB0
S2144050E04FF07E510546204600F03EFD01462846DC
S2144050F000F0F6FE012704462CE700BFDB0FC93F51
S214405100FFFFDF3ED769853C59DA4B3D356B883D1E
S2144051106E2EBA3D2549123EABAAAA3E21A215BD27
S2144051206BF16E3D95879D3D388EE33DCDCC4C3E34
S21440513088A4400098A44000CAF24971FFFF973FF8
S214405140DB0FC9BFFFFF1B40000080BF20F00040C0
S214405150704700BF30F0004001D102207047A0F5F4
S2144051600003B3F1FE4F01D204207047054B421EA8
S2144051709A4201D803207047A0F1FF40B0FA80F071
S21440518040097047FEFF7F0081F0004102E000BF0B
S21440519083F0004330B54FEA41044FEA430594EAB2
S2144051A0050F08BF90EA020F1FBF54EA000C55EAED
S2144051B0020C7FEA645C7FEA655C00F0E2804FEABE
S2144051C05454D4EB5555B8BF6D420CDD2C4480EAA0
S2144051D0020281EA030382EA000083EA010180EAD0
S2144051E0020281EA0303362D88BF30BD11F0004F1E
S2144051F04FEA01314FF4801C4CEA113102D0404254
S21440520061EB410113F0004F4FEA03334CEA13338E
S21440521002D0524263EB430394EA050F00F0A780A6
S214405220A4F10104D5F1200E0DDB02FA0EFC22FAA1
S21440523005F2801841F1000103FA0EF2801843FA95
S21440524005F359410EE0A5F120050EF1200E012A86
S21440525003FA0EFC28BF4CF0020C43FA05F3C018C4
S21440526051EBE37101F0004507D54FF0000EDCF13D
S214405270000C7EEB00006EEB0101B1F5801F1BD3E6
S214405280B1F5001F0CD349085FEA30004FEA3C0CEA
S21440529004F101044FEA445212F5800F80F09A80E0
S2144052A0BCF1004F08BF5FEA500C50F1000041EBE4
S2144052B0045141EA050130BD5FEA4C0C404141EBE8
S2144052C0010111F4801FA4F10104E9D191F0000F0F
S2144052D004BF01460020B1FA81F308BF2033A3F192
S2144052E00B03B3F120020CDA0C3208DD02F1140C89
S2144052F0C2F10C0201FA0CF021FA02F10CE002F1C4
S2144053001402D8BFC2F1200C01FA02F120FA0CFCBC
S214405310DCBF41EA0C019040E41AA2BF01EB045105
S214405320294330BD6FEA04041F3C1CDA0C340EDC03
S21440533004F11404C4F1200220FA04F001FA02F346
S21440534040EA030021FA04F345EA030130BDC4F104
S2144053500C04C4F1200220FA02F001FA04F340EAF9
S2144053600300294630BD21FA04F0294630BD94F0AA
S214405370000F83F4801306BF81F480110134013D91
S2144053804EE77FEA645C18BF7FEA655C29D094EA02
S214405390050F08BF90EA020F05D054EA000C04BF80
S2144053A01946104630BD91EA030F1EBF002100206B
S2144053B030BD5FEA545C05D14000494128BF41F00A
S2144053C0004130BD14F580043CBF01F5801130BD6E
S2144053D001F0004545F0FE4141F470014FF00000F9
S2144053E030BD7FEA645C1ABF194610467FEA655CAA
S2144053F01CBF0B46024650EA013406BF52EA03354C
S21440540091EA030F41F4002130BD00BF90F0000F39
S21440541004BF0021704730B54FF4806404F1320475
S2144054204FF000054FF0000150E700BF90F0000F2E
S21440543004BF0021704730B54FF4806404F1320455
S21440544010F0004548BF40424FF000013EE700BF25
S21440545042004FEAE2014FEA31014FEA02701FBFB5
S21440546012F07F4393F07F4F81F06051704792F087
S214405470000F14BF93F07F4F704730B54FF4607401
S21440548001F0004521F0004120E700BF50EA01024C
S21440549008BF704730B54FF000050AE050EA0102F9
S2144054A008BF704730B511F0004502D5404261EB69
S2144054B041014FF4806404F132045FEA915C3FF4AA
S2144054C0DCAE4FF003025FEADC0C18BF03325FEA43
S2144054D0DC0C18BF033202EBDC02C2F1200300FAF8
S2144054E003FC20FA02F001FA03FE40EA0E0021FA1D
S2144054F002F11444C1E600BF70B54FF0FF0C4CF407
S214405500E06C1CEA11541DBF1CEA135594EA0C0FBC
S21440551095EA0C0F00F0DEF82C4481EA030621EAF7
S2144055204C5123EA4C5350EA013518BF52EA033532
S21440553041F4801143F4801338D0A0FB02CE4FF0E4
S2144055400005E1FB02E506F00042E0FB03E54FF014
S2144055500006E1FB03569CF0000F18BF4EF0010E0C
S214405560A4F1FF04B6F5007F64F5407404D25FEA08
S2144055704E0E6D4146EB060642EAC62141EA5551BB
S2144055804FEAC52040EA5E504FEACE2EB4F1FD0CFD
S21440559088BFBCF5E06F1ED8BEF1004F08BF5FEA7B
S2144055A0500E50F1000041EB045170BD06F000462D
S2144055B046EA010140EA020081EA0301B4EB5C04DA
S2144055C0C2BFD4EB0C0541EA045170BD41F48011D2
S2144055D04FF0000E013C00F3AB8014F1360FDEBFF7
S2144055E0002001F0004170BDC4F10004203C35DAD3
S2144055F00C341BDC04F11404C4F1200500FA05F356
S21440560020FA04F001FA05F240EA020001F00042F6
S21440561021F0004110EBD37021FA04F642EB06016C
S2144056205EEA430E08BF20EAD37070BDC4F10C0496
S214405630C4F1200500FA04F320FA05F001FA04F25A
S21440564040EA020001F0004110EBD37041F1000146
S2144056505EEA430E08BF20EAD37070BDC4F1200551
S21440566000FA05F24EEA020E20FA04F301FA05F2B9
S21440567043EA020321FA04F001F0004121FA04F261
S21440568020EA020000EBD3705EEA430E08BF20EA31
S214405690D37070BD94F0000F0FD101F0004640006B
S2144056A041EB010111F4801F08BF013CF7D041EAED
S2144056B0060195F0000F18BF704703F000465200F1
S2144056C043EB030313F4801F08BF013DF7D043EAC2
S2144056D00603704794EA0C0F0CEA135518BF95EA78
S2144056E00C0F0CD050EA410618BF52EA4306D1D1FF
S2144056F081EA030101F000414FF0000070BD50EA1E
S214405700410606BF1046194652EA430619D094EAA7
S2144057100C0F02D150EA013613D195EA0C0F05D191
S21440572052EA03361CBF104619460AD181EA0301E5
S21440573001F0004141F0FE4141F470014FF000009D
S21440574070BD41F0FE4141F4780170BD70B54FF038
S214405750FF0C4CF4E06C1CEA11541DBF1CEA1355B8
S21440576094EA0C0F95EA0C0F00F0A7F8A4EB05049A
S21440577081EA030E52EA03354FEA013100F0888091
S2144057804FEA03334FF0805545EA131343EA12635A
S2144057904FEA022245EA111545EA10654FEA00260F
S2144057A00EF000419D4208BF964244F1FD0404F5C8
S2144057B0407402D25B084FEA3202B61A65EB030524
S2144057C05B084FEA32024FF480104FF4002CB6EBE1
S2144057D0020E75EB030E22BFB61A754640EA0C0061
S2144057E05B084FEA3202B6EB020E75EB030E22BFA1
S2144057F0B61A754640EA5C005B084FEA3202B6EBE2
S214405800020E75EB030E22BFB61A754640EA9C00A0
S2144058105B084FEA3202B6EB020E75EB030E22BF70
S214405820B61A754640EADC0055EA060E18D04FEA2E
S214405830051545EA16754FEA06164FEAC30343EACE
S21440584052734FEAC2025FEA1C1CC0D111F4801F9B
S2144058500BD141EA00014FF000004FF0004CB6E794
S21440586011F4801F04BF01430020B4F1FD0C88BF33
S214405870BCF5E06F3FF6AFAEB5EB030C04BFB6EB3E
S214405880020C5FEA500C50F1000041EB045170BD31
S2144058900EF0004E4EEA113114EB5C04C2BFD4EB5E
S2144058A00C0541EA045170BD41F480114FF0000EE2
S2144058B0013C90E645EA060E8DE60CEA135594EA5E
S2144058C00C0F08BF95EA0C0F3FF43BAF94EA0C0F61
